{
  "address": "0x3C888C84511f4C0a4F3Ea5eD1a16ad7F6514077e",
  "abi": [
    {
      "inputs": [
        {
          "internalType": "address",
          "name": "bridge_",
          "type": "address"
        },
        {
          "internalType": "address",
          "name": "comptroller_",
          "type": "address"
        },
        {
          "internalType": "address",
          "name": "depositWrapper_",
          "type": "address"
        },
        {
          "internalType": "address",
          "name": "strategyL2_",
          "type": "address"
        },
        {
          "internalType": "uint24",
          "name": "id_",
          "type": "uint24"
        },
        {
          "internalType": "uint24",
          "name": "idL2_",
          "type": "uint24"
        },
        {
          "internalType": "address",
          "name": "weth_",
          "type": "address"
        }
      ],
      "stateMutability": "nonpayable",
      "type": "constructor"
    },
    {
      "inputs": [],
      "name": "ClaimByThisContractOnly",
      "type": "error"
    },
    {
      "anonymous": false,
      "inputs": [
        {
          "indexed": false,
          "internalType": "uint256",
          "name": "amount",
          "type": "uint256"
        },
        {
          "indexed": false,
          "internalType": "uint256",
          "name": "gotEther",
          "type": "uint256"
        }
      ],
      "name": "ClaimRedemption",
      "type": "event"
    },
    {
      "anonymous": false,
      "inputs": [
        {
          "indexed": false,
          "internalType": "address",
          "name": "bridge",
          "type": "address"
        },
        {
          "indexed": false,
          "internalType": "address",
          "name": "comptroller",
          "type": "address"
        },
        {
          "indexed": false,
          "internalType": "address",
          "name": "depositWrapper",
          "type": "address"
        },
        {
          "indexed": false,
          "internalType": "address",
          "name": "strategyL2",
          "type": "address"
        },
        {
          "indexed": false,
          "internalType": "uint24",
          "name": "id",
          "type": "uint24"
        },
        {
          "indexed": false,
          "internalType": "uint32",
          "name": "idL2",
          "type": "uint32"
        },
        {
          "indexed": false,
          "internalType": "address",
          "name": "weth",
          "type": "address"
        }
      ],
      "name": "Setup",
      "type": "event"
    },
    {
      "inputs": [],
      "name": "bridge",
      "outputs": [
        {
          "internalType": "address",
          "name": "",
          "type": "address"
        }
      ],
      "stateMutability": "view",
      "type": "function"
    },
    {
      "inputs": [
        {
          "internalType": "bytes32[32]",
          "name": "smtProofLocalExitRoot",
          "type": "bytes32[32]"
        },
        {
          "internalType": "bytes32[32]",
          "name": "smtProofRollupExitRoot",
          "type": "bytes32[32]"
        },
        {
          "internalType": "uint256",
          "name": "globalIndex",
          "type": "uint256"
        },
        {
          "internalType": "bytes32",
          "name": "mainnetExitRoot",
          "type": "bytes32"
        },
        {
          "internalType": "bytes32",
          "name": "rollupExitRoot",
          "type": "bytes32"
        },
        {
          "internalType": "bytes",
          "name": "metadata",
          "type": "bytes"
        }
      ],
      "name": "claimMessage",
      "outputs": [],
      "stateMutability": "nonpayable",
      "type": "function"
    },
    {
      "inputs": [],
      "name": "comptroller",
      "outputs": [
        {
          "internalType": "address",
          "name": "",
          "type": "address"
        }
      ],
      "stateMutability": "view",
      "type": "function"
    },
    {
      "inputs": [],
      "name": "depositWrapper",
      "outputs": [
        {
          "internalType": "address",
          "name": "",
          "type": "address"
        }
      ],
      "stateMutability": "view",
      "type": "function"
    },
    {
      "inputs": [
        {
          "internalType": "address",
          "name": "",
          "type": "address"
        },
        {
          "internalType": "uint32",
          "name": "",
          "type": "uint32"
        },
        {
          "internalType": "bytes",
          "name": "",
          "type": "bytes"
        }
      ],
      "name": "onMessageReceived",
      "outputs": [],
      "stateMutability": "payable",
      "type": "function"
    },
    {
      "inputs": [],
      "name": "strategyL2",
      "outputs": [
        {
          "internalType": "address",
          "name": "",
          "type": "address"
        }
      ],
      "stateMutability": "view",
      "type": "function"
    },
    {
      "stateMutability": "payable",
      "type": "receive"
    }
  ],
  "transactionHash": "0x977ac642d77d61c2822069ac32a0916b52465c168e23c139d339a08c73fc892c",
  "args": [
    "0x528e26b25a34a4A5d0dbDa1d57D318153d2ED582",
    "0x02Af36760deDf3a2ac3Fa7f5af072b9aDaf3F504",
    "0xEB529553Bc75377d8A47F2367881D4e854a560e7",
    "0x3C888C84511f4C0a4F3Ea5eD1a16ad7F6514077e",
    0,
    1,
    "0xE0D142466d1BF88FE23D5D265d76068077E4D6F0"
  ],
  "numDeployments": 1,
  "solcInputHash": "cd9d925b63ac700938c46a08eefd7125",
  "bytecode": "0x6101606040523480156200001257600080fd5b5060405162000e7c38038062000e7c833981016040819052620000359162000113565b6001600160a01b03878116608081815287831660a08181528a851660c08181528a871660e081815262ffffff8c8116610100819052908c16610120819052998b16610140819052604080519a8b5260208b0196909652898601979097526060890192909252958701529185019590955283015291517fe44a18fa548f2d5b60195fc3b72cc4a845bf6b0c8dc7e858d91047be5bcc23bc929181900390910190a150505050505050620001a8565b80516001600160a01b0381168114620000fa57600080fd5b919050565b805162ffffff81168114620000fa57600080fd5b600080600080600080600060e0888a0312156200012f57600080fd5b6200013a88620000e2565b96506200014a60208901620000e2565b95506200015a60408901620000e2565b94506200016a60608901620000e2565b93506200017a60808901620000ff565b92506200018a60a08901620000ff565b91506200019a60c08901620000e2565b905092959891949750929550565b60805160a05160c05160e051610100516101205161014051610c3d6200023f60003960006104ed015260008181610311015261061f015260006103550152600081816101e401528181610333015261064101526000818160a501528181610194015261040a01526000818160f7015261023801526000818160610152818161026c015281816102da01526105ee0152610c3d6000f3fe6080604052600436106100595760003560e01c80631806b5f21461016f5780635fe3b5671461018257806390ebccc8146101d2578063bd99690414610206578063dc46b4fb14610226578063e78cea921461025a57600080fd5b3661016a57337f00000000000000000000000000000000000000000000000000000000000000006001600160a01b03160361016857604051639a98f01b60e01b81526001600160a01b037f000000000000000000000000000000000000000000000000000000000000000081166004830152600160248301526000604483018190526064830181905260c0608484015260c4830181905260a48301527f00000000000000000000000000000000000000000000000000000000000000001690639a98f01b90349060e40160206040518083038185885af1158015610141573d6000803e3d6000fd5b50505050506040513d601f19601f8201168201806040525081019061016691906106f4565b505b005b600080fd5b61016861017d36600461076c565b61028e565b34801561018e57600080fd5b506101b67f000000000000000000000000000000000000000000000000000000000000000081565b6040516001600160a01b03909116815260200160405180910390f35b3480156101de57600080fd5b506101b67f000000000000000000000000000000000000000000000000000000000000000081565b34801561021257600080fd5b50610168610221366004610847565b6102b6565b34801561023257600080fd5b506101b67f000000000000000000000000000000000000000000000000000000000000000081565b34801561026657600080fd5b506101b67f000000000000000000000000000000000000000000000000000000000000000081565b60005460ff166102b15760405163bb630ce360e01b815260040160405180910390fd5b505050565b6000805460ff1916600117815560405163f5efcd7960e01b81526001600160a01b037f0000000000000000000000000000000000000000000000000000000000000000169163f5efcd7991610383918b918b918b918b918b917f0000000000000000000000000000000000000000000000000000000000000000917f0000000000000000000000000000000000000000000000000000000000000000917f00000000000000000000000000000000000000000000000000000000000000009130918f908f90600401610900565b600060405180830381600087803b15801561039d57600080fd5b505af11580156103b1573d6000803e3d6000fd5b50506000805460ff19168155604080516020601f87018190048102820181019092528581529193506103fe92508590859081908401838280828437600092018290525092506106ec915050565b90506001600160a01b037f000000000000000000000000000000000000000000000000000000000000000016636af8e7eb3083600060405190808252806020026020018201604052801561045c578160200160208202803683370190505b50604080516000815260208101918290526001600160e01b031960e087901b1690915261048f93929190602481016109e4565b6000604051808303816000875af11580156104ae573d6000803e3d6000fd5b505050506040513d6000823e601f3d908101601f191682016040526104d69190810190610abb565b50506040516370a0823160e01b81523060048201527f0000000000000000000000000000000000000000000000000000000000000000906000906001600160a01b038316906370a0823190602401602060405180830381865afa158015610541573d6000803e3d6000fd5b505050506040513d601f19601f8201168201806040525081019061056591906106f4565b604051632e1a7d4d60e01b8152600481018290529091506001600160a01b03831690632e1a7d4d90602401600060405180830381600087803b1580156105aa57600080fd5b505af11580156105be573d6000803e3d6000fd5b50506040805180820182526001808252600360fc1b6020830152915163cd58657960e01b81526001600160a01b037f000000000000000000000000000000000000000000000000000000000000000016945063cd5865799350859261066e927f0000000000000000000000000000000000000000000000000000000000000000927f0000000000000000000000000000000000000000000000000000000000000000928692600092600401610b80565b6000604051808303818588803b15801561068757600080fd5b505af115801561069b573d6000803e3d6000fd5b505060408051878152602081018690527f490e27a76b7bdee03819a8ae6a21f25638992aceef286902fd4b799d2b18ae4b94500191506106d89050565b60405180910390a150505050505050505050565b016020015190565b60006020828403121561070657600080fd5b5051919050565b6001600160a01b038116811461072257600080fd5b50565b634e487b7160e01b600052604160045260246000fd5b604051601f8201601f1916810167ffffffffffffffff8111828210171561076457610764610725565b604052919050565b60008060006060848603121561078157600080fd5b833561078c8161070d565b925060208481013563ffffffff811681146107a657600080fd5b9250604085013567ffffffffffffffff808211156107c357600080fd5b818701915087601f8301126107d757600080fd5b8135818111156107e9576107e9610725565b6107fb601f8201601f1916850161073b565b9150808252888482850101111561081157600080fd5b80848401858401376000848284010152508093505050509250925092565b80610400810183101561084157600080fd5b92915050565b6000806000806000806000610880888a03121561086357600080fd5b61086d898961082f565b965061087d896104008a0161082f565b955061080088013594506108208801359350610840880135925061086088013567ffffffffffffffff808211156108b357600080fd5b818a0191508a601f8301126108c757600080fd5b8135818111156108d657600080fd5b8b60208285010111156108e857600080fd5b60208301945080935050505092959891949750929550565b6000610400808f8437808e82850137508b6108008301528a6108208301528961084083015263ffffffff891661086083015260018060a01b0380891661088084015262ffffff88166108a08401528087166108c084015250846108e0830152610920610900830152826109208301526109408385828501376000838501820152601f909301601f19169091019091019c9b505050505050505050505050565b60008151808452602080850194506020840160005b838110156109d95781516001600160a01b0316875295820195908201906001016109b4565b509495945050505050565b60018060a01b0385168152836020820152608060408201526000610a0b608083018561099f565b8281036060840152610a1d818561099f565b979650505050505050565b600067ffffffffffffffff821115610a4257610a42610725565b5060051b60200190565b600082601f830112610a5d57600080fd5b81516020610a72610a6d83610a28565b61073b565b8083825260208201915060208460051b870101935086841115610a9457600080fd5b602086015b84811015610ab05780518352918301918301610a99565b509695505050505050565b60008060408385031215610ace57600080fd5b825167ffffffffffffffff80821115610ae657600080fd5b818501915085601f830112610afa57600080fd5b81516020610b0a610a6d83610a28565b82815260059290921b84018101918181019089841115610b2957600080fd5b948201945b83861015610b50578551610b418161070d565b82529482019490820190610b2e565b91880151919650909350505080821115610b6957600080fd5b50610b7685828601610a4c565b9150509250929050565b63ffffffff871681526000602060018060a01b038089166020850152876040850152808716606085015250841515608084015260c060a084015283518060c085015260005b81811015610be15785810183015185820160e001528201610bc5565b50600060e0828601015260e0601f19601f8301168501019250505097965050505050505056fea2646970667358221220ed55e58940ad3086f4b9b937b4b5f8ea79d8b4ea56254471bcdb31cb977b0b1b64736f6c63430008180033",
  "devdoc": {
    "author": "a17",
    "kind": "dev",
    "methods": {},
    "title": "Stake bridged ETH to Enzyme Diva Early Staker Vault",
    "version": 1
  },
  "userdoc": {
    "kind": "user",
    "methods": {},
    "version": 1
  },
  "storageLayout": {
    "storage": [
      {
        "astId": 5731,
        "contract": "contracts/EnzymeStaker.sol:EnzymeStaker",
        "label": "isClaiming",
        "offset": 0,
        "slot": "0",
        "type": "t_bool"
      }
    ],
    "types": {
      "t_bool": {
        "encoding": "inplace",
        "label": "bool",
        "numberOfBytes": "1"
      }
    }
  }
}