{
  "address": "0x33222Ee7eAb1aBE6fC1724eAce207fA3Fa62C7C3",
  "abi": [
    {
      "inputs": [
        {
          "internalType": "address",
          "name": "comptroller_",
          "type": "address"
        },
        {
          "internalType": "address",
          "name": "weth_",
          "type": "address"
        }
      ],
      "stateMutability": "nonpayable",
      "type": "constructor"
    },
    {
      "inputs": [],
      "name": "comptroller",
      "outputs": [
        {
          "internalType": "address",
          "name": "",
          "type": "address"
        }
      ],
      "stateMutability": "view",
      "type": "function"
    },
    {
      "inputs": [
        {
          "internalType": "address",
          "name": "_comptrollerProxy",
          "type": "address"
        },
        {
          "internalType": "uint256",
          "name": "",
          "type": "uint256"
        },
        {
          "internalType": "address",
          "name": "",
          "type": "address"
        },
        {
          "internalType": "address",
          "name": "",
          "type": "address"
        },
        {
          "internalType": "bytes",
          "name": "",
          "type": "bytes"
        },
        {
          "internalType": "uint256",
          "name": "",
          "type": "uint256"
        }
      ],
      "name": "exchangeEthAndBuyShares",
      "outputs": [
        {
          "internalType": "uint256",
          "name": "sharesReceived_",
          "type": "uint256"
        }
      ],
      "stateMutability": "payable",
      "type": "function"
    },
    {
      "inputs": [],
      "name": "weth",
      "outputs": [
        {
          "internalType": "address",
          "name": "",
          "type": "address"
        }
      ],
      "stateMutability": "view",
      "type": "function"
    }
  ],
  "transactionHash": "0xa64c0fe796e2166c1724e4e469b5adc771c2dddc34e2d6ab51c253991ddbdc94",
  "args": [
    "0x4Aca671A420eEB58ecafE83700686a2AD06b20D8",
    "0xdb998e95a22fe1Ee74eF1F5CDD7FCA151456a04E"
  ],
  "numDeployments": 1,
  "solcInputHash": "b0fd921354e138a657dd1cedcdbe093b",
  "bytecode": "0x60c060405234801561001057600080fd5b506040516104c13803806104c183398101604081905261002f91610062565b6001600160a01b039182166080521660a052610095565b80516001600160a01b038116811461005d57600080fd5b919050565b6000806040838503121561007557600080fd5b61007e83610046565b915061008c60208401610046565b90509250929050565b60805160a0516103fc6100c560003960008181604b0152818160e3015261017101526000609c01526103fc6000f3fe6080604052600436106100345760003560e01c80633fc8cef3146100395780635fe3b5671461008a5780639a98f01b146100be575b600080fd5b34801561004557600080fd5b5061006d7f000000000000000000000000000000000000000000000000000000000000000081565b6040516001600160a01b0390911681526020015b60405180910390f35b34801561009657600080fd5b5061006d7f000000000000000000000000000000000000000000000000000000000000000081565b6100d16100cc36600461029c565b6100df565b604051908152602001610081565b60007f00000000000000000000000000000000000000000000000000000000000000006001600160a01b031663d0e30db0346040518263ffffffff1660e01b81526004016000604051808303818588803b15801561013c57600080fd5b505af1158015610150573d6000803e3d6000fd5b50505050506000612710346101659190610354565b90506001600160a01b037f00000000000000000000000000000000000000000000000000000000000000001663a9059cbb8a6101a18434610376565b6040516001600160e01b031960e085901b1681526001600160a01b03909216600483015260248201526044016020604051808303816000875af11580156101ec573d6000803e3d6000fd5b505050506040513d601f19601f82011682018060405250810190610210919061039d565b506040516301a36ec960e21b8152336004820152346024820181905292506001600160a01b038a169063068dbb2490604401600060405180830381600087803b15801561025c57600080fd5b505af1158015610270573d6000803e3d6000fd5b5050505050979650505050505050565b80356001600160a01b038116811461029757600080fd5b919050565b600080600080600080600060c0888a0312156102b757600080fd5b6102c088610280565b9650602088013595506102d560408901610280565b94506102e360608901610280565b9350608088013567ffffffffffffffff8082111561030057600080fd5b818a0191508a601f83011261031457600080fd5b81358181111561032357600080fd5b8b602082850101111561033557600080fd5b60208301955080945050505060a0880135905092959891949750929550565b60008261037157634e487b7160e01b600052601260045260246000fd5b500490565b8181038181111561039757634e487b7160e01b600052601160045260246000fd5b92915050565b6000602082840312156103af57600080fd5b815180151581146103bf57600080fd5b939250505056fea264697066735822122042abc4811f150601aef907165f0253a6d0d0374c9e54a63f13c9e114d2e7bcf964736f6c63430008180033",
  "devdoc": {
    "kind": "dev",
    "methods": {},
    "version": 1
  },
  "userdoc": {
    "kind": "user",
    "methods": {},
    "version": 1
  },
  "storageLayout": {
    "storage": [],
    "types": null
  }
}