{
  "address": "0x02Af36760deDf3a2ac3Fa7f5af072b9aDaf3F504",
  "abi": [
    {
      "inputs": [
        {
          "internalType": "address",
          "name": "weth_",
          "type": "address"
        }
      ],
      "stateMutability": "nonpayable",
      "type": "constructor"
    },
    {
      "inputs": [
        {
          "internalType": "address",
          "name": "user",
          "type": "address"
        },
        {
          "internalType": "uint256",
          "name": "amountShares",
          "type": "uint256"
        }
      ],
      "name": "addUserBalance",
      "outputs": [],
      "stateMutability": "nonpayable",
      "type": "function"
    },
    {
      "inputs": [
        {
          "internalType": "address",
          "name": "_recipient",
          "type": "address"
        },
        {
          "internalType": "uint256",
          "name": "_sharesQuantity",
          "type": "uint256"
        },
        {
          "internalType": "address[]",
          "name": "",
          "type": "address[]"
        },
        {
          "internalType": "address[]",
          "name": "",
          "type": "address[]"
        }
      ],
      "name": "redeemSharesInKind",
      "outputs": [
        {
          "internalType": "address[]",
          "name": "payoutAssets_",
          "type": "address[]"
        },
        {
          "internalType": "uint256[]",
          "name": "payoutAmounts_",
          "type": "uint256[]"
        }
      ],
      "stateMutability": "nonpayable",
      "type": "function"
    },
    {
      "inputs": [],
      "name": "totalUserShares",
      "outputs": [
        {
          "internalType": "uint256",
          "name": "",
          "type": "uint256"
        }
      ],
      "stateMutability": "view",
      "type": "function"
    },
    {
      "inputs": [
        {
          "internalType": "address",
          "name": "",
          "type": "address"
        }
      ],
      "name": "userBalance",
      "outputs": [
        {
          "internalType": "uint256",
          "name": "",
          "type": "uint256"
        }
      ],
      "stateMutability": "view",
      "type": "function"
    },
    {
      "inputs": [],
      "name": "weth",
      "outputs": [
        {
          "internalType": "address",
          "name": "",
          "type": "address"
        }
      ],
      "stateMutability": "view",
      "type": "function"
    }
  ],
  "transactionHash": "0x60e0b9bdff263b0a55b7a5ea60499ae469021714f5f9bf03b6e31c6eecc0e0c1",
  "args": [
    "0xE0D142466d1BF88FE23D5D265d76068077E4D6F0"
  ],
  "numDeployments": 1,
  "solcInputHash": "cd9d925b63ac700938c46a08eefd7125",
  "bytecode": "0x608060405234801561001057600080fd5b5060405161065138038061065183398101604081905261002f91610054565b600080546001600160a01b0319166001600160a01b0392909216919091179055610084565b60006020828403121561006657600080fd5b81516001600160a01b038116811461007d57600080fd5b9392505050565b6105be806100936000396000f3fe608060405234801561001057600080fd5b50600436106100575760003560e01c80630103c92b1461005c578063049947121461008f578063068dbb24146100985780633fc8cef3146100ad5780636af8e7eb146100d8575b600080fd5b61007c61006a36600461032c565b60026020526000908152604090205481565b6040519081526020015b60405180910390f35b61007c60015481565b6100ab6100a636600461034e565b6100f9565b005b6000546100c0906001600160a01b031681565b6040516001600160a01b039091168152602001610086565b6100eb6100e63660046103c4565b610143565b60405161008692919061044e565b6001600160a01b038216600090815260026020526040812080548392906101219084906104e8565b92505081905550806001600082825461013a91906104e8565b90915550505050565b33600090815260026020526040902054606090819060018801610168578097506101b1565b878110156101b15760405162461bcd60e51b81526020600482015260126024820152714e6f7420656e6f7567682062616c616e636560701b604482015260640160405180910390fd5b600080546040516370a0823160e01b81523060048201526001600160a01b03909116906370a0823190602401602060405180830381865afa1580156101fa573d6000803e3d6000fd5b505050506040513d601f19601f8201168201806040525081019061021e9190610501565b905060006001548a83610231919061051a565b61023b9190610531565b60005460405163a9059cbb60e01b81526001600160a01b038e811660048301526024820184905292935091169063a9059cbb906044016020604051808303816000875af1158015610290573d6000803e3d6000fd5b505050506040513d601f19601f820116820180604052508101906102b49190610553565b506102bf8a84610575565b33600090815260026020526040812091909155600180548c92906102e4908490610575565b9091555050604080516000808252602082019081528183019092529c909b509950505050505050505050565b80356001600160a01b038116811461032757600080fd5b919050565b60006020828403121561033e57600080fd5b61034782610310565b9392505050565b6000806040838503121561036157600080fd5b61036a83610310565b946020939093013593505050565b60008083601f84011261038a57600080fd5b50813567ffffffffffffffff8111156103a257600080fd5b6020830191508360208260051b85010111156103bd57600080fd5b9250929050565b600080600080600080608087890312156103dd57600080fd5b6103e687610310565b955060208701359450604087013567ffffffffffffffff8082111561040a57600080fd5b6104168a838b01610378565b9096509450606089013591508082111561042f57600080fd5b5061043c89828a01610378565b979a9699509497509295939492505050565b604080825283519082018190526000906020906060840190828701845b828110156104905781516001600160a01b03168452928401929084019060010161046b565b5050508381038285015284518082528583019183019060005b818110156104c5578351835292840192918401916001016104a9565b5090979650505050505050565b634e487b7160e01b600052601160045260246000fd5b808201808211156104fb576104fb6104d2565b92915050565b60006020828403121561051357600080fd5b5051919050565b80820281158282048414176104fb576104fb6104d2565b60008261054e57634e487b7160e01b600052601260045260246000fd5b500490565b60006020828403121561056557600080fd5b8151801515811461034757600080fd5b818103818111156104fb576104fb6104d256fea2646970667358221220557ed7cfaf53071d4cc9edf8f6335a485a228fc0fad3a566063388f6b48cd1dd64736f6c63430008180033",
  "devdoc": {
    "kind": "dev",
    "methods": {},
    "version": 1
  },
  "userdoc": {
    "kind": "user",
    "methods": {},
    "version": 1
  },
  "storageLayout": {
    "storage": [
      {
        "astId": 9143,
        "contract": "contracts/test/MockComptroller.sol:MockComptroller",
        "label": "weth",
        "offset": 0,
        "slot": "0",
        "type": "t_address"
      },
      {
        "astId": 9145,
        "contract": "contracts/test/MockComptroller.sol:MockComptroller",
        "label": "totalUserShares",
        "offset": 0,
        "slot": "1",
        "type": "t_uint256"
      },
      {
        "astId": 9149,
        "contract": "contracts/test/MockComptroller.sol:MockComptroller",
        "label": "userBalance",
        "offset": 0,
        "slot": "2",
        "type": "t_mapping(t_address,t_uint256)"
      }
    ],
    "types": {
      "t_address": {
        "encoding": "inplace",
        "label": "address",
        "numberOfBytes": "20"
      },
      "t_mapping(t_address,t_uint256)": {
        "encoding": "mapping",
        "key": "t_address",
        "label": "mapping(address => uint256)",
        "numberOfBytes": "32",
        "value": "t_uint256"
      },
      "t_uint256": {
        "encoding": "inplace",
        "label": "uint256",
        "numberOfBytes": "32"
      }
    }
  }
}