{
  "address": "0xd4D6ad656f64E8644AFa18e7CCc9372E0Cd256f0",
  "abi": [
    {
      "inputs": [
        {
          "internalType": "address",
          "name": "switcher_",
          "type": "address"
        },
        {
          "internalType": "address",
          "name": "bridge_",
          "type": "address"
        },
        {
          "internalType": "uint32",
          "name": "destinationNetwork_",
          "type": "uint32"
        }
      ],
      "stateMutability": "nonpayable",
      "type": "constructor"
    },
    {
      "inputs": [],
      "name": "Already",
      "type": "error"
    },
    {
      "inputs": [],
      "name": "CantBridge",
      "type": "error"
    },
    {
      "inputs": [],
      "name": "DestinationIsNotSet",
      "type": "error"
    },
    {
      "inputs": [
        {
          "internalType": "address",
          "name": "user",
          "type": "address"
        }
      ],
      "name": "NoClaimRequestForUser",
      "type": "error"
    },
    {
      "inputs": [],
      "name": "NotAllAssetsAreBridged",
      "type": "error"
    },
    {
      "inputs": [],
      "name": "NotEnoughBridgedAssets",
      "type": "error"
    },
    {
      "inputs": [],
      "name": "OnlyBridgeCanDoThis",
      "type": "error"
    },
    {
      "inputs": [],
      "name": "OnlyGovernanceCanDoThis",
      "type": "error"
    },
    {
      "inputs": [],
      "name": "OnlySwitcherCanDoThis",
      "type": "error"
    },
    {
      "inputs": [],
      "name": "WaitForCurrentBridgingDone",
      "type": "error"
    },
    {
      "anonymous": false,
      "inputs": [
        {
          "indexed": false,
          "internalType": "uint256",
          "name": "amount",
          "type": "uint256"
        }
      ],
      "name": "BridgeAssetsToL1",
      "type": "event"
    },
    {
      "anonymous": false,
      "inputs": [
        {
          "indexed": false,
          "internalType": "uint256",
          "name": "amount",
          "type": "uint256"
        }
      ],
      "name": "BridgeRequestMessageToL1",
      "type": "event"
    },
    {
      "anonymous": false,
      "inputs": [
        {
          "indexed": false,
          "internalType": "address",
          "name": "contractL1",
          "type": "address"
        }
      ],
      "name": "Destination",
      "type": "event"
    },
    {
      "anonymous": false,
      "inputs": [
        {
          "indexed": true,
          "internalType": "address",
          "name": "owner",
          "type": "address"
        },
        {
          "indexed": false,
          "internalType": "uint256",
          "name": "vaultSharesAmount",
          "type": "uint256"
        }
      ],
      "name": "RequestAssets",
      "type": "event"
    },
    {
      "inputs": [],
      "name": "ENZYME_VAULT_REDEEM_TIMELOCK",
      "outputs": [
        {
          "internalType": "uint256",
          "name": "",
          "type": "uint256"
        }
      ],
      "stateMutability": "view",
      "type": "function"
    },
    {
      "inputs": [],
      "name": "MAX_WAIT_TIME_FOR_BRIDGING",
      "outputs": [
        {
          "internalType": "uint256",
          "name": "",
          "type": "uint256"
        }
      ],
      "stateMutability": "view",
      "type": "function"
    },
    {
      "inputs": [],
      "name": "SHUTTLE_FORCE_BRIDGE",
      "outputs": [
        {
          "internalType": "uint256",
          "name": "",
          "type": "uint256"
        }
      ],
      "stateMutability": "view",
      "type": "function"
    },
    {
      "inputs": [],
      "name": "SHUTTLE_FORCE_CLAIM",
      "outputs": [
        {
          "internalType": "uint256",
          "name": "",
          "type": "uint256"
        }
      ],
      "stateMutability": "view",
      "type": "function"
    },
    {
      "inputs": [],
      "name": "asset",
      "outputs": [
        {
          "internalType": "address",
          "name": "",
          "type": "address"
        }
      ],
      "stateMutability": "view",
      "type": "function"
    },
    {
      "inputs": [],
      "name": "bridge",
      "outputs": [
        {
          "internalType": "address",
          "name": "",
          "type": "address"
        }
      ],
      "stateMutability": "view",
      "type": "function"
    },
    {
      "inputs": [],
      "name": "bridgedAssets",
      "outputs": [
        {
          "internalType": "uint256",
          "name": "",
          "type": "uint256"
        }
      ],
      "stateMutability": "view",
      "type": "function"
    },
    {
      "inputs": [],
      "name": "callBridge",
      "outputs": [],
      "stateMutability": "nonpayable",
      "type": "function"
    },
    {
      "inputs": [
        {
          "internalType": "address[]",
          "name": "sharesHolders",
          "type": "address[]"
        }
      ],
      "name": "claimRequestedAssets",
      "outputs": [],
      "stateMutability": "nonpayable",
      "type": "function"
    },
    {
      "inputs": [],
      "name": "destination",
      "outputs": [
        {
          "internalType": "address",
          "name": "",
          "type": "address"
        }
      ],
      "stateMutability": "view",
      "type": "function"
    },
    {
      "inputs": [],
      "name": "destinationNetwork",
      "outputs": [
        {
          "internalType": "uint32",
          "name": "",
          "type": "uint32"
        }
      ],
      "stateMutability": "view",
      "type": "function"
    },
    {
      "inputs": [],
      "name": "lastBridgeTime",
      "outputs": [
        {
          "internalType": "uint256",
          "name": "",
          "type": "uint256"
        }
      ],
      "stateMutability": "view",
      "type": "function"
    },
    {
      "inputs": [],
      "name": "lastEnzymeDepositTime",
      "outputs": [
        {
          "internalType": "uint256",
          "name": "",
          "type": "uint256"
        }
      ],
      "stateMutability": "view",
      "type": "function"
    },
    {
      "inputs": [],
      "name": "needBridgingNow",
      "outputs": [
        {
          "internalType": "bool",
          "name": "need",
          "type": "bool"
        },
        {
          "internalType": "bool",
          "name": "toL1",
          "type": "bool"
        },
        {
          "internalType": "uint256",
          "name": "amount",
          "type": "uint256"
        }
      ],
      "stateMutability": "view",
      "type": "function"
    },
    {
      "inputs": [],
      "name": "pendingRequestedBridgingAssets",
      "outputs": [
        {
          "internalType": "uint256",
          "name": "",
          "type": "uint256"
        }
      ],
      "stateMutability": "view",
      "type": "function"
    },
    {
      "inputs": [],
      "name": "requestClaimAllAssets",
      "outputs": [],
      "stateMutability": "nonpayable",
      "type": "function"
    },
    {
      "inputs": [
        {
          "internalType": "uint256",
          "name": "vaultSharesAmount",
          "type": "uint256"
        }
      ],
      "name": "requestClaimAssets",
      "outputs": [],
      "stateMutability": "nonpayable",
      "type": "function"
    },
    {
      "inputs": [
        {
          "internalType": "address",
          "name": "user",
          "type": "address"
        }
      ],
      "name": "requests",
      "outputs": [
        {
          "internalType": "uint256",
          "name": "shares",
          "type": "uint256"
        }
      ],
      "stateMutability": "view",
      "type": "function"
    },
    {
      "inputs": [
        {
          "internalType": "address",
          "name": "destination_",
          "type": "address"
        }
      ],
      "name": "setDestination",
      "outputs": [],
      "stateMutability": "nonpayable",
      "type": "function"
    },
    {
      "inputs": [],
      "name": "switcher",
      "outputs": [
        {
          "internalType": "address",
          "name": "",
          "type": "address"
        }
      ],
      "stateMutability": "view",
      "type": "function"
    },
    {
      "inputs": [],
      "name": "totalAssets",
      "outputs": [
        {
          "internalType": "uint256",
          "name": "",
          "type": "uint256"
        }
      ],
      "stateMutability": "view",
      "type": "function"
    },
    {
      "inputs": [],
      "name": "totalRequested",
      "outputs": [
        {
          "internalType": "uint256",
          "name": "",
          "type": "uint256"
        }
      ],
      "stateMutability": "view",
      "type": "function"
    },
    {
      "inputs": [],
      "name": "totalRequestedVaultSharesForClaim",
      "outputs": [
        {
          "internalType": "uint256",
          "name": "",
          "type": "uint256"
        }
      ],
      "stateMutability": "view",
      "type": "function"
    },
    {
      "inputs": [],
      "name": "withdrawAllToSwitcher",
      "outputs": [
        {
          "internalType": "uint256",
          "name": "amount",
          "type": "uint256"
        }
      ],
      "stateMutability": "nonpayable",
      "type": "function"
    },
    {
      "inputs": [
        {
          "internalType": "uint256",
          "name": "amount",
          "type": "uint256"
        }
      ],
      "name": "withdrawToSwitcher",
      "outputs": [],
      "stateMutability": "nonpayable",
      "type": "function"
    },
    {
      "stateMutability": "payable",
      "type": "receive"
    }
  ],
  "transactionHash": "0x2d3ebbda4ac5376334dca551673d75f9ebfec50679ffa0e65a633f6085548426",
  "args": [
    "0xc184a3ECcA684F2621c903A7943D85fA42F56671",
    "0x528e26b25a34a4A5d0dbDa1d57D318153d2ED582",
    0
  ],
  "numDeployments": 1,
  "solcInputHash": "6653c483a8a4d17cef33c6725c3d2a7f",
  "bytecode": "0x6101006040523480156200001257600080fd5b5060405162001b1e38038062001b1e8339810160408190526200003591620000ea565b6001600160a01b0380841660a081905290831660e05263ffffffff821660c052604080516338d52e0f60e01b815290516338d52e0f916004808201926020929091908290030181865afa15801562000091573d6000803e3d6000fd5b505050506040513d601f19601f82011682018060405250810190620000b7919062000140565b6001600160a01b03166080525062000165915050565b80516001600160a01b0381168114620000e557600080fd5b919050565b6000806000606084860312156200010057600080fd5b6200010b84620000cd565b92506200011b60208501620000cd565b9150604084015163ffffffff811681146200013557600080fd5b809150509250925092565b6000602082840312156200015357600080fd5b6200015e82620000cd565b9392505050565b60805160a05160c05160e0516118e562000239600039600081816101ef01528181610538015281816110720152818161129501526113840152600081816103040152818161109c015281816112c501526113b301526000818161050401528181610a9101528181610f95015281816114b00152818161156701526115f201526000818161017b0152818161039f01528181610564015281816107bc0152818161089201528181610a0401528181610ac301528181610d5a01528181610ee901528181610fc401526111fd01526118e56000f3fe60806040526004361061015a5760003560e01c8063507477af116100c1578063936371ba1161007a578063936371ba14610488578063a78a9b4a146104a8578063adde0800146104bd578063b269681d146104d2578063bc4462de146104f2578063e1471ab9146103fa578063e78cea921461052657600080fd5b8063507477af146103fa57806357339c2914610411578063614e48f71461042657806374adad1d1461044657806382dce0b414610294578063880b678d1461047357600080fd5b80632bcf6ffd116101135780632bcf6ffd146102f257806330b8615c1461033b5780633707546e1461035b57806338d52e0f1461038d5780633ae4075b146103ce57806348865d7e146103e457600080fd5b806301e1d1141461024c5780630a0a05e6146102745780630c8996ce14610294578063143d7281146102b057806318780bcb146102c657806327eb2510146102dc57600080fd5b366102475760055460ff1615801561017457506000600254115b15610245577f00000000000000000000000000000000000000000000000000000000000000006001600160a01b031663d0e30db0346040518263ffffffff1660e01b81526004016000604051808303818588803b1580156101d457600080fd5b505af11580156101e8573d6000803e3d6000fd5b50505050507f00000000000000000000000000000000000000000000000000000000000000006001600160a01b0316336001600160a01b03161461023f576040516333c62c9760e01b815260040160405180910390fd5b60006002555b005b600080fd5b34801561025857600080fd5b5061026161055a565b6040519081526020015b60405180910390f35b34801561028057600080fd5b5061024561028f366004611648565b610608565b3480156102a057600080fd5b50610261678ac7230489e8000081565b3480156102bc57600080fd5b5061026160015481565b3480156102d257600080fd5b5061026160045481565b3480156102e857600080fd5b5061026160025481565b3480156102fe57600080fd5b506103267f000000000000000000000000000000000000000000000000000000000000000081565b60405163ffffffff909116815260200161026b565b34801561034757600080fd5b5061024561035636600461166c565b610690565b34801561036757600080fd5b50610370610787565b60408051931515845291151560208401529082015260600161026b565b34801561039957600080fd5b506103c17f000000000000000000000000000000000000000000000000000000000000000081565b60405161026b9190611685565b3480156103da57600080fd5b5061026160035481565b3480156103f057600080fd5b5061026160075481565b34801561040657600080fd5b506102616201518081565b34801561041d57600080fd5b506102616109b4565b34801561043257600080fd5b50610245610441366004611699565b610b36565b34801561045257600080fd5b50610261610461366004611648565b60066020526000908152604090205481565b34801561047f57600080fd5b50610261610e4e565b34801561049457600080fd5b506102456104a336600461166c565b610ec8565b3480156104b457600080fd5b50610245611035565b3480156104c957600080fd5b50610245611172565b3480156104de57600080fd5b506000546103c1906001600160a01b031681565b3480156104fe57600080fd5b506103c17f000000000000000000000000000000000000000000000000000000000000000081565b34801561053257600080fd5b506103c17f000000000000000000000000000000000000000000000000000000000000000081565b60006002546001547f00000000000000000000000000000000000000000000000000000000000000006001600160a01b03166370a08231306040518263ffffffff1660e01b81526004016105ae9190611685565b602060405180830381865afa1580156105cb573d6000803e3d6000fd5b505050506040513d601f19601f820116820180604052508101906105ef919061170e565b6105f9919061173d565b610603919061173d565b905090565b6106106114ae565b6000546001600160a01b03161561063a57604051633008ba1360e11b815260040160405180910390fd5b600080546001600160a01b0319166001600160a01b0383161790556040517f1ee14f322e4fd8a87a4be8216285bc5d4701b95e7dfa4ab84bac65c4b9cc5ba590610685908390611685565b60405180910390a150565b610698611563565b6040516323b872dd60e01b8152336004820152306024820152604481018390526001600160a01b0391909116906323b872dd906064016020604051808303816000875af11580156106ed573d6000803e3d6000fd5b505050506040513d601f19601f820116820180604052508101906107119190611756565b50336000908152600660205260408120805483929061073190849061173d565b92505081905550806007600082825461074a919061173d565b909155505060405181815233907f6c704fb9d54f64b01bae7a4940ee85bb1a8cceabd6405c270fd9b19d49a310609060200160405180910390a250565b60008060008060025411156107a25750600092839250829150565b6040516370a0823160e01b81526000906001600160a01b037f000000000000000000000000000000000000000000000000000000000000000016906370a08231906107f1903090600401611685565b602060405180830381865afa15801561080e573d6000803e3d6000fd5b505050506040513d601f19601f82011682018060405250810190610832919061170e565b9050600061083e610e4e565b90508082111561088e576108528183611778565b925060019350678ac7230489e800008310158061087f5750620151806003544261087c9190611778565b10155b1561088957600194505b6109ad565b60007f00000000000000000000000000000000000000000000000000000000000000006001600160a01b03166370a082316108c7611563565b6040518263ffffffff1660e01b81526004016108e39190611685565b602060405180830381865afa158015610900573d6000803e3d6000fd5b505050506040513d601f19601f82011682018060405250810190610924919061170e565b9050806109318484611778565b11156109ab576109418383611778565b93506001548411156109535760015493505b600084118015610973575062015180600454426109709190611778565b10155b80156109a15750678ac7230489e80000841015806109a15750620151806003544261099e9190611778565b10155b156109ab57600195505b505b5050909192565b60006109be6115e7565b6001541515806109cf575060025415155b156109ed57604051638e0d838f60e01b815260040160405180910390fd5b6040516370a0823160e01b81526001600160a01b037f000000000000000000000000000000000000000000000000000000000000000016906370a0823190610a39903090600401611685565b602060405180830381865afa158015610a56573d6000803e3d6000fd5b505050506040513d601f19601f82011682018060405250810190610a7a919061170e565b60405163a9059cbb60e01b81526001600160a01b037f000000000000000000000000000000000000000000000000000000000000000081166004830152602482018390529192507f00000000000000000000000000000000000000000000000000000000000000009091169063a9059cbb906044016020604051808303816000875af1158015610b0e573d6000803e3d6000fd5b505050506040513d601f19601f82011682018060405250810190610b329190611756565b5090565b806000610b41611563565b905060008267ffffffffffffffff811115610b5e57610b5e61178b565b604051908082528060200260200182016040528015610b87578160200160208202803683370190505b5090506000805b84811015610cd357600060066000898985818110610bae57610bae6117a1565b9050602002016020810190610bc39190611648565b6001600160a01b03166001600160a01b0316815260200190815260200160002054905080600003610c3857878783818110610c0057610c006117a1565b9050602002016020810190610c159190611648565b60405163683a2f7760e01b8152600401610c2f9190611685565b60405180910390fd5b60405163266d6a8360e11b8152600481018290526001600160a01b03861690634cdad50690602401602060405180830381865afa158015610c7d573d6000803e3d6000fd5b505050506040513d601f19601f82011682018060405250810190610ca1919061170e565b848381518110610cb357610cb36117a1565b6020908102919091010152610cc8818461173d565b925050600101610b8e565b50604051635d043b2960e11b815260048101829052306024820181905260448201526001600160a01b0384169063ba087652906064016020604051808303816000875af1158015610d28573d6000803e3d6000fd5b505050506040513d601f19601f82011682018060405250810190610d4c919061170e565b5060005b84811015610e45577f00000000000000000000000000000000000000000000000000000000000000006001600160a01b031663a9059cbb888884818110610d9957610d996117a1565b9050602002016020810190610dae9190611648565b858481518110610dc057610dc06117a1565b60200260200101516040518363ffffffff1660e01b8152600401610df99291906001600160a01b03929092168252602082015260400190565b6020604051808303816000875af1158015610e18573d6000803e3d6000fd5b505050506040513d601f19601f82011682018060405250810190610e3c9190611756565b50600101610d50565b50505050505050565b6000610e58611563565b6001600160a01b03166307a2d13a6007546040518263ffffffff1660e01b8152600401610e8791815260200190565b602060405180830381865afa158015610ea4573d6000803e3d6000fd5b505050506040513d601f19601f82011682018060405250810190610603919061170e565b610ed06115e7565b6040516370a0823160e01b815281906001600160a01b037f000000000000000000000000000000000000000000000000000000000000000016906370a0823190610f1e903090600401611685565b602060405180830381865afa158015610f3b573d6000803e3d6000fd5b505050506040513d601f19601f82011682018060405250810190610f5f919061170e565b1015610f7e57604051634fa2deef60e01b815260040160405180910390fd5b60405163a9059cbb60e01b81526001600160a01b037f000000000000000000000000000000000000000000000000000000000000000081166004830152602482018390527f0000000000000000000000000000000000000000000000000000000000000000169063a9059cbb906044016020604051808303816000875af115801561100d573d6000803e3d6000fd5b505050506040513d601f19601f820116820180604052508101906110319190611756565b5050565b61103d6115e7565b6002541561105e5760405163710e574160e01b815260040160405180910390fd5b600054604051600019916001600160a01b037f000000000000000000000000000000000000000000000000000000000000000081169263240ff378927f00000000000000000000000000000000000000000000000000000000000000009216906001906110d390879060200190815260200190565b6040516020818303038152906040526040518563ffffffff1660e01b815260040161110194939291906117fd565b600060405180830381600087803b15801561111b57600080fd5b505af115801561112f573d6000803e3d6000fd5b505042600355505060018054600255600090556040518181527fa83462975c7595803f3c969e5f13a6c17afee5363e4e8473b25e70e3fea57b3390602001610685565b6000546001600160a01b031661119b576040516343971d5760e01b815260040160405180910390fd5b60008060006111a8610787565b925092509250826111cc576040516305c1739360e31b815260040160405180910390fd5b8115611382576005805460ff19166001179055604051632e1a7d4d60e01b8152600481018290526001600160a01b037f00000000000000000000000000000000000000000000000000000000000000001690632e1a7d4d90602401600060405180830381600087803b15801561124157600080fd5b505af1158015611255573d6000803e3d6000fd5b50506005805460ff191690555050600080546040805180820182526001808252600360fc1b6020830152915163cd58657960e01b81526001600160a01b037f000000000000000000000000000000000000000000000000000000000000000081169563cd5865799588956112f5957f000000000000000000000000000000000000000000000000000000000000000095929094169387939260040161183f565b6000604051808303818588803b15801561130e57600080fd5b505af1158015611322573d6000803e3d6000fd5b505042600381905560045550506001805483925060009061134490849061173d565b90915550506040518181527f019c36e19393857475613d5ff0cb896db2eac1812679d659490ca7471d3d3eee906020015b60405180910390a1505050565b7f00000000000000000000000000000000000000000000000000000000000000006001600160a01b031663240ff3787f000000000000000000000000000000000000000000000000000000000000000060008054906101000a90046001600160a01b03166001856040516020016113fb91815260200190565b6040516020818303038152906040526040518563ffffffff1660e01b815260040161142994939291906117fd565b600060405180830381600087803b15801561144357600080fd5b505af1158015611457573d6000803e3d6000fd5b505050504260038190555080600160008282546114749190611778565b909155505060028190556040518181527fa83462975c7595803f3c969e5f13a6c17afee5363e4e8473b25e70e3fea57b3390602001611375565b7f00000000000000000000000000000000000000000000000000000000000000006001600160a01b0316635aa6e6756040518163ffffffff1660e01b8152600401602060405180830381865afa15801561150c573d6000803e3d6000fd5b505050506040513d601f19601f820116820180604052508101906115309190611892565b6001600160a01b0316336001600160a01b031614611561576040516343c0578f60e11b815260040160405180910390fd5b565b60007f00000000000000000000000000000000000000000000000000000000000000006001600160a01b031663fbfa77cf6040518163ffffffff1660e01b8152600401602060405180830381865afa1580156115c3573d6000803e3d6000fd5b505050506040513d601f19601f820116820180604052508101906106039190611892565b336001600160a01b037f0000000000000000000000000000000000000000000000000000000000000000161461156157604051632ec57f6d60e11b815260040160405180910390fd5b6001600160a01b038116811461164557600080fd5b50565b60006020828403121561165a57600080fd5b813561166581611630565b9392505050565b60006020828403121561167e57600080fd5b5035919050565b6001600160a01b0391909116815260200190565b600080602083850312156116ac57600080fd5b823567ffffffffffffffff808211156116c457600080fd5b818501915085601f8301126116d857600080fd5b8135818111156116e757600080fd5b8660208260051b85010111156116fc57600080fd5b60209290920196919550909350505050565b60006020828403121561172057600080fd5b5051919050565b634e487b7160e01b600052601160045260246000fd5b8082018082111561175057611750611727565b92915050565b60006020828403121561176857600080fd5b8151801515811461166557600080fd5b8181038181111561175057611750611727565b634e487b7160e01b600052604160045260246000fd5b634e487b7160e01b600052603260045260246000fd5b6000815180845260005b818110156117dd576020818501810151868301820152016117c1565b506000602082860101526020601f19601f83011685010191505092915050565b63ffffffff851681526001600160a01b03841660208201528215156040820152608060608201819052600090611835908301846117b7565b9695505050505050565b63ffffffff871681526001600160a01b0386811660208301526040820186905284166060820152821515608082015260c060a08201819052600090611886908301846117b7565b98975050505050505050565b6000602082840312156118a457600080fd5b81516116658161163056fea2646970667358221220bd37b3c24301e37254639b32c18ace8e9ec757a3da3a2ee4f4e19faf3a7d4b1764736f6c63430008180033",
  "devdoc": {
    "author": "a17",
    "kind": "dev",
    "methods": {
      "needBridgingNow()": {
        "returns": {
          "amount": "Amount of asset for bridging or request withdraw",
          "need": "Is need to call bridge now",
          "toL1": "Need bridge assets to L1"
        }
      },
      "withdrawAllToSwitcher()": {
        "details": "Will only be executed if all assets have already been transferred to the current network"
      }
    },
    "stateVariables": {
      "bridge": {
        "details": "LxLy bridge endpoint"
      }
    },
    "title": "ETH bridged staking",
    "version": 1
  },
  "userdoc": {
    "kind": "user",
    "methods": {
      "asset()": {
        "notice": "Underlying asset"
      },
      "bridgedAssets()": {
        "notice": "Amount of assets under strategy management on another network"
      },
      "callBridge()": {
        "notice": "Bridge assets for staking on another network or request withdraw from it"
      },
      "claimRequestedAssets(address[])": {
        "notice": "Claim requested and bridged from another network assets"
      },
      "destination()": {
        "notice": "Strategy contract on another network"
      },
      "needBridgingNow()": {
        "notice": "Is ready to call bridge"
      },
      "pendingRequestedBridgingAssets()": {
        "notice": "Assets in process of bridging"
      },
      "requestClaimAllAssets()": {
        "notice": "Send message to another network for claiming all invested assets Only Switcher can call it."
      },
      "requestClaimAssets(uint256)": {
        "notice": "Transfer vault shares from user and put claim request to shuttle Only vault shares owner can call it."
      },
      "switcher()": {
        "notice": "Linked switcher that manage strategy of the vault"
      },
      "totalAssets()": {
        "notice": "Total amount of assets under strategy management"
      },
      "totalRequested()": {
        "notice": "Total requested assets for withdraw from another network"
      },
      "withdrawAllToSwitcher()": {
        "notice": "Withdraws all assets under strategy management to the Switcher"
      },
      "withdrawToSwitcher(uint256)": {
        "notice": "Withdraws assets to the Switcher"
      }
    },
    "notice": "Bridging assets and messages between zkEVM and Ethereum via LxLy bridge",
    "version": 1
  },
  "storageLayout": {
    "storage": [
      {
        "astId": 1166,
        "contract": "contracts/BridgedStakingStrategy.sol:BridgedStakingStrategy",
        "label": "destination",
        "offset": 0,
        "slot": "0",
        "type": "t_address"
      },
      {
        "astId": 1172,
        "contract": "contracts/BridgedStakingStrategy.sol:BridgedStakingStrategy",
        "label": "bridgedAssets",
        "offset": 0,
        "slot": "1",
        "type": "t_uint256"
      },
      {
        "astId": 1175,
        "contract": "contracts/BridgedStakingStrategy.sol:BridgedStakingStrategy",
        "label": "pendingRequestedBridgingAssets",
        "offset": 0,
        "slot": "2",
        "type": "t_uint256"
      },
      {
        "astId": 1177,
        "contract": "contracts/BridgedStakingStrategy.sol:BridgedStakingStrategy",
        "label": "lastBridgeTime",
        "offset": 0,
        "slot": "3",
        "type": "t_uint256"
      },
      {
        "astId": 1179,
        "contract": "contracts/BridgedStakingStrategy.sol:BridgedStakingStrategy",
        "label": "lastEnzymeDepositTime",
        "offset": 0,
        "slot": "4",
        "type": "t_uint256"
      },
      {
        "astId": 1181,
        "contract": "contracts/BridgedStakingStrategy.sol:BridgedStakingStrategy",
        "label": "_isWethWithdrawing",
        "offset": 0,
        "slot": "5",
        "type": "t_bool"
      },
      {
        "astId": 1185,
        "contract": "contracts/BridgedStakingStrategy.sol:BridgedStakingStrategy",
        "label": "requests",
        "offset": 0,
        "slot": "6",
        "type": "t_mapping(t_address,t_uint256)"
      },
      {
        "astId": 1187,
        "contract": "contracts/BridgedStakingStrategy.sol:BridgedStakingStrategy",
        "label": "totalRequestedVaultSharesForClaim",
        "offset": 0,
        "slot": "7",
        "type": "t_uint256"
      }
    ],
    "types": {
      "t_address": {
        "encoding": "inplace",
        "label": "address",
        "numberOfBytes": "20"
      },
      "t_bool": {
        "encoding": "inplace",
        "label": "bool",
        "numberOfBytes": "1"
      },
      "t_mapping(t_address,t_uint256)": {
        "encoding": "mapping",
        "key": "t_address",
        "label": "mapping(address => uint256)",
        "numberOfBytes": "32",
        "value": "t_uint256"
      },
      "t_uint256": {
        "encoding": "inplace",
        "label": "uint256",
        "numberOfBytes": "32"
      }
    }
  }
}