{
  "address": "0x3C888C84511f4C0a4F3Ea5eD1a16ad7F6514077e",
  "abi": [
    {
      "inputs": [
        {
          "internalType": "address",
          "name": "switcher_",
          "type": "address"
        },
        {
          "internalType": "address",
          "name": "bridge_",
          "type": "address"
        },
        {
          "internalType": "uint32",
          "name": "destinationNetwork_",
          "type": "uint32"
        }
      ],
      "stateMutability": "nonpayable",
      "type": "constructor"
    },
    {
      "inputs": [],
      "name": "Already",
      "type": "error"
    },
    {
      "inputs": [],
      "name": "CantBridge",
      "type": "error"
    },
    {
      "inputs": [],
      "name": "DestinationIsNotSet",
      "type": "error"
    },
    {
      "inputs": [
        {
          "internalType": "address",
          "name": "user",
          "type": "address"
        }
      ],
      "name": "NoClaimRequestForUser",
      "type": "error"
    },
    {
      "inputs": [],
      "name": "NotAllAssetsAreBridged",
      "type": "error"
    },
    {
      "inputs": [],
      "name": "NotEnoughBridgedAssets",
      "type": "error"
    },
    {
      "inputs": [],
      "name": "OnlyGovernanceCanDoThis",
      "type": "error"
    },
    {
      "inputs": [],
      "name": "OnlySwitcherCanDoThis",
      "type": "error"
    },
    {
      "anonymous": false,
      "inputs": [
        {
          "indexed": false,
          "internalType": "uint256",
          "name": "amount",
          "type": "uint256"
        }
      ],
      "name": "BridgeAssetsToL1",
      "type": "event"
    },
    {
      "anonymous": false,
      "inputs": [
        {
          "indexed": false,
          "internalType": "uint256",
          "name": "amount",
          "type": "uint256"
        }
      ],
      "name": "BridgeRequestMessageToL1",
      "type": "event"
    },
    {
      "anonymous": false,
      "inputs": [
        {
          "indexed": false,
          "internalType": "address",
          "name": "contractL1",
          "type": "address"
        }
      ],
      "name": "Destination",
      "type": "event"
    },
    {
      "anonymous": false,
      "inputs": [
        {
          "indexed": true,
          "internalType": "address",
          "name": "owner",
          "type": "address"
        },
        {
          "indexed": false,
          "internalType": "uint256",
          "name": "vaultSharesAmount",
          "type": "uint256"
        }
      ],
      "name": "RequestAssets",
      "type": "event"
    },
    {
      "inputs": [],
      "name": "ENZYME_VAULT_REDEEM_TIMELOCK",
      "outputs": [
        {
          "internalType": "uint256",
          "name": "",
          "type": "uint256"
        }
      ],
      "stateMutability": "view",
      "type": "function"
    },
    {
      "inputs": [],
      "name": "MAX_WAIT_TIME_FOR_BRIDGING",
      "outputs": [
        {
          "internalType": "uint256",
          "name": "",
          "type": "uint256"
        }
      ],
      "stateMutability": "view",
      "type": "function"
    },
    {
      "inputs": [],
      "name": "SHUTTLE_FORCE_BRIDGE",
      "outputs": [
        {
          "internalType": "uint256",
          "name": "",
          "type": "uint256"
        }
      ],
      "stateMutability": "view",
      "type": "function"
    },
    {
      "inputs": [],
      "name": "SHUTTLE_FORCE_CLAIM",
      "outputs": [
        {
          "internalType": "uint256",
          "name": "",
          "type": "uint256"
        }
      ],
      "stateMutability": "view",
      "type": "function"
    },
    {
      "inputs": [],
      "name": "asset",
      "outputs": [
        {
          "internalType": "address",
          "name": "",
          "type": "address"
        }
      ],
      "stateMutability": "view",
      "type": "function"
    },
    {
      "inputs": [],
      "name": "bridge",
      "outputs": [
        {
          "internalType": "address",
          "name": "",
          "type": "address"
        }
      ],
      "stateMutability": "view",
      "type": "function"
    },
    {
      "inputs": [],
      "name": "bridgedAssets",
      "outputs": [
        {
          "internalType": "uint256",
          "name": "",
          "type": "uint256"
        }
      ],
      "stateMutability": "view",
      "type": "function"
    },
    {
      "inputs": [],
      "name": "callBridge",
      "outputs": [],
      "stateMutability": "nonpayable",
      "type": "function"
    },
    {
      "inputs": [
        {
          "internalType": "address[]",
          "name": "sharesHolders",
          "type": "address[]"
        }
      ],
      "name": "claimRequestedAssets",
      "outputs": [],
      "stateMutability": "nonpayable",
      "type": "function"
    },
    {
      "inputs": [],
      "name": "destination",
      "outputs": [
        {
          "internalType": "address",
          "name": "",
          "type": "address"
        }
      ],
      "stateMutability": "view",
      "type": "function"
    },
    {
      "inputs": [],
      "name": "destinationNetwork",
      "outputs": [
        {
          "internalType": "uint32",
          "name": "",
          "type": "uint32"
        }
      ],
      "stateMutability": "view",
      "type": "function"
    },
    {
      "inputs": [],
      "name": "lastBridgeTime",
      "outputs": [
        {
          "internalType": "uint256",
          "name": "",
          "type": "uint256"
        }
      ],
      "stateMutability": "view",
      "type": "function"
    },
    {
      "inputs": [],
      "name": "lastEnzymeDepositTime",
      "outputs": [
        {
          "internalType": "uint256",
          "name": "",
          "type": "uint256"
        }
      ],
      "stateMutability": "view",
      "type": "function"
    },
    {
      "inputs": [],
      "name": "needBridgingNow",
      "outputs": [
        {
          "internalType": "bool",
          "name": "need",
          "type": "bool"
        },
        {
          "internalType": "bool",
          "name": "toL1",
          "type": "bool"
        },
        {
          "internalType": "uint256",
          "name": "amount",
          "type": "uint256"
        }
      ],
      "stateMutability": "view",
      "type": "function"
    },
    {
      "inputs": [],
      "name": "pendingRequestedBridgingAssets",
      "outputs": [
        {
          "internalType": "uint256",
          "name": "",
          "type": "uint256"
        }
      ],
      "stateMutability": "view",
      "type": "function"
    },
    {
      "inputs": [],
      "name": "requestClaimAllAssets",
      "outputs": [],
      "stateMutability": "nonpayable",
      "type": "function"
    },
    {
      "inputs": [
        {
          "internalType": "uint256",
          "name": "vaultSharesAmount",
          "type": "uint256"
        }
      ],
      "name": "requestClaimAssets",
      "outputs": [],
      "stateMutability": "nonpayable",
      "type": "function"
    },
    {
      "inputs": [
        {
          "internalType": "address",
          "name": "user",
          "type": "address"
        }
      ],
      "name": "requests",
      "outputs": [
        {
          "internalType": "uint256",
          "name": "shares",
          "type": "uint256"
        }
      ],
      "stateMutability": "view",
      "type": "function"
    },
    {
      "inputs": [
        {
          "internalType": "address",
          "name": "destination_",
          "type": "address"
        }
      ],
      "name": "setDestination",
      "outputs": [],
      "stateMutability": "nonpayable",
      "type": "function"
    },
    {
      "inputs": [],
      "name": "switcher",
      "outputs": [
        {
          "internalType": "address",
          "name": "",
          "type": "address"
        }
      ],
      "stateMutability": "view",
      "type": "function"
    },
    {
      "inputs": [],
      "name": "totalAssets",
      "outputs": [
        {
          "internalType": "uint256",
          "name": "",
          "type": "uint256"
        }
      ],
      "stateMutability": "view",
      "type": "function"
    },
    {
      "inputs": [],
      "name": "totalRequested",
      "outputs": [
        {
          "internalType": "uint256",
          "name": "",
          "type": "uint256"
        }
      ],
      "stateMutability": "view",
      "type": "function"
    },
    {
      "inputs": [],
      "name": "totalRequestedVaultSharesForClaim",
      "outputs": [
        {
          "internalType": "uint256",
          "name": "",
          "type": "uint256"
        }
      ],
      "stateMutability": "view",
      "type": "function"
    },
    {
      "inputs": [],
      "name": "withdrawAllToSwitcher",
      "outputs": [
        {
          "internalType": "uint256",
          "name": "amount",
          "type": "uint256"
        }
      ],
      "stateMutability": "nonpayable",
      "type": "function"
    },
    {
      "inputs": [
        {
          "internalType": "uint256",
          "name": "amount",
          "type": "uint256"
        }
      ],
      "name": "withdrawToSwitcher",
      "outputs": [],
      "stateMutability": "nonpayable",
      "type": "function"
    },
    {
      "stateMutability": "payable",
      "type": "receive"
    }
  ],
  "transactionHash": "0x4e4f81798b9ac2f44ffea1b1794c61ba4d1ef6451f52d273cb070b0f0370e00f",
  "args": [
    "0xb58De97355fb3cFF58db07b3dd5b7dd3e8898425",
    "0x528e26b25a34a4A5d0dbDa1d57D318153d2ED582",
    0
  ],
  "numDeployments": 1,
  "solcInputHash": "cd9d925b63ac700938c46a08eefd7125",
  "bytecode": "0x60e06040523480156200001157600080fd5b5060405162001a5c38038062001a5c8339810160408190526200003491620000f4565b6001600160a01b0383811660a081905290831660c0526000805463ffffffff191663ffffffff8416179055604080516338d52e0f60e01b815290516338d52e0f916004808201926020929091908290030181865afa1580156200009b573d6000803e3d6000fd5b505050506040513d601f19601f82011682018060405250810190620000c191906200014a565b6001600160a01b0316608052506200016f915050565b80516001600160a01b0381168114620000ef57600080fd5b919050565b6000806000606084860312156200010a57600080fd5b6200011584620000d7565b92506200012560208501620000d7565b9150604084015163ffffffff811681146200013f57600080fd5b809150509250925092565b6000602082840312156200015d57600080fd5b6200016882620000d7565b9392505050565b60805160a05160c05161183f6200021d6000396000818161058e0152818161101c0152818161121401526113230152600081816102060152818161055a01528181610a3401528181610f3a0152818161140a015281816114c1015261154c01526000818161017c015281816103ee015281816105ba015281816107f9015281816109a701528181610a6601528181610cfd01528181610e8e01528181610f69015261117c015261183f6000f3fe60806040526004361061015a5760003560e01c8063507477af116100c1578063936371ba1161007a578063936371ba146104d7578063a78a9b4a146104f7578063adde08001461050c578063b269681d14610521578063bc4462de14610548578063e1471ab914610449578063e78cea921461057c57600080fd5b8063507477af1461044957806357339c2914610460578063614e48f71461047557806374adad1d1461049557806382dce0b4146102fa578063880b678d146104c257600080fd5b80632bcf6ffd116101135780632bcf6ffd1461035857806330b8615c1461038a5780633707546e146103aa57806338d52e0f146103dc5780633ae4075b1461041d57806348865d7e1461043357600080fd5b806301e1d114146102b25780630a0a05e6146102da5780630c8996ce146102fa578063143d72811461031657806318780bcb1461032c57806327eb25101461034257600080fd5b366102ad5760025460055460ff161580156101755750600081115b156102ab577f00000000000000000000000000000000000000000000000000000000000000006001600160a01b031663d0e30db0346040518263ffffffff1660e01b81526004016000604051808303818588803b1580156101d557600080fd5b505af11580156101e9573d6000803e3d6000fd5b5050505050803411158015610291575060006001600160a01b03167f00000000000000000000000000000000000000000000000000000000000000006001600160a01b031663465fc5d26040518163ffffffff1660e01b8152600401602060405180830381865afa158015610262573d6000803e3d6000fd5b505050506040513d601f19601f8201168201806040525081019061028691906115a2565b6001600160a01b0316145b156102a5576102a034826115dc565b600255005b60006002555b005b600080fd5b3480156102be57600080fd5b506102c76105b0565b6040519081526020015b60405180910390f35b3480156102e657600080fd5b506102ab6102f53660046115f5565b61065e565b34801561030657600080fd5b506102c7678ac7230489e8000081565b34801561032257600080fd5b506102c760015481565b34801561033857600080fd5b506102c760045481565b34801561034e57600080fd5b506102c760025481565b34801561036457600080fd5b506000546103759063ffffffff1681565b60405163ffffffff90911681526020016102d1565b34801561039657600080fd5b506102ab6103a5366004611612565b6106f7565b3480156103b657600080fd5b506103bf6107ee565b6040805193151584529115156020840152908201526060016102d1565b3480156103e857600080fd5b506104107f000000000000000000000000000000000000000000000000000000000000000081565b6040516102d1919061162b565b34801561042957600080fd5b506102c760035481565b34801561043f57600080fd5b506102c760075481565b34801561045557600080fd5b506102c76201518081565b34801561046c57600080fd5b506102c7610955565b34801561048157600080fd5b506102ab61049036600461163f565b610ad9565b3480156104a157600080fd5b506102c76104b03660046115f5565b60066020526000908152604090205481565b3480156104ce57600080fd5b506102c7610df1565b3480156104e357600080fd5b506102ab6104f2366004611612565b610e6b565b34801561050357600080fd5b506102ab610fdb565b34801561051857600080fd5b506102ab6110ea565b34801561052d57600080fd5b5060005461041090600160201b90046001600160a01b031681565b34801561055457600080fd5b506104107f000000000000000000000000000000000000000000000000000000000000000081565b34801561058857600080fd5b506104107f000000000000000000000000000000000000000000000000000000000000000081565b60006002546001547f00000000000000000000000000000000000000000000000000000000000000006001600160a01b03166370a08231306040518263ffffffff1660e01b8152600401610604919061162b565b602060405180830381865afa158015610621573d6000803e3d6000fd5b505050506040513d601f19601f8201168201806040525081019061064591906116b4565b61064f91906116cd565b61065991906116cd565b905090565b610666611408565b600054600160201b90046001600160a01b03161561069757604051633008ba1360e11b815260040160405180910390fd5b60008054640100000000600160c01b031916600160201b6001600160a01b038416021790556040517f1ee14f322e4fd8a87a4be8216285bc5d4701b95e7dfa4ab84bac65c4b9cc5ba5906106ec90839061162b565b60405180910390a150565b6106ff6114bd565b6040516323b872dd60e01b8152336004820152306024820152604481018390526001600160a01b0391909116906323b872dd906064016020604051808303816000875af1158015610754573d6000803e3d6000fd5b505050506040513d601f19601f8201168201806040525081019061077891906116e0565b5033600090815260066020526040812080548392906107989084906116cd565b9250508190555080600760008282546107b191906116cd565b909155505060405181815233907f6c704fb9d54f64b01bae7a4940ee85bb1a8cceabd6405c270fd9b19d49a310609060200160405180910390a250565b6000806000806002547f00000000000000000000000000000000000000000000000000000000000000006001600160a01b03166370a08231306040518263ffffffff1660e01b8152600401610843919061162b565b602060405180830381865afa158015610860573d6000803e3d6000fd5b505050506040513d601f19601f8201168201806040525081019061088491906116b4565b61088e91906116cd565b9050600061089a610df1565b9050808211156108ea576108ae81836115dc565b925060019350678ac7230489e80000831015806108db575062015180600354426108d891906115dc565b10155b156108e557600194505b61094e565b6108f482826115dc565b92506000831180156109165750620151806004544261091391906115dc565b10155b80156109445750678ac7230489e80000831015806109445750620151806003544261094191906115dc565b10155b1561094e57600194505b5050909192565b600061095f611541565b6000600154118061097257506000600254115b1561099057604051638e0d838f60e01b815260040160405180910390fd5b6040516370a0823160e01b81526001600160a01b037f000000000000000000000000000000000000000000000000000000000000000016906370a08231906109dc90309060040161162b565b602060405180830381865afa1580156109f9573d6000803e3d6000fd5b505050506040513d601f19601f82011682018060405250810190610a1d91906116b4565b60405163a9059cbb60e01b81526001600160a01b037f000000000000000000000000000000000000000000000000000000000000000081166004830152602482018390529192507f00000000000000000000000000000000000000000000000000000000000000009091169063a9059cbb906044016020604051808303816000875af1158015610ab1573d6000803e3d6000fd5b505050506040513d601f19601f82011682018060405250810190610ad591906116e0565b5090565b806000610ae46114bd565b905060008267ffffffffffffffff811115610b0157610b01611702565b604051908082528060200260200182016040528015610b2a578160200160208202803683370190505b5090506000805b84811015610c7657600060066000898985818110610b5157610b51611718565b9050602002016020810190610b6691906115f5565b6001600160a01b03166001600160a01b0316815260200190815260200160002054905080600003610bdb57878783818110610ba357610ba3611718565b9050602002016020810190610bb891906115f5565b60405163683a2f7760e01b8152600401610bd2919061162b565b60405180910390fd5b60405163266d6a8360e11b8152600481018290526001600160a01b03861690634cdad50690602401602060405180830381865afa158015610c20573d6000803e3d6000fd5b505050506040513d601f19601f82011682018060405250810190610c4491906116b4565b848381518110610c5657610c56611718565b6020908102919091010152610c6b81846116cd565b925050600101610b31565b50604051635d043b2960e11b815260048101829052306024820181905260448201526001600160a01b0384169063ba087652906064016020604051808303816000875af1158015610ccb573d6000803e3d6000fd5b505050506040513d601f19601f82011682018060405250810190610cef91906116b4565b5060005b84811015610de8577f00000000000000000000000000000000000000000000000000000000000000006001600160a01b031663a9059cbb888884818110610d3c57610d3c611718565b9050602002016020810190610d5191906115f5565b858481518110610d6357610d63611718565b60200260200101516040518363ffffffff1660e01b8152600401610d9c9291906001600160a01b03929092168252602082015260400190565b6020604051808303816000875af1158015610dbb573d6000803e3d6000fd5b505050506040513d601f19601f82011682018060405250810190610ddf91906116e0565b50600101610cf3565b50505050505050565b6000610dfb6114bd565b6001600160a01b03166307a2d13a6007546040518263ffffffff1660e01b8152600401610e2a91815260200190565b602060405180830381865afa158015610e47573d6000803e3d6000fd5b505050506040513d601f19601f8201168201806040525081019061065991906116b4565b610e73611541565b6040516370a0823160e01b8152819081906001600160a01b037f000000000000000000000000000000000000000000000000000000000000000016906370a0823190610ec390309060040161162b565b602060405180830381865afa158015610ee0573d6000803e3d6000fd5b505050506040513d601f19601f82011682018060405250810190610f0491906116b4565b1015610f2357604051634fa2deef60e01b815260040160405180910390fd5b60405163a9059cbb60e01b81526001600160a01b037f000000000000000000000000000000000000000000000000000000000000000081166004830152602482018390527f0000000000000000000000000000000000000000000000000000000000000000169063a9059cbb906044016020604051808303816000875af1158015610fb2573d6000803e3d6000fd5b505050506040513d601f19601f82011682018060405250810190610fd691906116e0565b505050565b610fe3611541565b6000546040805160001960208083018290528351808403909101815282840193849052630481fe6f60e31b909352926001600160a01b037f000000000000000000000000000000000000000000000000000000000000000081169363240ff378936110659363ffffffff811693600160201b9091041691600191604401611774565b600060405180830381600087803b15801561107f57600080fd5b505af1158015611093573d6000803e3d6000fd5b5050426003555050600154600280546000906110b09084906116cd565b909155505060006001556040518181527fa83462975c7595803f3c969e5f13a6c17afee5363e4e8473b25e70e3fea57b33906020016106ec565b600054600160201b90046001600160a01b031661111a576040516343971d5760e01b815260040160405180910390fd5b60008060006111276107ee565b9250925092508261114b576040516305c1739360e31b815260040160405180910390fd5b81156112ee576005805460ff19166001179055604051632e1a7d4d60e01b8152600481018290526001600160a01b037f00000000000000000000000000000000000000000000000000000000000000001690632e1a7d4d90602401600060405180830381600087803b1580156111c057600080fd5b505af11580156111d4573d6000803e3d6000fd5b50506005805460ff191690555050600080546040805180820182526001808252600360fc1b6020830152915163cd58657960e01b81526001600160a01b037f000000000000000000000000000000000000000000000000000000000000000081169563cd5865799588956112619563ffffffff831695600160201b909304909416938793926004016117b6565b6000604051808303818588803b15801561127a57600080fd5b505af115801561128e573d6000803e3d6000fd5b50504260038190556004555050600180548392506000906112b09084906116cd565b90915550506040518181527f019c36e19393857475613d5ff0cb896db2eac1812679d659490ca7471d3d3eee906020015b60405180910390a1505050565b6000546040805160208082018590528251808303909101815281830192839052630481fe6f60e31b9092526001600160a01b037f000000000000000000000000000000000000000000000000000000000000000081169363240ff3789361136f9363ffffffff831693600160201b9093049092169160019190604401611774565b600060405180830381600087803b15801561138957600080fd5b505af115801561139d573d6000803e3d6000fd5b505050504260038190555080600160008282546113ba91906115dc565b9250508190555080600260008282546113d391906116cd565b90915550506040518181527fa83462975c7595803f3c969e5f13a6c17afee5363e4e8473b25e70e3fea57b33906020016112e1565b7f00000000000000000000000000000000000000000000000000000000000000006001600160a01b0316635aa6e6756040518163ffffffff1660e01b8152600401602060405180830381865afa158015611466573d6000803e3d6000fd5b505050506040513d601f19601f8201168201806040525081019061148a91906115a2565b6001600160a01b0316336001600160a01b0316146114bb576040516343c0578f60e11b815260040160405180910390fd5b565b60007f00000000000000000000000000000000000000000000000000000000000000006001600160a01b031663fbfa77cf6040518163ffffffff1660e01b8152600401602060405180830381865afa15801561151d573d6000803e3d6000fd5b505050506040513d601f19601f8201168201806040525081019061065991906115a2565b336001600160a01b037f000000000000000000000000000000000000000000000000000000000000000016146114bb57604051632ec57f6d60e11b815260040160405180910390fd5b6001600160a01b038116811461159f57600080fd5b50565b6000602082840312156115b457600080fd5b81516115bf8161158a565b9392505050565b634e487b7160e01b600052601160045260246000fd5b818103818111156115ef576115ef6115c6565b92915050565b60006020828403121561160757600080fd5b81356115bf8161158a565b60006020828403121561162457600080fd5b5035919050565b6001600160a01b0391909116815260200190565b6000806020838503121561165257600080fd5b823567ffffffffffffffff8082111561166a57600080fd5b818501915085601f83011261167e57600080fd5b81358181111561168d57600080fd5b8660208260051b85010111156116a257600080fd5b60209290920196919550909350505050565b6000602082840312156116c657600080fd5b5051919050565b808201808211156115ef576115ef6115c6565b6000602082840312156116f257600080fd5b815180151581146115bf57600080fd5b634e487b7160e01b600052604160045260246000fd5b634e487b7160e01b600052603260045260246000fd5b6000815180845260005b8181101561175457602081850181015186830182015201611738565b506000602082860101526020601f19601f83011685010191505092915050565b63ffffffff851681526001600160a01b038416602082015282151560408201526080606082018190526000906117ac9083018461172e565b9695505050505050565b63ffffffff871681526001600160a01b0386811660208301526040820186905284166060820152821515608082015260c060a082018190526000906117fd9083018461172e565b9897505050505050505056fea2646970667358221220d44a02351c798da8042f5ba57e055a4cc092dd9240537b94379cab04c9d269a664736f6c63430008180033",
  "devdoc": {
    "author": "a17",
    "kind": "dev",
    "methods": {
      "needBridgingNow()": {
        "returns": {
          "amount": "Amount of asset for bridging or request withdraw",
          "need": "Is need to call bridge now",
          "toL1": "Need bridge assets to L1"
        }
      },
      "withdrawAllToSwitcher()": {
        "details": "Will only be executed if all assets have already been transferred to the current network"
      }
    },
    "stateVariables": {
      "bridge": {
        "details": "LxLy bridge endpoint"
      }
    },
    "title": "ETH bridged staking",
    "version": 1
  },
  "userdoc": {
    "kind": "user",
    "methods": {
      "asset()": {
        "notice": "Underlying asset"
      },
      "bridgedAssets()": {
        "notice": "Amount of assets under strategy management on another network"
      },
      "callBridge()": {
        "notice": "Bridge assets for staking on another network or request withdraw from it"
      },
      "claimRequestedAssets(address[])": {
        "notice": "Claim requested and bridged from another network assets"
      },
      "destination()": {
        "notice": "Strategy contract on another network"
      },
      "needBridgingNow()": {
        "notice": "Is ready to call bridge"
      },
      "pendingRequestedBridgingAssets()": {
        "notice": "Assets in process of bridging"
      },
      "requestClaimAllAssets()": {
        "notice": "Send message to another network for claiming all invested assets Only Switcher can call it."
      },
      "requestClaimAssets(uint256)": {
        "notice": "Transfer vault shares from user and put claim request to shuttle Only vault shares owner can call it."
      },
      "switcher()": {
        "notice": "Linked switcher that manage strategy of the vault"
      },
      "totalAssets()": {
        "notice": "Total amount of assets under strategy management"
      },
      "totalRequested()": {
        "notice": "Total requested assets for withdraw from another network"
      },
      "withdrawAllToSwitcher()": {
        "notice": "Withdraws all assets under strategy management to the Switcher"
      },
      "withdrawToSwitcher(uint256)": {
        "notice": "Withdraws assets to the Switcher"
      }
    },
    "notice": "Bridging assets and messages between zkEVM and Ethereum via LxLy bridge",
    "version": 1
  },
  "storageLayout": {
    "storage": [
      {
        "astId": 4967,
        "contract": "contracts/BridgedStakingStrategy.sol:BridgedStakingStrategy",
        "label": "destinationNetwork",
        "offset": 0,
        "slot": "0",
        "type": "t_uint32"
      },
      {
        "astId": 4970,
        "contract": "contracts/BridgedStakingStrategy.sol:BridgedStakingStrategy",
        "label": "destination",
        "offset": 4,
        "slot": "0",
        "type": "t_address"
      },
      {
        "astId": 4976,
        "contract": "contracts/BridgedStakingStrategy.sol:BridgedStakingStrategy",
        "label": "bridgedAssets",
        "offset": 0,
        "slot": "1",
        "type": "t_uint256"
      },
      {
        "astId": 4979,
        "contract": "contracts/BridgedStakingStrategy.sol:BridgedStakingStrategy",
        "label": "pendingRequestedBridgingAssets",
        "offset": 0,
        "slot": "2",
        "type": "t_uint256"
      },
      {
        "astId": 4981,
        "contract": "contracts/BridgedStakingStrategy.sol:BridgedStakingStrategy",
        "label": "lastBridgeTime",
        "offset": 0,
        "slot": "3",
        "type": "t_uint256"
      },
      {
        "astId": 4983,
        "contract": "contracts/BridgedStakingStrategy.sol:BridgedStakingStrategy",
        "label": "lastEnzymeDepositTime",
        "offset": 0,
        "slot": "4",
        "type": "t_uint256"
      },
      {
        "astId": 4985,
        "contract": "contracts/BridgedStakingStrategy.sol:BridgedStakingStrategy",
        "label": "_isWethWithdrawing",
        "offset": 0,
        "slot": "5",
        "type": "t_bool"
      },
      {
        "astId": 4989,
        "contract": "contracts/BridgedStakingStrategy.sol:BridgedStakingStrategy",
        "label": "requests",
        "offset": 0,
        "slot": "6",
        "type": "t_mapping(t_address,t_uint256)"
      },
      {
        "astId": 4991,
        "contract": "contracts/BridgedStakingStrategy.sol:BridgedStakingStrategy",
        "label": "totalRequestedVaultSharesForClaim",
        "offset": 0,
        "slot": "7",
        "type": "t_uint256"
      }
    ],
    "types": {
      "t_address": {
        "encoding": "inplace",
        "label": "address",
        "numberOfBytes": "20"
      },
      "t_bool": {
        "encoding": "inplace",
        "label": "bool",
        "numberOfBytes": "1"
      },
      "t_mapping(t_address,t_uint256)": {
        "encoding": "mapping",
        "key": "t_address",
        "label": "mapping(address => uint256)",
        "numberOfBytes": "32",
        "value": "t_uint256"
      },
      "t_uint256": {
        "encoding": "inplace",
        "label": "uint256",
        "numberOfBytes": "32"
      },
      "t_uint32": {
        "encoding": "inplace",
        "label": "uint32",
        "numberOfBytes": "4"
      }
    }
  }
}