{
  "address": "0x25Ce4dec89652E17a0e5acF447A64dcB781E0FD8",
  "abi": [
    {
      "inputs": [
        {
          "internalType": "address",
          "name": "defaultRewardToken_",
          "type": "address"
        },
        {
          "internalType": "uint256",
          "name": "duration_",
          "type": "uint256"
        },
        {
          "internalType": "address",
          "name": "governance_",
          "type": "address"
        }
      ],
      "stateMutability": "nonpayable",
      "type": "constructor"
    },
    {
      "inputs": [],
      "name": "Already",
      "type": "error"
    },
    {
      "inputs": [],
      "name": "AlreadyRegistered",
      "type": "error"
    },
    {
      "inputs": [],
      "name": "AmountShouldBeHigherThanRemainingRewards",
      "type": "error"
    },
    {
      "inputs": [],
      "name": "NotAllowed",
      "type": "error"
    },
    {
      "inputs": [],
      "name": "NotRewardToken",
      "type": "error"
    },
    {
      "inputs": [],
      "name": "ReentrancyGuardReentrantCall",
      "type": "error"
    },
    {
      "inputs": [],
      "name": "RewardsNotEnded",
      "type": "error"
    },
    {
      "inputs": [],
      "name": "WrongStakingToken",
      "type": "error"
    },
    {
      "inputs": [],
      "name": "ZeroAmount",
      "type": "error"
    },
    {
      "anonymous": false,
      "inputs": [
        {
          "indexed": true,
          "internalType": "address",
          "name": "account",
          "type": "address"
        },
        {
          "indexed": false,
          "internalType": "uint256",
          "name": "amount",
          "type": "uint256"
        }
      ],
      "name": "BalanceDecreased",
      "type": "event"
    },
    {
      "anonymous": false,
      "inputs": [
        {
          "indexed": true,
          "internalType": "address",
          "name": "account",
          "type": "address"
        },
        {
          "indexed": false,
          "internalType": "uint256",
          "name": "amount",
          "type": "uint256"
        }
      ],
      "name": "BalanceIncreased",
      "type": "event"
    },
    {
      "anonymous": false,
      "inputs": [
        {
          "indexed": true,
          "internalType": "address",
          "name": "account",
          "type": "address"
        },
        {
          "indexed": true,
          "internalType": "address",
          "name": "reward",
          "type": "address"
        },
        {
          "indexed": false,
          "internalType": "uint256",
          "name": "amount",
          "type": "uint256"
        },
        {
          "indexed": false,
          "internalType": "address",
          "name": "recepient",
          "type": "address"
        }
      ],
      "name": "ClaimRewards",
      "type": "event"
    },
    {
      "anonymous": false,
      "inputs": [
        {
          "indexed": true,
          "internalType": "address",
          "name": "account",
          "type": "address"
        },
        {
          "indexed": false,
          "internalType": "uint256",
          "name": "amount",
          "type": "uint256"
        }
      ],
      "name": "Deposit",
      "type": "event"
    },
    {
      "anonymous": false,
      "inputs": [
        {
          "indexed": true,
          "internalType": "address",
          "name": "from",
          "type": "address"
        },
        {
          "indexed": true,
          "internalType": "address",
          "name": "reward",
          "type": "address"
        },
        {
          "indexed": false,
          "internalType": "uint256",
          "name": "amount",
          "type": "uint256"
        }
      ],
      "name": "NotifyReward",
      "type": "event"
    },
    {
      "anonymous": false,
      "inputs": [
        {
          "indexed": false,
          "internalType": "address",
          "name": "token",
          "type": "address"
        }
      ],
      "name": "StakingToken",
      "type": "event"
    },
    {
      "anonymous": false,
      "inputs": [
        {
          "indexed": true,
          "internalType": "address",
          "name": "account",
          "type": "address"
        },
        {
          "indexed": false,
          "internalType": "uint256",
          "name": "amount",
          "type": "uint256"
        },
        {
          "indexed": false,
          "internalType": "bool",
          "name": "full",
          "type": "bool"
        },
        {
          "indexed": false,
          "internalType": "uint256",
          "name": "veId",
          "type": "uint256"
        }
      ],
      "name": "Withdraw",
      "type": "event"
    },
    {
      "inputs": [
        {
          "internalType": "address",
          "name": "",
          "type": "address"
        }
      ],
      "name": "balanceOf",
      "outputs": [
        {
          "internalType": "uint256",
          "name": "",
          "type": "uint256"
        }
      ],
      "stateMutability": "view",
      "type": "function"
    },
    {
      "inputs": [],
      "name": "defaultRewardToken",
      "outputs": [
        {
          "internalType": "address",
          "name": "",
          "type": "address"
        }
      ],
      "stateMutability": "view",
      "type": "function"
    },
    {
      "inputs": [
        {
          "internalType": "address",
          "name": "account",
          "type": "address"
        }
      ],
      "name": "derivedBalance",
      "outputs": [
        {
          "internalType": "uint256",
          "name": "",
          "type": "uint256"
        }
      ],
      "stateMutability": "view",
      "type": "function"
    },
    {
      "inputs": [
        {
          "internalType": "address",
          "name": "",
          "type": "address"
        }
      ],
      "name": "derivedBalances",
      "outputs": [
        {
          "internalType": "uint256",
          "name": "",
          "type": "uint256"
        }
      ],
      "stateMutability": "view",
      "type": "function"
    },
    {
      "inputs": [],
      "name": "derivedSupply",
      "outputs": [
        {
          "internalType": "uint256",
          "name": "",
          "type": "uint256"
        }
      ],
      "stateMutability": "view",
      "type": "function"
    },
    {
      "inputs": [],
      "name": "duration",
      "outputs": [
        {
          "internalType": "uint256",
          "name": "",
          "type": "uint256"
        }
      ],
      "stateMutability": "view",
      "type": "function"
    },
    {
      "inputs": [
        {
          "internalType": "address",
          "name": "rewardToken",
          "type": "address"
        },
        {
          "internalType": "address",
          "name": "account",
          "type": "address"
        }
      ],
      "name": "earned",
      "outputs": [
        {
          "internalType": "uint256",
          "name": "",
          "type": "uint256"
        }
      ],
      "stateMutability": "view",
      "type": "function"
    },
    {
      "inputs": [
        {
          "internalType": "address",
          "name": "account",
          "type": "address"
        }
      ],
      "name": "getAllRewards",
      "outputs": [],
      "stateMutability": "nonpayable",
      "type": "function"
    },
    {
      "inputs": [
        {
          "internalType": "address",
          "name": "account",
          "type": "address"
        },
        {
          "internalType": "address[]",
          "name": "tokens",
          "type": "address[]"
        }
      ],
      "name": "getReward",
      "outputs": [],
      "stateMutability": "nonpayable",
      "type": "function"
    },
    {
      "inputs": [],
      "name": "governance",
      "outputs": [
        {
          "internalType": "address",
          "name": "",
          "type": "address"
        }
      ],
      "stateMutability": "view",
      "type": "function"
    },
    {
      "inputs": [
        {
          "internalType": "address",
          "name": "account",
          "type": "address"
        }
      ],
      "name": "handleBalanceChange",
      "outputs": [],
      "stateMutability": "nonpayable",
      "type": "function"
    },
    {
      "inputs": [
        {
          "internalType": "address",
          "name": "",
          "type": "address"
        }
      ],
      "name": "isRewardToken",
      "outputs": [
        {
          "internalType": "bool",
          "name": "",
          "type": "bool"
        }
      ],
      "stateMutability": "view",
      "type": "function"
    },
    {
      "inputs": [
        {
          "internalType": "address",
          "name": "rewardToken",
          "type": "address"
        }
      ],
      "name": "lastTimeRewardApplicable",
      "outputs": [
        {
          "internalType": "uint256",
          "name": "",
          "type": "uint256"
        }
      ],
      "stateMutability": "view",
      "type": "function"
    },
    {
      "inputs": [
        {
          "internalType": "address",
          "name": "",
          "type": "address"
        }
      ],
      "name": "lastUpdateTime",
      "outputs": [
        {
          "internalType": "uint256",
          "name": "",
          "type": "uint256"
        }
      ],
      "stateMutability": "view",
      "type": "function"
    },
    {
      "inputs": [
        {
          "internalType": "address",
          "name": "rewardToken",
          "type": "address"
        }
      ],
      "name": "left",
      "outputs": [
        {
          "internalType": "uint256",
          "name": "",
          "type": "uint256"
        }
      ],
      "stateMutability": "view",
      "type": "function"
    },
    {
      "inputs": [
        {
          "internalType": "address",
          "name": "token",
          "type": "address"
        },
        {
          "internalType": "uint256",
          "name": "amount",
          "type": "uint256"
        }
      ],
      "name": "notifyRewardAmount",
      "outputs": [],
      "stateMutability": "nonpayable",
      "type": "function"
    },
    {
      "inputs": [
        {
          "internalType": "address",
          "name": "",
          "type": "address"
        }
      ],
      "name": "periodFinish",
      "outputs": [
        {
          "internalType": "uint256",
          "name": "",
          "type": "uint256"
        }
      ],
      "stateMutability": "view",
      "type": "function"
    },
    {
      "inputs": [
        {
          "internalType": "address",
          "name": "rewardToken",
          "type": "address"
        }
      ],
      "name": "registerRewardToken",
      "outputs": [],
      "stateMutability": "nonpayable",
      "type": "function"
    },
    {
      "inputs": [
        {
          "internalType": "address",
          "name": "rewardToken",
          "type": "address"
        }
      ],
      "name": "removeRewardToken",
      "outputs": [],
      "stateMutability": "nonpayable",
      "type": "function"
    },
    {
      "inputs": [
        {
          "internalType": "address",
          "name": "rewardToken",
          "type": "address"
        }
      ],
      "name": "rewardPerToken",
      "outputs": [
        {
          "internalType": "uint256",
          "name": "",
          "type": "uint256"
        }
      ],
      "stateMutability": "view",
      "type": "function"
    },
    {
      "inputs": [
        {
          "internalType": "address",
          "name": "",
          "type": "address"
        }
      ],
      "name": "rewardPerTokenStored",
      "outputs": [
        {
          "internalType": "uint256",
          "name": "",
          "type": "uint256"
        }
      ],
      "stateMutability": "view",
      "type": "function"
    },
    {
      "inputs": [
        {
          "internalType": "address",
          "name": "",
          "type": "address"
        }
      ],
      "name": "rewardRate",
      "outputs": [
        {
          "internalType": "uint256",
          "name": "",
          "type": "uint256"
        }
      ],
      "stateMutability": "view",
      "type": "function"
    },
    {
      "inputs": [
        {
          "internalType": "uint256",
          "name": "",
          "type": "uint256"
        }
      ],
      "name": "rewardTokens",
      "outputs": [
        {
          "internalType": "address",
          "name": "",
          "type": "address"
        }
      ],
      "stateMutability": "view",
      "type": "function"
    },
    {
      "inputs": [],
      "name": "rewardTokensLength",
      "outputs": [
        {
          "internalType": "uint256",
          "name": "",
          "type": "uint256"
        }
      ],
      "stateMutability": "view",
      "type": "function"
    },
    {
      "inputs": [
        {
          "internalType": "address",
          "name": "",
          "type": "address"
        },
        {
          "internalType": "address",
          "name": "",
          "type": "address"
        }
      ],
      "name": "rewards",
      "outputs": [
        {
          "internalType": "uint256",
          "name": "",
          "type": "uint256"
        }
      ],
      "stateMutability": "view",
      "type": "function"
    },
    {
      "inputs": [
        {
          "internalType": "address",
          "name": "",
          "type": "address"
        }
      ],
      "name": "rewardsRedirect",
      "outputs": [
        {
          "internalType": "address",
          "name": "",
          "type": "address"
        }
      ],
      "stateMutability": "view",
      "type": "function"
    },
    {
      "inputs": [
        {
          "internalType": "address",
          "name": "account",
          "type": "address"
        },
        {
          "internalType": "address",
          "name": "recipient",
          "type": "address"
        }
      ],
      "name": "setRewardsRedirect",
      "outputs": [],
      "stateMutability": "nonpayable",
      "type": "function"
    },
    {
      "inputs": [
        {
          "internalType": "address",
          "name": "stakingToken_",
          "type": "address"
        }
      ],
      "name": "setStakingToken",
      "outputs": [],
      "stateMutability": "nonpayable",
      "type": "function"
    },
    {
      "inputs": [],
      "name": "stakingToken",
      "outputs": [
        {
          "internalType": "address",
          "name": "",
          "type": "address"
        }
      ],
      "stateMutability": "view",
      "type": "function"
    },
    {
      "inputs": [],
      "name": "totalSupply",
      "outputs": [
        {
          "internalType": "uint256",
          "name": "",
          "type": "uint256"
        }
      ],
      "stateMutability": "view",
      "type": "function"
    },
    {
      "inputs": [
        {
          "internalType": "address",
          "name": "",
          "type": "address"
        },
        {
          "internalType": "address",
          "name": "",
          "type": "address"
        }
      ],
      "name": "userRewardPerTokenPaid",
      "outputs": [
        {
          "internalType": "uint256",
          "name": "",
          "type": "uint256"
        }
      ],
      "stateMutability": "view",
      "type": "function"
    }
  ],
  "transactionHash": "0x300d22894bbf65761237a953ea35aae86a86d1cb94405090c70542263d4abc28",
  "args": [
    "0xee7751bF946Da4cbb39A76fd8dD99a8872871a7F",
    "604800",
    "0x3d0c177E035C30bb8681e5859EB98d114b48b935"
  ],
  "numDeployments": 1,
  "solcInputHash": "147b29522f55f56acb3827bf30a7ce8a",
  "bytecode": "0x60806040523480156200001157600080fd5b50604051620019863803806200198683398101604081905262000034916200008e565b60016000819055600380546001600160a01b039586166001600160a01b0319918216179091556002939093558054919093169116179055620000cf565b80516001600160a01b03811681146200008957600080fd5b919050565b600080600060608486031215620000a457600080fd5b620000af8462000071565b925060208401519150620000c66040850162000071565b90509250925092565b6118a780620000df6000396000f3fe608060405234801561001057600080fd5b50600436106101d55760003560e01c806372f702f31161010f578063d35e2544116100a2578063e70b9e2711610071578063e70b9e2714610491578063f1229777146104bc578063f2c2c2c9146104cf578063ff3a4ac0146104e257600080fd5b8063d35e25441461042c578063d7da4bb014610455578063da09d19d1461045e578063e46dbc981461047e57600080fd5b8063ab674e0c116100de578063ab674e0c146103b5578063b5fd73f8146103de578063b66503cf14610411578063bf199e621461042457600080fd5b806372f702f31461035c5780637bb7bed11461036f57806399bcc052146103825780639ce43f901461039557600080fd5b80633609582a11610187578063638634ee11610156578063638634ee146102de57806363fb415b146102f15780637035ab981461031157806370a082311461033c57600080fd5b80633609582a1461027a578063362a3fad1461028d5780633d509c97146102a05780635aa6e675146102b357600080fd5b80630fb5a6b4146101da57806318160ddd146101f65780631e9b12ef146101ff578063211dc32d14610214578063221ca18c146102275780632ce9aead1461024757806331279d3d14610267575b600080fd5b6101e360025481565b6040519081526020015b60405180910390f35b6101e360075481565b61021261020d366004611616565b6104f5565b005b6101e3610222366004611631565b610573565b6101e3610235366004611616565b60086020526000908152604090205481565b6101e3610255366004611616565b600a6020526000908152604090205481565b61021261027536600461167a565b610610565b610212610288366004611631565b61061e565b61021261029b366004611616565b61068e565b6102126102ae366004611616565b61069a565b6001546102c6906001600160a01b031681565b6040516001600160a01b0390911681526020016101ed565b6101e36102ec366004611616565b610834565b6101e36102ff366004611616565b60056020526000908152604090205481565b6101e361031f366004611631565b600c60209081526000928352604080842090915290825290205481565b6101e361034a366004611616565b60066020526000908152604090205481565b6011546102c6906001600160a01b031681565b6102c661037d366004611752565b610863565b6101e3610390366004611616565b61088d565b6101e36103a3366004611616565b600b6020526000908152604090205481565b6102c66103c3366004611616565b6010602052600090815260409020546001600160a01b031681565b6104016103ec366004611616565b600f6020526000908152604090205460ff1681565b60405190151581526020016101ed565b61021261041f36600461176b565b610907565b600e546101e3565b6101e361043a366004611616565b6001600160a01b031660009081526006602052604090205490565b6101e360045481565b6101e361046c366004611616565b60096020526000908152604090205481565b61021261048c366004611616565b610925565b6101e361049f366004611631565b600d60209081526000928352604080842090915290825290205481565b6101e36104ca366004611616565b6109cd565b6102126104dd366004611616565b610a69565b6003546102c6906001600160a01b031681565b6011546001600160a01b03161561051f57604051633008ba1360e11b815260040160405180910390fd5b601180546001600160a01b0319166001600160a01b0383169081179091556040519081527f5f5e0071dcc5d8cc90b2c64a928a612c95681d34f6b87b46d6e775d1f074e7e59060200160405180910390a150565b6001600160a01b038083166000818152600d6020908152604080832094861680845294825280832054938352600c825280832094835293905291822054676765c793fa10079d601b1b906105c6866109cd565b6105d091906117ab565b6001600160a01b0385166000908152600660205260409020546105f391906117be565b6105fd91906117d5565b61060791906117f7565b90505b92915050565b61061a8282610b5b565b5050565b336001600160a01b0383161480159061064257506001546001600160a01b03163314155b1561066057604051631eb49d6d60e11b815260040160405180910390fd5b6001600160a01b03918216600090815260106020526040902080546001600160a01b03191691909216179055565b61069781610b66565b50565b6106a2610c76565b6001600160a01b03811660009081526009602052604090205442116106da576040516328bf1aa960e11b815260040160405180910390fd5b6001600160a01b0381166000908152600f602052604090205460ff166107135760405163804543b560e01b815260040160405180910390fd5b6001600160a01b0381166000908152600f60205260408120805460ff19169055600e54905b81811015610785576000600e82815481106107555761075561180a565b6000918252602090912001546001600160a01b0390811691508416810361077c5750610785565b50600101610738565b600e6107926001846117ab565b815481106107a2576107a261180a565b600091825260209091200154600e80546001600160a01b0390921691839081106107ce576107ce61180a565b9060005260206000200160006101000a8154816001600160a01b0302191690836001600160a01b03160217905550600e80548061080d5761080d611820565b600082815260209020810160001990810180546001600160a01b0319169055019055505050565b6001600160a01b03811660009081526009602052604081205442811161085a578061085c565b425b9392505050565b600e818154811061087357600080fd5b6000918252602090912001546001600160a01b0316905081565b6001600160a01b0381166000908152600960205260408120544281116108b65750600092915050565b60006108c242836117ab565b6001600160a01b038516600090815260086020526040902054909150676765c793fa10079d601b1b906108f590836117be565b6108ff91906117d5565b949350505050565b61090f610ca3565b61091b82826001610ccd565b61061a6001600055565b61092d610c76565b6001600160a01b0381166000908152600f602052604090205460ff161561096757604051630ea075bf60e21b815260040160405180910390fd5b6001600160a01b03166000818152600f60205260408120805460ff19166001908117909155600e805491820181559091527fbb7b4a454dc3493923482f07822329ed19e8244eff582cc204f8554c3620c3fd0180546001600160a01b0319169091179055565b6004546000908082036109f75750506001600160a01b03166000908152600b602052604090205490565b6001600160a01b038316600090815260086020908152604080832054600a90925290912054829190610a2886610834565b610a3291906117ab565b610a3c91906117be565b610a4691906117d5565b6001600160a01b0384166000908152600b602052604090205461085c91906117f7565b60115433906001600160a01b03168114610a96576040516353c454cd60e01b815260040160405180910390fd5b6001600160a01b038281166000818152600660205260408082205490516370a0823160e01b81526004810193909352929091908416906370a0823190602401602060405180830381865afa158015610af2573d6000803e3d6000fd5b505050506040513d601f19601f82011682018060405250810190610b169190611836565b905080821015610b3857610b3384610b2e84846117ab565b611061565b610b55565b80821115610b5557610b5584610b4e83856117ab565b83156110b2565b50505050565b61061a82828461110e565b600e80546000610b778260016117f7565b67ffffffffffffffff811115610b8f57610b8f611664565b604051908082528060200260200182016040528015610bb8578160200160208202803683370190505b50905060005b82811015610c2857838181548110610bd857610bd861180a565b9060005260206000200160009054906101000a90046001600160a01b0316828281518110610c0857610c0861180a565b6001600160a01b0390921660209283029190910190910152600101610bbe565b5060035481516001600160a01b0390911690829084908110610c4c57610c4c61180a565b60200260200101906001600160a01b031690816001600160a01b031681525050610b558482610b5b565b6001546001600160a01b03163314610ca157604051631eb49d6d60e11b815260040160405180910390fd5b565b600260005403610cc657604051633ee5aeb560e01b815260040160405180910390fd5b6002600055565b81600003610cee57604051631f2a200560e01b815260040160405180910390fd5b6003546001600160a01b03848116911614801590610d2557506001600160a01b0383166000908152600f602052604090205460ff16155b15610d435760405163804543b560e01b815260040160405180910390fd5b610d4e8360006112c8565b6002548115610eb5576040516370a0823160e01b81523060048201526000906001600160a01b038616906370a0823190602401602060405180830381865afa158015610d9e573d6000803e3d6000fd5b505050506040513d601f19601f82011682018060405250810190610dc29190611836565b6040516323b872dd60e01b8152336004820152306024820152604481018690529091506001600160a01b038616906323b872dd906064016020604051808303816000875af1158015610e18573d6000803e3d6000fd5b505050506040513d601f19601f82011682018060405250810190610e3c919061184f565b506040516370a0823160e01b815230600482015281906001600160a01b038716906370a0823190602401602060405180830381865afa158015610e83573d6000803e3d6000fd5b505050506040513d601f19601f82011682018060405250810190610ea79190611836565b610eb191906117ab565b9350505b6001600160a01b0384166000908152600960205260409020544210610f125780610eea676765c793fa10079d601b1b856117be565b610ef491906117d5565b6001600160a01b038516600090815260086020526040902055610fda565b6001600160a01b038416600090815260096020526040812054610f369042906117ab565b6001600160a01b03861660009081526008602052604081205491925090610f5d90836117be565b9050610f74676765c793fa10079d601b1b826117d5565b8511610f93576040516334706a8160e11b815260040160405180910390fd5b8281610faa676765c793fa10079d601b1b886117be565b610fb491906117f7565b610fbe91906117d5565b6001600160a01b03871660009081526008602052604090205550505b6001600160a01b0384166000908152600a6020526040902042908190556110029082906117f7565b6001600160a01b0385166000818152600960205260409081902092909255905133907ff70d5c697de7ea828df48e5c4573cb2194c659f1901f70110c52b066dcf50826906110539087815260200190565b60405180910390a350505050565b61106b828261136a565b816001600160a01b03167fe1fffcc4923d04b559f4d29a8bfc6cda04eb5b0d3c460751c2402c5c5cc9109c826040516110a691815260200190565b60405180910390a25050565b6110bc83836113ea565b60408051838152821515602082015260008183015290516001600160a01b038516917fc169c019d290f78961d50d9dc7ebcad51a682fa7fd1fc536dfb21046bdb1f7d2919081900360600190a2505050565b611116610ca3565b6001600160a01b0380821660009081526010602052604090205416801561113b578091505b6001600160a01b038216331461116457604051631eb49d6d60e11b815260040160405180910390fd5b61116d84611437565b825160005b818110156112b657600085828151811061118e5761118e61180a565b602002602001015190506111a281886112c8565b6001600160a01b038082166000908152600d60209081526040808320938b16835292905220548015611262576001600160a01b038281166000818152600d602090815260408083208d86168452909152808220919091555163a9059cbb60e01b81529188166004830152602482018390529063a9059cbb906044016020604051808303816000875af115801561123c573d6000803e3d6000fd5b505050506040513d601f19601f82011682018060405250810190611260919061184f565b505b604080518281526001600160a01b03888116602083015280851692908b16917fe4394b3c25e336e9d6b7fcefab7e3234f1c6b373f13655dc3920664b080b098d910160405180910390a35050600101611172565b5050506112c36001600055565b505050565b60006112d3836109cd565b6001600160a01b0384166000908152600b6020526040902081905590506112f983610834565b6001600160a01b038085166000908152600a60205260409020919091558216156112c3576113278383610573565b6001600160a01b039384166000818152600d602090815260408083209690971680835295815286822093909355908152600c825284812093815292905291902055565b611372610ca3565b8060000361139357604051631f2a200560e01b815260040160405180910390fd5b61139d82826114ab565b816001600160a01b03167f7a702e80a9c183a6ce9d6732991df2e914555ba35a364a70aed2433984e7544b826040516113d891815260200190565b60405180910390a261061a6001600055565b6113f2610ca3565b6113fc8282611502565b816001600160a01b03167f9c6be7c4260e52ea2e41d7f17932147ab78756f1bb2247a2554796d969741aff826040516113d891815260200190565b6001600160a01b03811660009081526005602052604081205460048054919283926114639084906117ab565b9091555050506001600160a01b0381166000908152600660209081526040808320546005909252822081905560048054919283926114a29084906117f7565b90915550505050565b6114b48261154a565b80600760008282546114c691906117f7565b90915550506001600160a01b038216600090815260066020526040812080548392906114f39084906117f7565b9091555061061a905082611437565b61150b8261154a565b806007600082825461151d91906117ab565b90915550506001600160a01b038216600090815260066020526040812080548392906114f39084906117ab565b6000600e8054806020026020016040519081016040528092919081815260200182805480156115a257602002820191906000526020600020905b81546001600160a01b03168152600190910190602001808311611584575b505083519394506000925050505b818110156115e3576115db8382815181106115cd576115cd61180a565b6020026020010151856112c8565b6001016115b0565b506003546112c3906001600160a01b0316846112c8565b80356001600160a01b038116811461161157600080fd5b919050565b60006020828403121561162857600080fd5b610607826115fa565b6000806040838503121561164457600080fd5b61164d836115fa565b915061165b602084016115fa565b90509250929050565b634e487b7160e01b600052604160045260246000fd5b6000806040838503121561168d57600080fd5b611696836115fa565b915060208084013567ffffffffffffffff808211156116b457600080fd5b818601915086601f8301126116c857600080fd5b8135818111156116da576116da611664565b8060051b604051601f19603f830116810181811085821117156116ff576116ff611664565b60405291825284820192508381018501918983111561171d57600080fd5b938501935b8285101561174257611733856115fa565b84529385019392850192611722565b8096505050505050509250929050565b60006020828403121561176457600080fd5b5035919050565b6000806040838503121561177e57600080fd5b611787836115fa565b946020939093013593505050565b634e487b7160e01b600052601160045260246000fd5b8181038181111561060a5761060a611795565b808202811582820484141761060a5761060a611795565b6000826117f257634e487b7160e01b600052601260045260246000fd5b500490565b8082018082111561060a5761060a611795565b634e487b7160e01b600052603260045260246000fd5b634e487b7160e01b600052603160045260246000fd5b60006020828403121561184857600080fd5b5051919050565b60006020828403121561186157600080fd5b8151801515811461085c57600080fdfea2646970667358221220c585083f4bf57db3436d43d44dcb8fe50a8c19e6fb360cbf8ff41c7f2dcce9e764736f6c63430008180033",
  "devdoc": {
    "author": "belbixa17",
    "errors": {
      "ReentrancyGuardReentrantCall()": [
        {
          "details": "Unauthorized reentrant call."
        }
      ]
    },
    "kind": "dev",
    "methods": {
      "derivedBalance(address)": {
        "details": "Balance of holder adjusted with specific rules for boost calculation.      Supposed to be implemented in a parent contract      Adjust user balance with some logic, like boost logic."
      },
      "earned(address,address)": {
        "details": "Approximate of earned rewards ready to claim"
      },
      "handleBalanceChange(address)": {
        "details": "Must be called from stakingToken when user balance changed."
      },
      "lastTimeRewardApplicable(address)": {
        "details": "Returns the last time the reward was modified or periodFinish if the reward has ended"
      },
      "left(address)": {
        "details": "Amount of reward tokens left for the current period"
      },
      "notifyRewardAmount(address,uint256)": {
        "details": "Anybody is able to call this function"
      },
      "registerRewardToken(address)": {
        "details": "Whitelist reward token for staking token. Only operator can do it."
      },
      "removeRewardToken(address)": {
        "details": "Remove from whitelist reward token for staking token. Only operator can do it.      We assume that the first token can not be removed."
      },
      "rewardPerToken(address)": {
        "details": "Reward paid for token for the current period."
      },
      "rewardTokensLength()": {
        "details": "Length of rewards tokens array for given token"
      },
      "setRewardsRedirect(address,address)": {
        "details": "Account or governance can setup a redirect of all rewards.      It needs for 3rd party contracts integrations."
      }
    },
    "title": "Stakeless pool for vaults",
    "version": 1
  },
  "userdoc": {
    "kind": "user",
    "methods": {
      "rewardsRedirect(address)": {
        "notice": "account => recipient. The recipient will receive all rewards for this account."
      }
    },
    "version": 1
  },
  "storageLayout": {
    "storage": [
      {
        "astId": 667,
        "contract": "contracts/Gauge.sol:Gauge",
        "label": "_status",
        "offset": 0,
        "slot": "0",
        "type": "t_uint256"
      },
      {
        "astId": 1184,
        "contract": "contracts/Gauge.sol:Gauge",
        "label": "governance",
        "offset": 0,
        "slot": "1",
        "type": "t_address"
      },
      {
        "astId": 1187,
        "contract": "contracts/Gauge.sol:Gauge",
        "label": "duration",
        "offset": 0,
        "slot": "2",
        "type": "t_uint256"
      },
      {
        "astId": 1190,
        "contract": "contracts/Gauge.sol:Gauge",
        "label": "defaultRewardToken",
        "offset": 0,
        "slot": "3",
        "type": "t_address"
      },
      {
        "astId": 1193,
        "contract": "contracts/Gauge.sol:Gauge",
        "label": "derivedSupply",
        "offset": 0,
        "slot": "4",
        "type": "t_uint256"
      },
      {
        "astId": 1198,
        "contract": "contracts/Gauge.sol:Gauge",
        "label": "derivedBalances",
        "offset": 0,
        "slot": "5",
        "type": "t_mapping(t_address,t_uint256)"
      },
      {
        "astId": 1203,
        "contract": "contracts/Gauge.sol:Gauge",
        "label": "balanceOf",
        "offset": 0,
        "slot": "6",
        "type": "t_mapping(t_address,t_uint256)"
      },
      {
        "astId": 1206,
        "contract": "contracts/Gauge.sol:Gauge",
        "label": "totalSupply",
        "offset": 0,
        "slot": "7",
        "type": "t_uint256"
      },
      {
        "astId": 1211,
        "contract": "contracts/Gauge.sol:Gauge",
        "label": "rewardRate",
        "offset": 0,
        "slot": "8",
        "type": "t_mapping(t_address,t_uint256)"
      },
      {
        "astId": 1216,
        "contract": "contracts/Gauge.sol:Gauge",
        "label": "periodFinish",
        "offset": 0,
        "slot": "9",
        "type": "t_mapping(t_address,t_uint256)"
      },
      {
        "astId": 1221,
        "contract": "contracts/Gauge.sol:Gauge",
        "label": "lastUpdateTime",
        "offset": 0,
        "slot": "10",
        "type": "t_mapping(t_address,t_uint256)"
      },
      {
        "astId": 1226,
        "contract": "contracts/Gauge.sol:Gauge",
        "label": "rewardPerTokenStored",
        "offset": 0,
        "slot": "11",
        "type": "t_mapping(t_address,t_uint256)"
      },
      {
        "astId": 1233,
        "contract": "contracts/Gauge.sol:Gauge",
        "label": "userRewardPerTokenPaid",
        "offset": 0,
        "slot": "12",
        "type": "t_mapping(t_address,t_mapping(t_address,t_uint256))"
      },
      {
        "astId": 1240,
        "contract": "contracts/Gauge.sol:Gauge",
        "label": "rewards",
        "offset": 0,
        "slot": "13",
        "type": "t_mapping(t_address,t_mapping(t_address,t_uint256))"
      },
      {
        "astId": 1244,
        "contract": "contracts/Gauge.sol:Gauge",
        "label": "rewardTokens",
        "offset": 0,
        "slot": "14",
        "type": "t_array(t_address)dyn_storage"
      },
      {
        "astId": 1249,
        "contract": "contracts/Gauge.sol:Gauge",
        "label": "isRewardToken",
        "offset": 0,
        "slot": "15",
        "type": "t_mapping(t_address,t_bool)"
      },
      {
        "astId": 1254,
        "contract": "contracts/Gauge.sol:Gauge",
        "label": "rewardsRedirect",
        "offset": 0,
        "slot": "16",
        "type": "t_mapping(t_address,t_address)"
      },
      {
        "astId": 734,
        "contract": "contracts/Gauge.sol:Gauge",
        "label": "stakingToken",
        "offset": 0,
        "slot": "17",
        "type": "t_address"
      }
    ],
    "types": {
      "t_address": {
        "encoding": "inplace",
        "label": "address",
        "numberOfBytes": "20"
      },
      "t_array(t_address)dyn_storage": {
        "base": "t_address",
        "encoding": "dynamic_array",
        "label": "address[]",
        "numberOfBytes": "32"
      },
      "t_bool": {
        "encoding": "inplace",
        "label": "bool",
        "numberOfBytes": "1"
      },
      "t_mapping(t_address,t_address)": {
        "encoding": "mapping",
        "key": "t_address",
        "label": "mapping(address => address)",
        "numberOfBytes": "32",
        "value": "t_address"
      },
      "t_mapping(t_address,t_bool)": {
        "encoding": "mapping",
        "key": "t_address",
        "label": "mapping(address => bool)",
        "numberOfBytes": "32",
        "value": "t_bool"
      },
      "t_mapping(t_address,t_mapping(t_address,t_uint256))": {
        "encoding": "mapping",
        "key": "t_address",
        "label": "mapping(address => mapping(address => uint256))",
        "numberOfBytes": "32",
        "value": "t_mapping(t_address,t_uint256)"
      },
      "t_mapping(t_address,t_uint256)": {
        "encoding": "mapping",
        "key": "t_address",
        "label": "mapping(address => uint256)",
        "numberOfBytes": "32",
        "value": "t_uint256"
      },
      "t_uint256": {
        "encoding": "inplace",
        "label": "uint256",
        "numberOfBytes": "32"
      }
    }
  }
}