{
  "address": "0xE0D142466d1BF88FE23D5D265d76068077E4D6F0",
  "abi": [
    {
      "inputs": [
        {
          "internalType": "address",
          "name": "defaultRewardToken_",
          "type": "address"
        },
        {
          "internalType": "uint256",
          "name": "duration_",
          "type": "uint256"
        },
        {
          "internalType": "address",
          "name": "governance_",
          "type": "address"
        }
      ],
      "stateMutability": "nonpayable",
      "type": "constructor"
    },
    {
      "inputs": [
        {
          "internalType": "address",
          "name": "target",
          "type": "address"
        }
      ],
      "name": "AddressEmptyCode",
      "type": "error"
    },
    {
      "inputs": [
        {
          "internalType": "address",
          "name": "account",
          "type": "address"
        }
      ],
      "name": "AddressInsufficientBalance",
      "type": "error"
    },
    {
      "inputs": [],
      "name": "FailedInnerCall",
      "type": "error"
    },
    {
      "inputs": [],
      "name": "ReentrancyGuardReentrantCall",
      "type": "error"
    },
    {
      "inputs": [
        {
          "internalType": "address",
          "name": "token",
          "type": "address"
        }
      ],
      "name": "SafeERC20FailedOperation",
      "type": "error"
    },
    {
      "anonymous": false,
      "inputs": [
        {
          "indexed": true,
          "internalType": "address",
          "name": "account",
          "type": "address"
        },
        {
          "indexed": false,
          "internalType": "uint256",
          "name": "amount",
          "type": "uint256"
        }
      ],
      "name": "BalanceDecreased",
      "type": "event"
    },
    {
      "anonymous": false,
      "inputs": [
        {
          "indexed": true,
          "internalType": "address",
          "name": "account",
          "type": "address"
        },
        {
          "indexed": false,
          "internalType": "uint256",
          "name": "amount",
          "type": "uint256"
        }
      ],
      "name": "BalanceIncreased",
      "type": "event"
    },
    {
      "anonymous": false,
      "inputs": [
        {
          "indexed": true,
          "internalType": "address",
          "name": "account",
          "type": "address"
        },
        {
          "indexed": true,
          "internalType": "address",
          "name": "reward",
          "type": "address"
        },
        {
          "indexed": false,
          "internalType": "uint256",
          "name": "amount",
          "type": "uint256"
        },
        {
          "indexed": false,
          "internalType": "address",
          "name": "recepient",
          "type": "address"
        }
      ],
      "name": "ClaimRewards",
      "type": "event"
    },
    {
      "anonymous": false,
      "inputs": [
        {
          "indexed": true,
          "internalType": "address",
          "name": "account",
          "type": "address"
        },
        {
          "indexed": false,
          "internalType": "uint256",
          "name": "amount",
          "type": "uint256"
        }
      ],
      "name": "Deposit",
      "type": "event"
    },
    {
      "anonymous": false,
      "inputs": [
        {
          "indexed": true,
          "internalType": "address",
          "name": "from",
          "type": "address"
        },
        {
          "indexed": true,
          "internalType": "address",
          "name": "reward",
          "type": "address"
        },
        {
          "indexed": false,
          "internalType": "uint256",
          "name": "amount",
          "type": "uint256"
        }
      ],
      "name": "NotifyReward",
      "type": "event"
    },
    {
      "anonymous": false,
      "inputs": [
        {
          "indexed": false,
          "internalType": "address",
          "name": "token",
          "type": "address"
        }
      ],
      "name": "StakingToken",
      "type": "event"
    },
    {
      "anonymous": false,
      "inputs": [
        {
          "indexed": true,
          "internalType": "address",
          "name": "account",
          "type": "address"
        },
        {
          "indexed": false,
          "internalType": "uint256",
          "name": "amount",
          "type": "uint256"
        },
        {
          "indexed": false,
          "internalType": "bool",
          "name": "full",
          "type": "bool"
        },
        {
          "indexed": false,
          "internalType": "uint256",
          "name": "veId",
          "type": "uint256"
        }
      ],
      "name": "Withdraw",
      "type": "event"
    },
    {
      "inputs": [
        {
          "internalType": "address",
          "name": "",
          "type": "address"
        }
      ],
      "name": "balanceOf",
      "outputs": [
        {
          "internalType": "uint256",
          "name": "",
          "type": "uint256"
        }
      ],
      "stateMutability": "view",
      "type": "function"
    },
    {
      "inputs": [],
      "name": "defaultRewardToken",
      "outputs": [
        {
          "internalType": "address",
          "name": "",
          "type": "address"
        }
      ],
      "stateMutability": "view",
      "type": "function"
    },
    {
      "inputs": [
        {
          "internalType": "address",
          "name": "account",
          "type": "address"
        }
      ],
      "name": "derivedBalance",
      "outputs": [
        {
          "internalType": "uint256",
          "name": "",
          "type": "uint256"
        }
      ],
      "stateMutability": "view",
      "type": "function"
    },
    {
      "inputs": [
        {
          "internalType": "address",
          "name": "",
          "type": "address"
        }
      ],
      "name": "derivedBalances",
      "outputs": [
        {
          "internalType": "uint256",
          "name": "",
          "type": "uint256"
        }
      ],
      "stateMutability": "view",
      "type": "function"
    },
    {
      "inputs": [],
      "name": "derivedSupply",
      "outputs": [
        {
          "internalType": "uint256",
          "name": "",
          "type": "uint256"
        }
      ],
      "stateMutability": "view",
      "type": "function"
    },
    {
      "inputs": [],
      "name": "duration",
      "outputs": [
        {
          "internalType": "uint256",
          "name": "",
          "type": "uint256"
        }
      ],
      "stateMutability": "view",
      "type": "function"
    },
    {
      "inputs": [
        {
          "internalType": "address",
          "name": "rewardToken",
          "type": "address"
        },
        {
          "internalType": "address",
          "name": "account",
          "type": "address"
        }
      ],
      "name": "earned",
      "outputs": [
        {
          "internalType": "uint256",
          "name": "",
          "type": "uint256"
        }
      ],
      "stateMutability": "view",
      "type": "function"
    },
    {
      "inputs": [
        {
          "internalType": "address",
          "name": "account",
          "type": "address"
        }
      ],
      "name": "getAllRewards",
      "outputs": [],
      "stateMutability": "nonpayable",
      "type": "function"
    },
    {
      "inputs": [
        {
          "internalType": "address",
          "name": "account",
          "type": "address"
        },
        {
          "internalType": "address[]",
          "name": "tokens",
          "type": "address[]"
        }
      ],
      "name": "getReward",
      "outputs": [],
      "stateMutability": "nonpayable",
      "type": "function"
    },
    {
      "inputs": [],
      "name": "governance",
      "outputs": [
        {
          "internalType": "address",
          "name": "",
          "type": "address"
        }
      ],
      "stateMutability": "view",
      "type": "function"
    },
    {
      "inputs": [
        {
          "internalType": "address",
          "name": "account",
          "type": "address"
        }
      ],
      "name": "handleBalanceChange",
      "outputs": [],
      "stateMutability": "nonpayable",
      "type": "function"
    },
    {
      "inputs": [
        {
          "internalType": "address",
          "name": "",
          "type": "address"
        }
      ],
      "name": "isRewardToken",
      "outputs": [
        {
          "internalType": "bool",
          "name": "",
          "type": "bool"
        }
      ],
      "stateMutability": "view",
      "type": "function"
    },
    {
      "inputs": [
        {
          "internalType": "address",
          "name": "rewardToken",
          "type": "address"
        }
      ],
      "name": "lastTimeRewardApplicable",
      "outputs": [
        {
          "internalType": "uint256",
          "name": "",
          "type": "uint256"
        }
      ],
      "stateMutability": "view",
      "type": "function"
    },
    {
      "inputs": [
        {
          "internalType": "address",
          "name": "",
          "type": "address"
        }
      ],
      "name": "lastUpdateTime",
      "outputs": [
        {
          "internalType": "uint256",
          "name": "",
          "type": "uint256"
        }
      ],
      "stateMutability": "view",
      "type": "function"
    },
    {
      "inputs": [
        {
          "internalType": "address",
          "name": "rewardToken",
          "type": "address"
        }
      ],
      "name": "left",
      "outputs": [
        {
          "internalType": "uint256",
          "name": "",
          "type": "uint256"
        }
      ],
      "stateMutability": "view",
      "type": "function"
    },
    {
      "inputs": [
        {
          "internalType": "address",
          "name": "token",
          "type": "address"
        },
        {
          "internalType": "uint256",
          "name": "amount",
          "type": "uint256"
        }
      ],
      "name": "notifyRewardAmount",
      "outputs": [],
      "stateMutability": "nonpayable",
      "type": "function"
    },
    {
      "inputs": [
        {
          "internalType": "address",
          "name": "",
          "type": "address"
        }
      ],
      "name": "periodFinish",
      "outputs": [
        {
          "internalType": "uint256",
          "name": "",
          "type": "uint256"
        }
      ],
      "stateMutability": "view",
      "type": "function"
    },
    {
      "inputs": [
        {
          "internalType": "address",
          "name": "rewardToken",
          "type": "address"
        }
      ],
      "name": "registerRewardToken",
      "outputs": [],
      "stateMutability": "nonpayable",
      "type": "function"
    },
    {
      "inputs": [
        {
          "internalType": "address",
          "name": "rewardToken",
          "type": "address"
        }
      ],
      "name": "removeRewardToken",
      "outputs": [],
      "stateMutability": "nonpayable",
      "type": "function"
    },
    {
      "inputs": [
        {
          "internalType": "address",
          "name": "rewardToken",
          "type": "address"
        }
      ],
      "name": "rewardPerToken",
      "outputs": [
        {
          "internalType": "uint256",
          "name": "",
          "type": "uint256"
        }
      ],
      "stateMutability": "view",
      "type": "function"
    },
    {
      "inputs": [
        {
          "internalType": "address",
          "name": "",
          "type": "address"
        }
      ],
      "name": "rewardPerTokenStored",
      "outputs": [
        {
          "internalType": "uint256",
          "name": "",
          "type": "uint256"
        }
      ],
      "stateMutability": "view",
      "type": "function"
    },
    {
      "inputs": [
        {
          "internalType": "address",
          "name": "",
          "type": "address"
        }
      ],
      "name": "rewardRate",
      "outputs": [
        {
          "internalType": "uint256",
          "name": "",
          "type": "uint256"
        }
      ],
      "stateMutability": "view",
      "type": "function"
    },
    {
      "inputs": [
        {
          "internalType": "uint256",
          "name": "",
          "type": "uint256"
        }
      ],
      "name": "rewardTokens",
      "outputs": [
        {
          "internalType": "address",
          "name": "",
          "type": "address"
        }
      ],
      "stateMutability": "view",
      "type": "function"
    },
    {
      "inputs": [],
      "name": "rewardTokensLength",
      "outputs": [
        {
          "internalType": "uint256",
          "name": "",
          "type": "uint256"
        }
      ],
      "stateMutability": "view",
      "type": "function"
    },
    {
      "inputs": [
        {
          "internalType": "address",
          "name": "",
          "type": "address"
        },
        {
          "internalType": "address",
          "name": "",
          "type": "address"
        }
      ],
      "name": "rewards",
      "outputs": [
        {
          "internalType": "uint256",
          "name": "",
          "type": "uint256"
        }
      ],
      "stateMutability": "view",
      "type": "function"
    },
    {
      "inputs": [
        {
          "internalType": "address",
          "name": "",
          "type": "address"
        }
      ],
      "name": "rewardsRedirect",
      "outputs": [
        {
          "internalType": "address",
          "name": "",
          "type": "address"
        }
      ],
      "stateMutability": "view",
      "type": "function"
    },
    {
      "inputs": [
        {
          "internalType": "address",
          "name": "account",
          "type": "address"
        },
        {
          "internalType": "address",
          "name": "recipient",
          "type": "address"
        }
      ],
      "name": "setRewardsRedirect",
      "outputs": [],
      "stateMutability": "nonpayable",
      "type": "function"
    },
    {
      "inputs": [
        {
          "internalType": "address",
          "name": "stakingToken_",
          "type": "address"
        }
      ],
      "name": "setStakingToken",
      "outputs": [],
      "stateMutability": "nonpayable",
      "type": "function"
    },
    {
      "inputs": [],
      "name": "stakingToken",
      "outputs": [
        {
          "internalType": "address",
          "name": "",
          "type": "address"
        }
      ],
      "stateMutability": "view",
      "type": "function"
    },
    {
      "inputs": [],
      "name": "totalSupply",
      "outputs": [
        {
          "internalType": "uint256",
          "name": "",
          "type": "uint256"
        }
      ],
      "stateMutability": "view",
      "type": "function"
    },
    {
      "inputs": [
        {
          "internalType": "address",
          "name": "",
          "type": "address"
        },
        {
          "internalType": "address",
          "name": "",
          "type": "address"
        }
      ],
      "name": "userRewardPerTokenPaid",
      "outputs": [
        {
          "internalType": "uint256",
          "name": "",
          "type": "uint256"
        }
      ],
      "stateMutability": "view",
      "type": "function"
    }
  ],
  "transactionHash": "0x079af24e53405672ef7e9ede92da0f9df6fe8a4ff05fdc408def022d5a5f11a8",
  "args": [
    "0xE3f1d1B8ea9721FF0399cF6c2990A4bE5e4fc023",
    "604800",
    "0x3d0c177E035C30bb8681e5859EB98d114b48b935"
  ],
  "numDeployments": 1,
  "solcInputHash": "cd9d925b63ac700938c46a08eefd7125",
  "bytecode": "0x60806040523480156200001157600080fd5b5060405162001c8b38038062001c8b83398101604081905262000034916200008e565b60016000819055600380546001600160a01b039586166001600160a01b0319918216179091556002939093558054919093169116179055620000cf565b80516001600160a01b03811681146200008957600080fd5b919050565b600080600060608486031215620000a457600080fd5b620000af8462000071565b925060208401519150620000c66040850162000071565b90509250925092565b611bac80620000df6000396000f3fe608060405234801561001057600080fd5b50600436106101d55760003560e01c806372f702f31161010f578063d35e2544116100a2578063e70b9e2711610071578063e70b9e2714610486578063f1229777146104b1578063f2c2c2c9146104c4578063ff3a4ac0146104d757600080fd5b8063d35e254414610421578063d7da4bb01461044a578063da09d19d14610453578063e46dbc981461047357600080fd5b8063ab674e0c116100de578063ab674e0c146103aa578063b5fd73f8146103d3578063b66503cf14610406578063bf199e621461041957600080fd5b806372f702f3146103515780637bb7bed11461036457806399bcc052146103775780639ce43f901461038a57600080fd5b80633609582a11610187578063638634ee11610156578063638634ee146102d357806363fb415b146102e65780637035ab981461030657806370a082311461033157600080fd5b80633609582a1461027a578063362a3fad1461028d5780633d509c97146102a05780635aa6e675146102b357600080fd5b80630fb5a6b4146101da57806318160ddd146101f65780631e9b12ef146101ff578063211dc32d14610214578063221ca18c146102275780632ce9aead1461024757806331279d3d14610267575b600080fd5b6101e360025481565b6040519081526020015b60405180910390f35b6101e360075481565b61021261020d3660046118b3565b6104ea565b005b6101e36102223660046118ce565b610588565b6101e36102353660046118b3565b60086020526000908152604090205481565b6101e36102553660046118b3565b600a6020526000908152604090205481565b610212610275366004611917565b610625565b6102126102883660046118ce565b610633565b61021261029b3660046118b3565b61069e565b6102126102ae3660046118b3565b6106aa565b6001546102c6906001600160a01b031681565b6040516101ed91906119ef565b6101e36102e13660046118b3565b610889565b6101e36102f43660046118b3565b60056020526000908152604090205481565b6101e36103143660046118ce565b600c60209081526000928352604080842090915290825290205481565b6101e361033f3660046118b3565b60066020526000908152604090205481565b6011546102c6906001600160a01b031681565b6102c6610372366004611a03565b6108b8565b6101e36103853660046118b3565b6108e2565b6101e36103983660046118b3565b600b6020526000908152604090205481565b6102c66103b83660046118b3565b6010602052600090815260409020546001600160a01b031681565b6103f66103e13660046118b3565b600f6020526000908152604090205460ff1681565b60405190151581526020016101ed565b610212610414366004611a1c565b61095c565b600e546101e3565b6101e361042f3660046118b3565b6001600160a01b031660009081526006602052604090205490565b6101e360045481565b6101e36104613660046118b3565b60096020526000908152604090205481565b6102126104813660046118b3565b61097a565b6101e36104943660046118ce565b600d60209081526000928352604080842090915290825290205481565b6101e36104bf3660046118b3565b610a46565b6102126104d23660046118b3565b610ae2565b6003546102c6906001600160a01b031681565b6011546001600160a01b0316156105325760405162461bcd60e51b8152602060048201526007602482015266416c726561647960c81b60448201526064015b60405180910390fd5b601180546001600160a01b0319166001600160a01b0383161790556040517f5f5e0071dcc5d8cc90b2c64a928a612c95681d34f6b87b46d6e775d1f074e7e59061057d9083906119ef565b60405180910390a150565b6001600160a01b038083166000818152600d6020908152604080832094861680845294825280832054938352600c825280832094835293905291822054676765c793fa10079d601b1b906105db86610a46565b6105e59190611a5c565b6001600160a01b0385166000908152600660205260409020546106089190611a6f565b6106129190611a86565b61061c9190611aa8565b90505b92915050565b61062f8282610bfa565b5050565b336001600160a01b038316148061065457506001546001600160a01b031633145b6106705760405162461bcd60e51b815260040161052990611abb565b6001600160a01b03918216600090815260106020526040902080546001600160a01b03191691909216179055565b6106a781610c05565b50565b6106b2610d15565b6001600160a01b038116600090815260096020526040902054421161070d5760405162461bcd60e51b815260206004820152601160248201527014995dd85c991cc81b9bdd08195b991959607a1b6044820152606401610529565b6001600160a01b0381166000908152600f602052604090205460ff166107685760405162461bcd60e51b815260206004820152601060248201526f2737ba103932bbb0b932103a37b5b2b760811b6044820152606401610529565b6001600160a01b0381166000908152600f60205260408120805460ff19169055600e54905b818110156107da576000600e82815481106107aa576107aa611ae0565b6000918252602090912001546001600160a01b039081169150841681036107d157506107da565b5060010161078d565b600e6107e7600184611a5c565b815481106107f7576107f7611ae0565b600091825260209091200154600e80546001600160a01b03909216918390811061082357610823611ae0565b9060005260206000200160006101000a8154816001600160a01b0302191690836001600160a01b03160217905550600e80548061086257610862611af6565b600082815260209020810160001990810180546001600160a01b0319169055019055505050565b6001600160a01b0381166000908152600960205260408120544281116108af57806108b1565b425b9392505050565b600e81815481106108c857600080fd5b6000918252602090912001546001600160a01b0316905081565b6001600160a01b03811660009081526009602052604081205442811161090b5750600092915050565b60006109174283611a5c565b6001600160a01b038516600090815260086020526040902054909150676765c793fa10079d601b1b9061094a9083611a6f565b6109549190611a86565b949350505050565b610964610d41565b61097082826001610d6b565b61062f6001600055565b610982610d15565b6001600160a01b0381166000908152600f602052604090205460ff16156109e05760405162461bcd60e51b8152602060048201526012602482015271105b1c9958591e481c9959da5cdd195c995960721b6044820152606401610529565b6001600160a01b03166000818152600f60205260408120805460ff19166001908117909155600e805491820181559091527fbb7b4a454dc3493923482f07822329ed19e8244eff582cc204f8554c3620c3fd0180546001600160a01b0319169091179055565b600454600090808203610a705750506001600160a01b03166000908152600b602052604090205490565b6001600160a01b038316600090815260086020908152604080832054600a90925290912054829190610aa186610889565b610aab9190611a5c565b610ab59190611a6f565b610abf9190611a86565b6001600160a01b0384166000908152600b60205260409020546108b19190611aa8565b60115433906001600160a01b03168114610b345760405162461bcd60e51b81526020600482015260136024820152722bb937b7339039ba30b5b4b733903a37b5b2b760691b6044820152606401610529565b6001600160a01b038083166000908152600660205260408082205490516370a0823160e01b815290928416906370a0823190610b749087906004016119ef565b602060405180830381865afa158015610b91573d6000803e3d6000fd5b505050506040513d601f19601f82011682018060405250810190610bb59190611b0c565b905080821015610bd757610bd284610bcd8484611a5c565b611127565b610bf4565b80821115610bf457610bf484610bed8385611a5c565b8315611178565b50505050565b61062f8282846111d4565b600e80546000610c16826001611aa8565b67ffffffffffffffff811115610c2e57610c2e611901565b604051908082528060200260200182016040528015610c57578160200160208202803683370190505b50905060005b82811015610cc757838181548110610c7757610c77611ae0565b9060005260206000200160009054906101000a90046001600160a01b0316828281518110610ca757610ca7611ae0565b6001600160a01b0390921660209283029190910190910152600101610c5d565b5060035481516001600160a01b0390911690829084908110610ceb57610ceb611ae0565b60200260200101906001600160a01b031690816001600160a01b031681525050610bf48482610bfa565b6001546001600160a01b03163314610d3f5760405162461bcd60e51b815260040161052990611abb565b565b600260005403610d6457604051633ee5aeb560e01b815260040160405180910390fd5b6002600055565b60008211610da95760405162461bcd60e51b815260206004820152600b60248201526a16995c9bc8185b5bdd5b9d60aa1b6044820152606401610529565b6003546001600160a01b0384811691161480610ddd57506001600160a01b0383166000908152600f602052604090205460ff165b610e1d5760405162461bcd60e51b8152602060048201526011602482015270151bdad95b881b9bdd08185b1b1bddd959607a1b6044820152606401610529565b610e2883600061132f565b6002548115610f35576040516370a0823160e01b81526000906001600160a01b038616906370a0823190610e609030906004016119ef565b602060405180830381865afa158015610e7d573d6000803e3d6000fd5b505050506040513d601f19601f82011682018060405250810190610ea19190611b0c565b9050610eb86001600160a01b0386163330876113d1565b6040516370a0823160e01b815281906001600160a01b038716906370a0823190610ee69030906004016119ef565b602060405180830381865afa158015610f03573d6000803e3d6000fd5b505050506040513d601f19601f82011682018060405250810190610f279190611b0c565b610f319190611a5c565b9350505b6001600160a01b0384166000908152600960205260409020544210610f925780610f6a676765c793fa10079d601b1b85611a6f565b610f749190611a86565b6001600160a01b0385166000908152600860205260409020556110a0565b6001600160a01b038416600090815260096020526040812054610fb6904290611a5c565b6001600160a01b03861660009081526008602052604081205491925090610fdd9083611a6f565b9050610ff4676765c793fa10079d601b1b82611a86565b85116110595760405162461bcd60e51b815260206004820152602e60248201527f416d6f756e742073686f756c6420626520686967686572207468616e2072656d60448201526d61696e696e67207265776172647360901b6064820152608401610529565b8281611070676765c793fa10079d601b1b88611a6f565b61107a9190611aa8565b6110849190611a86565b6001600160a01b03871660009081526008602052604090205550505b6001600160a01b0384166000908152600a6020526040902042908190556110c8908290611aa8565b6001600160a01b0385166000818152600960205260409081902092909255905133907ff70d5c697de7ea828df48e5c4573cb2194c659f1901f70110c52b066dcf50826906111199087815260200190565b60405180910390a350505050565b6111318282611438565b816001600160a01b03167fe1fffcc4923d04b559f4d29a8bfc6cda04eb5b0d3c460751c2402c5c5cc9109c8260405161116c91815260200190565b60405180910390a25050565b61118283836114d5565b60408051838152821515602082015260008183015290516001600160a01b038516917fc169c019d290f78961d50d9dc7ebcad51a682fa7fd1fc536dfb21046bdb1f7d2919081900360600190a2505050565b6111dc610d41565b6001600160a01b03808216600090815260106020526040902054168015611201578091505b6001600160a01b03821633146112295760405162461bcd60e51b815260040161052990611abb565b61123284611522565b825160005b8181101561131d57600085828151811061125357611253611ae0565b60200260200101519050611267818861132f565b6001600160a01b038082166000908152600d60209081526040808320938b168352929052205480156112c9576001600160a01b038083166000818152600d60209081526040808320948d168352939052918220919091556112c9908783611596565b604080518281526001600160a01b03888116602083015280851692908b16917fe4394b3c25e336e9d6b7fcefab7e3234f1c6b373f13655dc3920664b080b098d910160405180910390a35050600101611237565b50505061132a6001600055565b505050565b600061133a83610a46565b6001600160a01b0384166000908152600b60205260409020819055905061136083610889565b6001600160a01b038085166000908152600a602052604090209190915582161561132a5761138e8383610588565b6001600160a01b039384166000818152600d602090815260408083209690971680835295815286822093909355908152600c825284812093815292905291902055565b6040516001600160a01b038481166024830152838116604483015260648201839052610bf49186918216906323b872dd906084015b604051602081830303815290604052915060e01b6020820180516001600160e01b0383818316178352505050506115c7565b611440610d41565b6000811161147e5760405162461bcd60e51b815260206004820152600b60248201526a16995c9bc8185b5bdd5b9d60aa1b6044820152606401610529565b6114888282611621565b816001600160a01b03167f7a702e80a9c183a6ce9d6732991df2e914555ba35a364a70aed2433984e7544b826040516114c391815260200190565b60405180910390a261062f6001600055565b6114dd610d41565b6114e78282611678565b816001600160a01b03167f9c6be7c4260e52ea2e41d7f17932147ab78756f1bb2247a2554796d969741aff826040516114c391815260200190565b6001600160a01b038116600090815260056020526040812054600480549192839261154e908490611a5c565b9091555050506001600160a01b03811660009081526006602090815260408083205460059092528220819055600480549192839261158d908490611aa8565b90915550505050565b6040516001600160a01b0383811660248301526044820183905261132a91859182169063a9059cbb90606401611406565b60006115dc6001600160a01b038416836116c0565b905080516000141580156116015750808060200190518101906115ff9190611b25565b155b1561132a5782604051635274afe760e01b815260040161052991906119ef565b61162a826116ce565b806007600082825461163c9190611aa8565b90915550506001600160a01b03821660009081526006602052604081208054839290611669908490611aa8565b9091555061062f905082611522565b611681826116ce565b80600760008282546116939190611a5c565b90915550506001600160a01b03821660009081526006602052604081208054839290611669908490611a5c565b606061061c8383600061177e565b6000600e80548060200260200160405190810160405280929190818152602001828054801561172657602002820191906000526020600020905b81546001600160a01b03168152600190910190602001808311611708575b505083519394506000925050505b818110156117675761175f83828151811061175157611751611ae0565b60200260200101518561132f565b600101611734565b5060035461132a906001600160a01b03168461132f565b6060814710156117a3573060405163cd78605960e01b815260040161052991906119ef565b600080856001600160a01b031684866040516117bf9190611b47565b60006040518083038185875af1925050503d80600081146117fc576040519150601f19603f3d011682016040523d82523d6000602084013e611801565b606091505b509150915061181186838361181b565b9695505050505050565b6060826118305761182b8261186e565b6108b1565b815115801561184757506001600160a01b0384163b155b156118675783604051639996b31560e01b815260040161052991906119ef565b50806108b1565b80511561187e5780518082602001fd5b604051630a12f52160e11b815260040160405180910390fd5b80356001600160a01b03811681146118ae57600080fd5b919050565b6000602082840312156118c557600080fd5b61061c82611897565b600080604083850312156118e157600080fd5b6118ea83611897565b91506118f860208401611897565b90509250929050565b634e487b7160e01b600052604160045260246000fd5b6000806040838503121561192a57600080fd5b61193383611897565b915060208084013567ffffffffffffffff8082111561195157600080fd5b818601915086601f83011261196557600080fd5b81358181111561197757611977611901565b8060051b604051601f19603f8301168101818110858211171561199c5761199c611901565b6040529182528482019250838101850191898311156119ba57600080fd5b938501935b828510156119df576119d085611897565b845293850193928501926119bf565b8096505050505050509250929050565b6001600160a01b0391909116815260200190565b600060208284031215611a1557600080fd5b5035919050565b60008060408385031215611a2f57600080fd5b611a3883611897565b946020939093013593505050565b634e487b7160e01b600052601160045260246000fd5b8181038181111561061f5761061f611a46565b808202811582820484141761061f5761061f611a46565b600082611aa357634e487b7160e01b600052601260045260246000fd5b500490565b8082018082111561061f5761061f611a46565b6020808252600b908201526a139bdd08185b1b1bddd95960aa1b604082015260600190565b634e487b7160e01b600052603260045260246000fd5b634e487b7160e01b600052603160045260246000fd5b600060208284031215611b1e57600080fd5b5051919050565b600060208284031215611b3757600080fd5b815180151581146108b157600080fd5b6000825160005b81811015611b685760208186018101518583015201611b4e565b50600092019182525091905056fea26469706673582212204bc836aa19981b6c7a4db002457e565431aad04088b9408dbcf8f37e6b303bcc64736f6c63430008180033",
  "devdoc": {
    "author": "belbixa17",
    "errors": {
      "AddressEmptyCode(address)": [
        {
          "details": "There's no code at `target` (it is not a contract)."
        }
      ],
      "AddressInsufficientBalance(address)": [
        {
          "details": "The ETH balance of the account is not enough to perform the operation."
        }
      ],
      "FailedInnerCall()": [
        {
          "details": "A call to an address target failed. The target may have reverted."
        }
      ],
      "ReentrancyGuardReentrantCall()": [
        {
          "details": "Unauthorized reentrant call."
        }
      ],
      "SafeERC20FailedOperation(address)": [
        {
          "details": "An operation with an ERC20 token failed."
        }
      ]
    },
    "kind": "dev",
    "methods": {
      "derivedBalance(address)": {
        "details": "Balance of holder adjusted with specific rules for boost calculation.      Supposed to be implemented in a parent contract      Adjust user balance with some logic, like boost logic."
      },
      "earned(address,address)": {
        "details": "Approximate of earned rewards ready to claim"
      },
      "handleBalanceChange(address)": {
        "details": "Must be called from stakingToken when user balance changed."
      },
      "lastTimeRewardApplicable(address)": {
        "details": "Returns the last time the reward was modified or periodFinish if the reward has ended"
      },
      "left(address)": {
        "details": "Amount of reward tokens left for the current period"
      },
      "registerRewardToken(address)": {
        "details": "Whitelist reward token for staking token. Only operator can do it."
      },
      "removeRewardToken(address)": {
        "details": "Remove from whitelist reward token for staking token. Only operator can do it.      We assume that the first token can not be removed."
      },
      "rewardPerToken(address)": {
        "details": "Reward paid for token for the current period."
      },
      "rewardTokensLength()": {
        "details": "Length of rewards tokens array for given token"
      },
      "setRewardsRedirect(address,address)": {
        "details": "Account or governance can setup a redirect of all rewards.      It needs for 3rd party contracts integrations."
      }
    },
    "title": "Stakeless pool for vaults",
    "version": 1
  },
  "userdoc": {
    "kind": "user",
    "methods": {
      "rewardsRedirect(address)": {
        "notice": "account => recipient. All rewards for this account will receive recipient"
      }
    },
    "version": 1
  },
  "storageLayout": {
    "storage": [
      {
        "astId": 3824,
        "contract": "contracts/Gauge.sol:Gauge",
        "label": "_status",
        "offset": 0,
        "slot": "0",
        "type": "t_uint256"
      },
      {
        "astId": 6543,
        "contract": "contracts/Gauge.sol:Gauge",
        "label": "governance",
        "offset": 0,
        "slot": "1",
        "type": "t_address"
      },
      {
        "astId": 6546,
        "contract": "contracts/Gauge.sol:Gauge",
        "label": "duration",
        "offset": 0,
        "slot": "2",
        "type": "t_uint256"
      },
      {
        "astId": 6549,
        "contract": "contracts/Gauge.sol:Gauge",
        "label": "defaultRewardToken",
        "offset": 0,
        "slot": "3",
        "type": "t_address"
      },
      {
        "astId": 6552,
        "contract": "contracts/Gauge.sol:Gauge",
        "label": "derivedSupply",
        "offset": 0,
        "slot": "4",
        "type": "t_uint256"
      },
      {
        "astId": 6557,
        "contract": "contracts/Gauge.sol:Gauge",
        "label": "derivedBalances",
        "offset": 0,
        "slot": "5",
        "type": "t_mapping(t_address,t_uint256)"
      },
      {
        "astId": 6562,
        "contract": "contracts/Gauge.sol:Gauge",
        "label": "balanceOf",
        "offset": 0,
        "slot": "6",
        "type": "t_mapping(t_address,t_uint256)"
      },
      {
        "astId": 6565,
        "contract": "contracts/Gauge.sol:Gauge",
        "label": "totalSupply",
        "offset": 0,
        "slot": "7",
        "type": "t_uint256"
      },
      {
        "astId": 6570,
        "contract": "contracts/Gauge.sol:Gauge",
        "label": "rewardRate",
        "offset": 0,
        "slot": "8",
        "type": "t_mapping(t_address,t_uint256)"
      },
      {
        "astId": 6575,
        "contract": "contracts/Gauge.sol:Gauge",
        "label": "periodFinish",
        "offset": 0,
        "slot": "9",
        "type": "t_mapping(t_address,t_uint256)"
      },
      {
        "astId": 6580,
        "contract": "contracts/Gauge.sol:Gauge",
        "label": "lastUpdateTime",
        "offset": 0,
        "slot": "10",
        "type": "t_mapping(t_address,t_uint256)"
      },
      {
        "astId": 6585,
        "contract": "contracts/Gauge.sol:Gauge",
        "label": "rewardPerTokenStored",
        "offset": 0,
        "slot": "11",
        "type": "t_mapping(t_address,t_uint256)"
      },
      {
        "astId": 6592,
        "contract": "contracts/Gauge.sol:Gauge",
        "label": "userRewardPerTokenPaid",
        "offset": 0,
        "slot": "12",
        "type": "t_mapping(t_address,t_mapping(t_address,t_uint256))"
      },
      {
        "astId": 6599,
        "contract": "contracts/Gauge.sol:Gauge",
        "label": "rewards",
        "offset": 0,
        "slot": "13",
        "type": "t_mapping(t_address,t_mapping(t_address,t_uint256))"
      },
      {
        "astId": 6603,
        "contract": "contracts/Gauge.sol:Gauge",
        "label": "rewardTokens",
        "offset": 0,
        "slot": "14",
        "type": "t_array(t_address)dyn_storage"
      },
      {
        "astId": 6608,
        "contract": "contracts/Gauge.sol:Gauge",
        "label": "isRewardToken",
        "offset": 0,
        "slot": "15",
        "type": "t_mapping(t_address,t_bool)"
      },
      {
        "astId": 6613,
        "contract": "contracts/Gauge.sol:Gauge",
        "label": "rewardsRedirect",
        "offset": 0,
        "slot": "16",
        "type": "t_mapping(t_address,t_address)"
      },
      {
        "astId": 6005,
        "contract": "contracts/Gauge.sol:Gauge",
        "label": "stakingToken",
        "offset": 0,
        "slot": "17",
        "type": "t_address"
      }
    ],
    "types": {
      "t_address": {
        "encoding": "inplace",
        "label": "address",
        "numberOfBytes": "20"
      },
      "t_array(t_address)dyn_storage": {
        "base": "t_address",
        "encoding": "dynamic_array",
        "label": "address[]",
        "numberOfBytes": "32"
      },
      "t_bool": {
        "encoding": "inplace",
        "label": "bool",
        "numberOfBytes": "1"
      },
      "t_mapping(t_address,t_address)": {
        "encoding": "mapping",
        "key": "t_address",
        "label": "mapping(address => address)",
        "numberOfBytes": "32",
        "value": "t_address"
      },
      "t_mapping(t_address,t_bool)": {
        "encoding": "mapping",
        "key": "t_address",
        "label": "mapping(address => bool)",
        "numberOfBytes": "32",
        "value": "t_bool"
      },
      "t_mapping(t_address,t_mapping(t_address,t_uint256))": {
        "encoding": "mapping",
        "key": "t_address",
        "label": "mapping(address => mapping(address => uint256))",
        "numberOfBytes": "32",
        "value": "t_mapping(t_address,t_uint256)"
      },
      "t_mapping(t_address,t_uint256)": {
        "encoding": "mapping",
        "key": "t_address",
        "label": "mapping(address => uint256)",
        "numberOfBytes": "32",
        "value": "t_uint256"
      },
      "t_uint256": {
        "encoding": "inplace",
        "label": "uint256",
        "numberOfBytes": "32"
      }
    }
  }
}