{
  "address": "0xc184a3ECcA684F2621c903A7943D85fA42F56671",
  "abi": [
    {
      "inputs": [
        {
          "internalType": "address",
          "name": "governance_",
          "type": "address"
        }
      ],
      "stateMutability": "nonpayable",
      "type": "constructor"
    },
    {
      "inputs": [
        {
          "internalType": "address",
          "name": "target",
          "type": "address"
        }
      ],
      "name": "AddressEmptyCode",
      "type": "error"
    },
    {
      "inputs": [
        {
          "internalType": "address",
          "name": "account",
          "type": "address"
        }
      ],
      "name": "AddressInsufficientBalance",
      "type": "error"
    },
    {
      "inputs": [],
      "name": "Already",
      "type": "error"
    },
    {
      "inputs": [],
      "name": "AssetsHaveNotYetBeenBridged",
      "type": "error"
    },
    {
      "inputs": [],
      "name": "FailedInnerCall",
      "type": "error"
    },
    {
      "inputs": [],
      "name": "NoNewStrategyAnnounced",
      "type": "error"
    },
    {
      "inputs": [],
      "name": "NotPending",
      "type": "error"
    },
    {
      "inputs": [],
      "name": "OnlyGovernanceCanDoThis",
      "type": "error"
    },
    {
      "inputs": [],
      "name": "OnlyVaultCanDoThis",
      "type": "error"
    },
    {
      "inputs": [
        {
          "internalType": "address",
          "name": "token",
          "type": "address"
        }
      ],
      "name": "SafeERC20FailedOperation",
      "type": "error"
    },
    {
      "inputs": [],
      "name": "StrategyIsNotSwitchingNow",
      "type": "error"
    },
    {
      "inputs": [],
      "name": "StrategyIsNowSwitching",
      "type": "error"
    },
    {
      "inputs": [],
      "name": "Timelock",
      "type": "error"
    },
    {
      "anonymous": false,
      "inputs": [
        {
          "indexed": false,
          "internalType": "address",
          "name": "strategy",
          "type": "address"
        }
      ],
      "name": "AnnouncedNewStrategy",
      "type": "event"
    },
    {
      "anonymous": false,
      "inputs": [
        {
          "indexed": false,
          "internalType": "address",
          "name": "strategy",
          "type": "address"
        }
      ],
      "name": "CancelAnnouncedStrategy",
      "type": "event"
    },
    {
      "anonymous": false,
      "inputs": [
        {
          "indexed": true,
          "internalType": "address",
          "name": "strategy",
          "type": "address"
        },
        {
          "indexed": false,
          "internalType": "uint256",
          "name": "amount",
          "type": "uint256"
        }
      ],
      "name": "Invested",
      "type": "event"
    },
    {
      "anonymous": false,
      "inputs": [
        {
          "indexed": false,
          "internalType": "address",
          "name": "strategy",
          "type": "address"
        }
      ],
      "name": "NewStrategy",
      "type": "event"
    },
    {
      "anonymous": false,
      "inputs": [
        {
          "indexed": false,
          "internalType": "address",
          "name": "strategy",
          "type": "address"
        }
      ],
      "name": "PendingStrategy",
      "type": "event"
    },
    {
      "anonymous": false,
      "inputs": [
        {
          "indexed": true,
          "internalType": "address",
          "name": "strategy",
          "type": "address"
        },
        {
          "indexed": false,
          "internalType": "uint256",
          "name": "amount",
          "type": "uint256"
        }
      ],
      "name": "WithdrawFromStrategy",
      "type": "event"
    },
    {
      "inputs": [],
      "name": "TIME_LOCK",
      "outputs": [
        {
          "internalType": "uint256",
          "name": "",
          "type": "uint256"
        }
      ],
      "stateMutability": "view",
      "type": "function"
    },
    {
      "inputs": [
        {
          "internalType": "address",
          "name": "newStrategy_",
          "type": "address"
        }
      ],
      "name": "announceNewStrategy",
      "outputs": [],
      "stateMutability": "nonpayable",
      "type": "function"
    },
    {
      "inputs": [],
      "name": "announceTime",
      "outputs": [
        {
          "internalType": "uint256",
          "name": "",
          "type": "uint256"
        }
      ],
      "stateMutability": "view",
      "type": "function"
    },
    {
      "inputs": [],
      "name": "announcedPendingStrategy",
      "outputs": [
        {
          "internalType": "address",
          "name": "",
          "type": "address"
        }
      ],
      "stateMutability": "view",
      "type": "function"
    },
    {
      "inputs": [],
      "name": "asset",
      "outputs": [
        {
          "internalType": "address",
          "name": "",
          "type": "address"
        }
      ],
      "stateMutability": "view",
      "type": "function"
    },
    {
      "inputs": [],
      "name": "cancelAnnouncedStrategy",
      "outputs": [],
      "stateMutability": "nonpayable",
      "type": "function"
    },
    {
      "inputs": [],
      "name": "finishStrategySwitching",
      "outputs": [],
      "stateMutability": "nonpayable",
      "type": "function"
    },
    {
      "inputs": [],
      "name": "governance",
      "outputs": [
        {
          "internalType": "address",
          "name": "",
          "type": "address"
        }
      ],
      "stateMutability": "view",
      "type": "function"
    },
    {
      "inputs": [
        {
          "internalType": "address",
          "name": "strategy_",
          "type": "address"
        }
      ],
      "name": "initStrategy",
      "outputs": [],
      "stateMutability": "nonpayable",
      "type": "function"
    },
    {
      "inputs": [],
      "name": "investAll",
      "outputs": [],
      "stateMutability": "nonpayable",
      "type": "function"
    },
    {
      "inputs": [],
      "name": "pendingStrategy",
      "outputs": [
        {
          "internalType": "address",
          "name": "",
          "type": "address"
        }
      ],
      "stateMutability": "view",
      "type": "function"
    },
    {
      "inputs": [
        {
          "internalType": "address",
          "name": "asset_",
          "type": "address"
        }
      ],
      "name": "setup",
      "outputs": [],
      "stateMutability": "nonpayable",
      "type": "function"
    },
    {
      "inputs": [],
      "name": "startStrategySwitching",
      "outputs": [],
      "stateMutability": "nonpayable",
      "type": "function"
    },
    {
      "inputs": [],
      "name": "strategy",
      "outputs": [
        {
          "internalType": "address",
          "name": "",
          "type": "address"
        }
      ],
      "stateMutability": "view",
      "type": "function"
    },
    {
      "inputs": [],
      "name": "totalAssets",
      "outputs": [
        {
          "internalType": "uint256",
          "name": "",
          "type": "uint256"
        }
      ],
      "stateMutability": "view",
      "type": "function"
    },
    {
      "inputs": [],
      "name": "vault",
      "outputs": [
        {
          "internalType": "address",
          "name": "",
          "type": "address"
        }
      ],
      "stateMutability": "view",
      "type": "function"
    },
    {
      "inputs": [],
      "name": "withdrawAllToVault",
      "outputs": [],
      "stateMutability": "nonpayable",
      "type": "function"
    },
    {
      "inputs": [
        {
          "internalType": "uint256",
          "name": "amount",
          "type": "uint256"
        }
      ],
      "name": "withdrawToVault",
      "outputs": [],
      "stateMutability": "nonpayable",
      "type": "function"
    }
  ],
  "transactionHash": "0x46874a132b3bd6ee14abd7c370f91eecfae8ed1255b03ee78959b0c851042381",
  "args": [
    "0x3d0c177E035C30bb8681e5859EB98d114b48b935"
  ],
  "numDeployments": 1,
  "solcInputHash": "0da32b8ba57d82b1968065dc7390c51f",
  "bytecode": "0x60a060405234801561001057600080fd5b5060405161134e38038061134e83398101604081905261002f91610040565b6001600160a01b0316608052610070565b60006020828403121561005257600080fd5b81516001600160a01b038116811461006957600080fd5b9392505050565b6080516112bc6100926000396000818161018c0152610f2601526112bc6000f3fe608060405234801561001057600080fd5b50600436106101165760003560e01c80639077d1f0116100a2578063ce8c42e811610071578063ce8c42e814610212578063df87253614610225578063e0a09c681461022d578063e34d2e0b14610237578063fbfa77cf1461023f57600080fd5b80639077d1f0146101dc578063a8c62e76146101e4578063bfd131f1146101f7578063ccf9066b146101ff57600080fd5b8063465fc5d2116100e9578063465fc5d2146101745780635aa6e6751461018757806366d38203146101ae57806382796402146101c15780638e541db8146101c957600080fd5b806301e1d1141461011b5780632a41870f1461013657806338d52e0f1461013f5780633ccdde231461015f575b600080fd5b610123610252565b6040519081526020015b60405180910390f35b61012360055481565b600054610152906001600160a01b031681565b60405161012d919061118a565b61017261016d36600461119e565b610353565b005b600354610152906001600160a01b031681565b6101527f000000000000000000000000000000000000000000000000000000000000000081565b6101726101bc36600461119e565b6103f6565b610172610433565b6101726101d736600461119e565b61063a565b6101726106b7565b600254610152906001600160a01b031681565b610172610711565b600454610152906001600160a01b031681565b6101726102203660046111c7565b6108ec565b610172610c37565b6101236201518081565b610172610d2f565b600154610152906001600160a01b031681565b600080546040516370a0823160e01b815282916001600160a01b0316906370a082319061028390309060040161118a565b602060405180830381865afa1580156102a0573d6000803e3d6000fd5b505050506040513d601f19601f820116820180604052508101906102c491906111e0565b6002549091506001600160a01b0316801561034a57806001600160a01b03166301e1d1146040518163ffffffff1660e01b8152600401602060405180830381865afa158015610317573d6000803e3d6000fd5b505050506040513d601f19601f8201168201806040525081019061033b91906111e0565b610345908361120f565b61034c565b815b9250505090565b61035b610f1b565b6004546001600160a01b031615158061037e57506003546001600160a01b031615155b1561039c57604051633008ba1360e11b815260040160405180910390fd5b600480546001600160a01b0319166001600160a01b038316179055426005556040517f460331ce80e333c4a57afa9c3901c2745777d98d9a8c6a0ecdf3ea946625a62f906103eb90839061118a565b60405180910390a150565b6001546001600160a01b031661043057600080546001600160a01b0383166001600160a01b03199182161790915560018054909116331790555b50565b6004546001600160a01b03168061045d57604051630803fa8560e21b815260040160405180910390fd5b6201518060055461046e919061120f565b42101561048e57604051635f107c5f60e11b815260040160405180910390fd5b600380546001600160a01b038084166001600160a01b0319928316179092556004805490911681556002546040805163143d728160e01b815290519190931692600092849263143d72819280830192602092918290030181865afa1580156104fa573d6000803e3d6000fd5b505050506040513d601f19601f8201168201806040525081019061051e91906111e0565b90506000826001600160a01b031663880b678d6040518163ffffffff1660e01b8152600401602060405180830381865afa158015610560573d6000803e3d6000fd5b505050506040513d601f19601f8201168201806040525081019061058491906111e0565b905060008183101561059657826105a0565b6105a08284611222565b905080156105fc57836001600160a01b031663a78a9b4a6040518163ffffffff1660e01b8152600401600060405180830381600087803b1580156105e357600080fd5b505af11580156105f7573d6000803e3d6000fd5b505050505b7f9d46a117ee69d363a494630270b700b540aab365e97b7ee086835e6acf639f598560405161062b919061118a565b60405180910390a15050505050565b610642610f1b565b6002546001600160a01b03161561066c57604051633008ba1360e11b815260040160405180910390fd5b600280546001600160a01b0319166001600160a01b0383161790556040517f6a8bdf1118a9228c75e2430d8861e4925555a5a4b3165a133c5ee38b7225fa92906103eb90839061118a565b6106bf610f1b565b6004546001600160a01b0316801561043057600480546001600160a01b03191690556040517fcbec2cc173314c203997db56c1062b2af97022087e8b8bd77f663f97583400a5906103eb90839061118a565b610719610f66565b610721610f91565b6002546000546001600160a01b0391821691168115610855576000826001600160a01b03166301e1d1146040518163ffffffff1660e01b8152600401602060405180830381865afa15801561077a573d6000803e3d6000fd5b505050506040513d601f19601f8201168201806040525081019061079e91906111e0565b90508015610853576000836001600160a01b03166357339c296040518163ffffffff1660e01b81526004016020604051808303816000875af11580156107e8573d6000803e3d6000fd5b505050506040513d601f19601f8201168201806040525081019061080c91906111e0565b9050836001600160a01b03167fb28e99afed98b3607aeea074f84c346dc4135d86f35b1c28bc35ab6782e7ce308260405161084991815260200190565b60405180910390a2505b505b6040516370a0823160e01b81526000906001600160a01b038316906370a082319061088490309060040161118a565b602060405180830381865afa1580156108a1573d6000803e3d6000fd5b505050506040513d601f19601f820116820180604052508101906108c591906111e0565b905080156108e7576001546108e7906001600160a01b03848116911683610fbb565b505050565b6108f4610f66565b6108fc610f91565b600080546001546040516370a0823160e01b81526001600160a01b0392831693919092169183906370a082319061093790309060040161118a565b602060405180830381865afa158015610954573d6000803e3d6000fd5b505050506040513d601f19601f8201168201806040525081019061097891906111e0565b905083811015610ba057600061098e8286611222565b90506000600260009054906101000a90046001600160a01b031690506000816001600160a01b03166301e1d1146040518163ffffffff1660e01b8152600401602060405180830381865afa1580156109ea573d6000803e3d6000fd5b505050506040513d601f19601f82011682018060405250810190610a0e91906111e0565b90508015610b9c576000838211610a8a57826001600160a01b03166357339c296040518163ffffffff1660e01b81526004016020604051808303816000875af1158015610a5f573d6000803e3d6000fd5b505050506040513d601f19601f82011682018060405250810190610a8391906111e0565b9050610ae8565b6040516349b1b8dd60e11b8152600481018590526001600160a01b0384169063936371ba90602401600060405180830381600087803b158015610acc57600080fd5b505af1158015610ae0573d6000803e3d6000fd5b505050508390505b826001600160a01b03167fb28e99afed98b3607aeea074f84c346dc4135d86f35b1c28bc35ab6782e7ce3082604051610b2391815260200190565b60405180910390a26040516370a0823160e01b81526001600160a01b038816906370a0823190610b5790309060040161118a565b602060405180830381865afa158015610b74573d6000803e3d6000fd5b505050506040513d601f19601f82011682018060405250810190610b9891906111e0565b9450505b5050505b8015610c3157826001600160a01b031663a9059cbb83610bc0878561100d565b6040516001600160e01b031960e085901b1681526001600160a01b03909216600483015260248201526044016020604051808303816000875af1158015610c0b573d6000803e3d6000fd5b505050506040513d601f19601f82011682018060405250810190610c2f9190611235565b505b50505050565b610c3f610f66565b610c47610f91565b6002546000546001600160a01b0391821691168115610d2b576040516370a0823160e01b81526000906001600160a01b038316906370a0823190610c8f90309060040161118a565b602060405180830381865afa158015610cac573d6000803e3d6000fd5b505050506040513d601f19601f82011682018060405250810190610cd091906111e0565b9050610ce66001600160a01b0383168483610fbb565b826001600160a01b03167fc3f75dfc78f6efac88ad5abb5e606276b903647d97b2a62a1ef89840a658bbc382604051610d2191815260200190565b60405180910390a2505b5050565b6003546001600160a01b031680610d595760405163ac8f366360e01b815260040160405180910390fd5b6002546040805163143d728160e01b815290516001600160a01b0390921691829163143d72819160048083019260209291908290030181865afa158015610da4573d6000803e3d6000fd5b505050506040513d601f19601f82011682018060405250810190610dc891906111e0565b151580610e355750806001600160a01b03166327eb25106040518163ffffffff1660e01b8152600401602060405180830381865afa158015610e0e573d6000803e3d6000fd5b505050506040513d601f19601f82011682018060405250810190610e3291906111e0565b15155b15610e5357604051637c12e30960e11b815260040160405180910390fd5b806001600160a01b03166357339c296040518163ffffffff1660e01b81526004016020604051808303816000875af1158015610e93573d6000803e3d6000fd5b505050506040513d601f19601f82011682018060405250810190610eb791906111e0565b50600280546001600160a01b0384166001600160a01b0319918216179091556003805490911690556040517f6a8bdf1118a9228c75e2430d8861e4925555a5a4b3165a133c5ee38b7225fa9290610f0f90849061118a565b60405180910390a15050565b336001600160a01b037f00000000000000000000000000000000000000000000000000000000000000001614610f64576040516343c0578f60e11b815260040160405180910390fd5b565b6001546001600160a01b03163314610f645760405163c5e72f2b60e01b815260040160405180910390fd5b6003546001600160a01b031615610f6457604051633faa928360e01b815260040160405180910390fd5b604080516001600160a01b038416602482015260448082018490528251808303909101815260649091019091526020810180516001600160e01b031663a9059cbb60e01b1790526108e7908490611027565b600081831061101c578161101e565b825b90505b92915050565b600061103c6001600160a01b0384168361108a565b9050805160001415801561106157508080602001905181019061105f9190611235565b155b156108e75782604051635274afe760e01b8152600401611081919061118a565b60405180910390fd5b606061101e8383600084600080856001600160a01b031684866040516110b09190611257565b60006040518083038185875af1925050503d80600081146110ed576040519150601f19603f3d011682016040523d82523d6000602084013e6110f2565b606091505b509150915061110286838361110e565b925050505b9392505050565b6060826111235761111e82611161565b611107565b815115801561113a57506001600160a01b0384163b155b1561115a5783604051639996b31560e01b8152600401611081919061118a565b5080611107565b8051156111715780518082602001fd5b604051630a12f52160e11b815260040160405180910390fd5b6001600160a01b0391909116815260200190565b6000602082840312156111b057600080fd5b81356001600160a01b038116811461110757600080fd5b6000602082840312156111d957600080fd5b5035919050565b6000602082840312156111f257600080fd5b5051919050565b634e487b7160e01b600052601160045260246000fd5b80820180821115611021576110216111f9565b81810381811115611021576110216111f9565b60006020828403121561124757600080fd5b8151801515811461110757600080fd5b6000825160005b81811015611278576020818601810151858301520161125e565b50600092019182525091905056fea26469706673582212200f03c653f8bcf71799246e2dea51e69fd9d84bfe64067eb47059630f51af8b4664736f6c63430008180033",
  "devdoc": {
    "author": "a17",
    "errors": {
      "AddressEmptyCode(address)": [
        {
          "details": "There's no code at `target` (it is not a contract)."
        }
      ],
      "AddressInsufficientBalance(address)": [
        {
          "details": "The ETH balance of the account is not enough to perform the operation."
        }
      ],
      "FailedInnerCall()": [
        {
          "details": "A call to an address target failed. The target may have reverted."
        }
      ],
      "SafeERC20FailedOperation(address)": [
        {
          "details": "An operation with an ERC20 token failed."
        }
      ]
    },
    "kind": "dev",
    "methods": {},
    "title": "Switches strategy of the vault",
    "version": 1
  },
  "userdoc": {
    "kind": "user",
    "methods": {
      "asset()": {
        "notice": "Underlying asset"
      },
      "governance()": {
        "notice": "Address that can manage strategies"
      },
      "investAll()": {
        "notice": "Invest all available assets to strategy"
      },
      "pendingStrategy()": {
        "notice": "New strategy"
      },
      "setup(address)": {
        "notice": "First time setup method called by vault"
      },
      "strategy()": {
        "notice": "Current active strategy"
      },
      "totalAssets()": {
        "notice": "Total assets managed by Switcher"
      },
      "vault()": {
        "notice": "Linked vault"
      },
      "withdrawAllToVault()": {
        "notice": "Withdraws all underlying assets to the vault"
      },
      "withdrawToVault(uint256)": {
        "notice": "Withdraws underlying assets to the vault"
      }
    },
    "version": 1
  },
  "storageLayout": {
    "storage": [
      {
        "astId": 2930,
        "contract": "contracts/Switcher.sol:Switcher",
        "label": "asset",
        "offset": 0,
        "slot": "0",
        "type": "t_address"
      },
      {
        "astId": 2933,
        "contract": "contracts/Switcher.sol:Switcher",
        "label": "vault",
        "offset": 0,
        "slot": "1",
        "type": "t_address"
      },
      {
        "astId": 2939,
        "contract": "contracts/Switcher.sol:Switcher",
        "label": "strategy",
        "offset": 0,
        "slot": "2",
        "type": "t_address"
      },
      {
        "astId": 2941,
        "contract": "contracts/Switcher.sol:Switcher",
        "label": "pendingStrategy",
        "offset": 0,
        "slot": "3",
        "type": "t_address"
      },
      {
        "astId": 2943,
        "contract": "contracts/Switcher.sol:Switcher",
        "label": "announcedPendingStrategy",
        "offset": 0,
        "slot": "4",
        "type": "t_address"
      },
      {
        "astId": 2945,
        "contract": "contracts/Switcher.sol:Switcher",
        "label": "announceTime",
        "offset": 0,
        "slot": "5",
        "type": "t_uint256"
      }
    ],
    "types": {
      "t_address": {
        "encoding": "inplace",
        "label": "address",
        "numberOfBytes": "20"
      },
      "t_uint256": {
        "encoding": "inplace",
        "label": "uint256",
        "numberOfBytes": "32"
      }
    }
  }
}