{
  "address": "0xEB529553Bc75377d8A47F2367881D4e854a560e7",
  "abi": [
    {
      "inputs": [
        {
          "internalType": "address",
          "name": "weth",
          "type": "address"
        },
        {
          "internalType": "address",
          "name": "switcher_",
          "type": "address"
        },
        {
          "internalType": "address",
          "name": "gauge_",
          "type": "address"
        }
      ],
      "stateMutability": "nonpayable",
      "type": "constructor"
    },
    {
      "inputs": [
        {
          "internalType": "address",
          "name": "target",
          "type": "address"
        }
      ],
      "name": "AddressEmptyCode",
      "type": "error"
    },
    {
      "inputs": [
        {
          "internalType": "address",
          "name": "account",
          "type": "address"
        }
      ],
      "name": "AddressInsufficientBalance",
      "type": "error"
    },
    {
      "inputs": [
        {
          "internalType": "address",
          "name": "spender",
          "type": "address"
        },
        {
          "internalType": "uint256",
          "name": "allowance",
          "type": "uint256"
        },
        {
          "internalType": "uint256",
          "name": "needed",
          "type": "uint256"
        }
      ],
      "name": "ERC20InsufficientAllowance",
      "type": "error"
    },
    {
      "inputs": [
        {
          "internalType": "address",
          "name": "sender",
          "type": "address"
        },
        {
          "internalType": "uint256",
          "name": "balance",
          "type": "uint256"
        },
        {
          "internalType": "uint256",
          "name": "needed",
          "type": "uint256"
        }
      ],
      "name": "ERC20InsufficientBalance",
      "type": "error"
    },
    {
      "inputs": [
        {
          "internalType": "address",
          "name": "approver",
          "type": "address"
        }
      ],
      "name": "ERC20InvalidApprover",
      "type": "error"
    },
    {
      "inputs": [
        {
          "internalType": "address",
          "name": "receiver",
          "type": "address"
        }
      ],
      "name": "ERC20InvalidReceiver",
      "type": "error"
    },
    {
      "inputs": [
        {
          "internalType": "address",
          "name": "sender",
          "type": "address"
        }
      ],
      "name": "ERC20InvalidSender",
      "type": "error"
    },
    {
      "inputs": [
        {
          "internalType": "address",
          "name": "spender",
          "type": "address"
        }
      ],
      "name": "ERC20InvalidSpender",
      "type": "error"
    },
    {
      "inputs": [
        {
          "internalType": "address",
          "name": "receiver",
          "type": "address"
        },
        {
          "internalType": "uint256",
          "name": "assets",
          "type": "uint256"
        },
        {
          "internalType": "uint256",
          "name": "max",
          "type": "uint256"
        }
      ],
      "name": "ERC4626ExceededMaxDeposit",
      "type": "error"
    },
    {
      "inputs": [
        {
          "internalType": "address",
          "name": "receiver",
          "type": "address"
        },
        {
          "internalType": "uint256",
          "name": "shares",
          "type": "uint256"
        },
        {
          "internalType": "uint256",
          "name": "max",
          "type": "uint256"
        }
      ],
      "name": "ERC4626ExceededMaxMint",
      "type": "error"
    },
    {
      "inputs": [
        {
          "internalType": "address",
          "name": "owner",
          "type": "address"
        },
        {
          "internalType": "uint256",
          "name": "shares",
          "type": "uint256"
        },
        {
          "internalType": "uint256",
          "name": "max",
          "type": "uint256"
        }
      ],
      "name": "ERC4626ExceededMaxRedeem",
      "type": "error"
    },
    {
      "inputs": [
        {
          "internalType": "address",
          "name": "owner",
          "type": "address"
        },
        {
          "internalType": "uint256",
          "name": "assets",
          "type": "uint256"
        },
        {
          "internalType": "uint256",
          "name": "max",
          "type": "uint256"
        }
      ],
      "name": "ERC4626ExceededMaxWithdraw",
      "type": "error"
    },
    {
      "inputs": [],
      "name": "FailedInnerCall",
      "type": "error"
    },
    {
      "inputs": [],
      "name": "MathOverflowedMulDiv",
      "type": "error"
    },
    {
      "inputs": [],
      "name": "ReentrancyGuardReentrantCall",
      "type": "error"
    },
    {
      "inputs": [
        {
          "internalType": "address",
          "name": "token",
          "type": "address"
        }
      ],
      "name": "SafeERC20FailedOperation",
      "type": "error"
    },
    {
      "inputs": [],
      "name": "Slippage",
      "type": "error"
    },
    {
      "inputs": [],
      "name": "WaitAFewBlocks",
      "type": "error"
    },
    {
      "inputs": [],
      "name": "ZeroAmount",
      "type": "error"
    },
    {
      "anonymous": false,
      "inputs": [
        {
          "indexed": true,
          "internalType": "address",
          "name": "owner",
          "type": "address"
        },
        {
          "indexed": true,
          "internalType": "address",
          "name": "spender",
          "type": "address"
        },
        {
          "indexed": false,
          "internalType": "uint256",
          "name": "value",
          "type": "uint256"
        }
      ],
      "name": "Approval",
      "type": "event"
    },
    {
      "anonymous": false,
      "inputs": [
        {
          "indexed": true,
          "internalType": "address",
          "name": "sender",
          "type": "address"
        },
        {
          "indexed": true,
          "internalType": "address",
          "name": "owner",
          "type": "address"
        },
        {
          "indexed": false,
          "internalType": "uint256",
          "name": "assets",
          "type": "uint256"
        },
        {
          "indexed": false,
          "internalType": "uint256",
          "name": "shares",
          "type": "uint256"
        }
      ],
      "name": "Deposit",
      "type": "event"
    },
    {
      "anonymous": false,
      "inputs": [
        {
          "indexed": false,
          "internalType": "address",
          "name": "switcher",
          "type": "address"
        },
        {
          "indexed": false,
          "internalType": "uint256",
          "name": "amount",
          "type": "uint256"
        }
      ],
      "name": "Invest",
      "type": "event"
    },
    {
      "anonymous": false,
      "inputs": [
        {
          "indexed": true,
          "internalType": "address",
          "name": "from",
          "type": "address"
        },
        {
          "indexed": true,
          "internalType": "address",
          "name": "to",
          "type": "address"
        },
        {
          "indexed": false,
          "internalType": "uint256",
          "name": "value",
          "type": "uint256"
        }
      ],
      "name": "Transfer",
      "type": "event"
    },
    {
      "anonymous": false,
      "inputs": [
        {
          "indexed": true,
          "internalType": "address",
          "name": "sender",
          "type": "address"
        },
        {
          "indexed": true,
          "internalType": "address",
          "name": "receiver",
          "type": "address"
        },
        {
          "indexed": true,
          "internalType": "address",
          "name": "owner",
          "type": "address"
        },
        {
          "indexed": false,
          "internalType": "uint256",
          "name": "assets",
          "type": "uint256"
        },
        {
          "indexed": false,
          "internalType": "uint256",
          "name": "shares",
          "type": "uint256"
        }
      ],
      "name": "Withdraw",
      "type": "event"
    },
    {
      "inputs": [],
      "name": "BUFFER",
      "outputs": [
        {
          "internalType": "uint256",
          "name": "",
          "type": "uint256"
        }
      ],
      "stateMutability": "view",
      "type": "function"
    },
    {
      "inputs": [],
      "name": "BUFFER_DENOMINATOR",
      "outputs": [
        {
          "internalType": "uint256",
          "name": "",
          "type": "uint256"
        }
      ],
      "stateMutability": "view",
      "type": "function"
    },
    {
      "inputs": [
        {
          "internalType": "address",
          "name": "owner",
          "type": "address"
        },
        {
          "internalType": "address",
          "name": "spender",
          "type": "address"
        }
      ],
      "name": "allowance",
      "outputs": [
        {
          "internalType": "uint256",
          "name": "",
          "type": "uint256"
        }
      ],
      "stateMutability": "view",
      "type": "function"
    },
    {
      "inputs": [
        {
          "internalType": "address",
          "name": "spender",
          "type": "address"
        },
        {
          "internalType": "uint256",
          "name": "value",
          "type": "uint256"
        }
      ],
      "name": "approve",
      "outputs": [
        {
          "internalType": "bool",
          "name": "",
          "type": "bool"
        }
      ],
      "stateMutability": "nonpayable",
      "type": "function"
    },
    {
      "inputs": [],
      "name": "asset",
      "outputs": [
        {
          "internalType": "address",
          "name": "",
          "type": "address"
        }
      ],
      "stateMutability": "view",
      "type": "function"
    },
    {
      "inputs": [
        {
          "internalType": "address",
          "name": "account",
          "type": "address"
        }
      ],
      "name": "balanceOf",
      "outputs": [
        {
          "internalType": "uint256",
          "name": "",
          "type": "uint256"
        }
      ],
      "stateMutability": "view",
      "type": "function"
    },
    {
      "inputs": [
        {
          "internalType": "uint256",
          "name": "shares",
          "type": "uint256"
        }
      ],
      "name": "convertToAssets",
      "outputs": [
        {
          "internalType": "uint256",
          "name": "",
          "type": "uint256"
        }
      ],
      "stateMutability": "view",
      "type": "function"
    },
    {
      "inputs": [
        {
          "internalType": "uint256",
          "name": "assets",
          "type": "uint256"
        }
      ],
      "name": "convertToShares",
      "outputs": [
        {
          "internalType": "uint256",
          "name": "",
          "type": "uint256"
        }
      ],
      "stateMutability": "view",
      "type": "function"
    },
    {
      "inputs": [],
      "name": "decimals",
      "outputs": [
        {
          "internalType": "uint8",
          "name": "",
          "type": "uint8"
        }
      ],
      "stateMutability": "view",
      "type": "function"
    },
    {
      "inputs": [
        {
          "internalType": "uint256",
          "name": "assets",
          "type": "uint256"
        },
        {
          "internalType": "address",
          "name": "receiver",
          "type": "address"
        }
      ],
      "name": "deposit",
      "outputs": [
        {
          "internalType": "uint256",
          "name": "",
          "type": "uint256"
        }
      ],
      "stateMutability": "nonpayable",
      "type": "function"
    },
    {
      "inputs": [],
      "name": "gauge",
      "outputs": [
        {
          "internalType": "address",
          "name": "",
          "type": "address"
        }
      ],
      "stateMutability": "view",
      "type": "function"
    },
    {
      "inputs": [
        {
          "internalType": "address",
          "name": "",
          "type": "address"
        }
      ],
      "name": "maxDeposit",
      "outputs": [
        {
          "internalType": "uint256",
          "name": "",
          "type": "uint256"
        }
      ],
      "stateMutability": "view",
      "type": "function"
    },
    {
      "inputs": [
        {
          "internalType": "address",
          "name": "",
          "type": "address"
        }
      ],
      "name": "maxMint",
      "outputs": [
        {
          "internalType": "uint256",
          "name": "",
          "type": "uint256"
        }
      ],
      "stateMutability": "view",
      "type": "function"
    },
    {
      "inputs": [
        {
          "internalType": "address",
          "name": "owner",
          "type": "address"
        }
      ],
      "name": "maxRedeem",
      "outputs": [
        {
          "internalType": "uint256",
          "name": "",
          "type": "uint256"
        }
      ],
      "stateMutability": "view",
      "type": "function"
    },
    {
      "inputs": [
        {
          "internalType": "address",
          "name": "owner",
          "type": "address"
        }
      ],
      "name": "maxWithdraw",
      "outputs": [
        {
          "internalType": "uint256",
          "name": "",
          "type": "uint256"
        }
      ],
      "stateMutability": "view",
      "type": "function"
    },
    {
      "inputs": [
        {
          "internalType": "uint256",
          "name": "shares",
          "type": "uint256"
        },
        {
          "internalType": "address",
          "name": "receiver",
          "type": "address"
        }
      ],
      "name": "mint",
      "outputs": [
        {
          "internalType": "uint256",
          "name": "",
          "type": "uint256"
        }
      ],
      "stateMutability": "nonpayable",
      "type": "function"
    },
    {
      "inputs": [],
      "name": "name",
      "outputs": [
        {
          "internalType": "string",
          "name": "",
          "type": "string"
        }
      ],
      "stateMutability": "view",
      "type": "function"
    },
    {
      "inputs": [
        {
          "internalType": "uint256",
          "name": "assets",
          "type": "uint256"
        }
      ],
      "name": "previewDeposit",
      "outputs": [
        {
          "internalType": "uint256",
          "name": "",
          "type": "uint256"
        }
      ],
      "stateMutability": "view",
      "type": "function"
    },
    {
      "inputs": [
        {
          "internalType": "uint256",
          "name": "shares",
          "type": "uint256"
        }
      ],
      "name": "previewMint",
      "outputs": [
        {
          "internalType": "uint256",
          "name": "",
          "type": "uint256"
        }
      ],
      "stateMutability": "view",
      "type": "function"
    },
    {
      "inputs": [
        {
          "internalType": "uint256",
          "name": "shares",
          "type": "uint256"
        }
      ],
      "name": "previewRedeem",
      "outputs": [
        {
          "internalType": "uint256",
          "name": "",
          "type": "uint256"
        }
      ],
      "stateMutability": "view",
      "type": "function"
    },
    {
      "inputs": [
        {
          "internalType": "uint256",
          "name": "assets",
          "type": "uint256"
        }
      ],
      "name": "previewWithdraw",
      "outputs": [
        {
          "internalType": "uint256",
          "name": "",
          "type": "uint256"
        }
      ],
      "stateMutability": "view",
      "type": "function"
    },
    {
      "inputs": [
        {
          "internalType": "uint256",
          "name": "shares",
          "type": "uint256"
        },
        {
          "internalType": "address",
          "name": "receiver",
          "type": "address"
        },
        {
          "internalType": "address",
          "name": "owner",
          "type": "address"
        }
      ],
      "name": "redeem",
      "outputs": [
        {
          "internalType": "uint256",
          "name": "",
          "type": "uint256"
        }
      ],
      "stateMutability": "nonpayable",
      "type": "function"
    },
    {
      "inputs": [],
      "name": "sharePrice",
      "outputs": [
        {
          "internalType": "uint256",
          "name": "",
          "type": "uint256"
        }
      ],
      "stateMutability": "view",
      "type": "function"
    },
    {
      "inputs": [],
      "name": "switcher",
      "outputs": [
        {
          "internalType": "address",
          "name": "",
          "type": "address"
        }
      ],
      "stateMutability": "view",
      "type": "function"
    },
    {
      "inputs": [],
      "name": "symbol",
      "outputs": [
        {
          "internalType": "string",
          "name": "",
          "type": "string"
        }
      ],
      "stateMutability": "view",
      "type": "function"
    },
    {
      "inputs": [],
      "name": "totalAssets",
      "outputs": [
        {
          "internalType": "uint256",
          "name": "",
          "type": "uint256"
        }
      ],
      "stateMutability": "view",
      "type": "function"
    },
    {
      "inputs": [],
      "name": "totalSupply",
      "outputs": [
        {
          "internalType": "uint256",
          "name": "",
          "type": "uint256"
        }
      ],
      "stateMutability": "view",
      "type": "function"
    },
    {
      "inputs": [
        {
          "internalType": "address",
          "name": "to",
          "type": "address"
        },
        {
          "internalType": "uint256",
          "name": "value",
          "type": "uint256"
        }
      ],
      "name": "transfer",
      "outputs": [
        {
          "internalType": "bool",
          "name": "",
          "type": "bool"
        }
      ],
      "stateMutability": "nonpayable",
      "type": "function"
    },
    {
      "inputs": [
        {
          "internalType": "address",
          "name": "from",
          "type": "address"
        },
        {
          "internalType": "address",
          "name": "to",
          "type": "address"
        },
        {
          "internalType": "uint256",
          "name": "value",
          "type": "uint256"
        }
      ],
      "name": "transferFrom",
      "outputs": [
        {
          "internalType": "bool",
          "name": "",
          "type": "bool"
        }
      ],
      "stateMutability": "nonpayable",
      "type": "function"
    },
    {
      "inputs": [
        {
          "internalType": "uint256",
          "name": "assets",
          "type": "uint256"
        },
        {
          "internalType": "address",
          "name": "receiver",
          "type": "address"
        },
        {
          "internalType": "address",
          "name": "owner",
          "type": "address"
        }
      ],
      "name": "withdraw",
      "outputs": [
        {
          "internalType": "uint256",
          "name": "",
          "type": "uint256"
        }
      ],
      "stateMutability": "nonpayable",
      "type": "function"
    },
    {
      "inputs": [],
      "name": "withdrawAll",
      "outputs": [],
      "stateMutability": "nonpayable",
      "type": "function"
    },
    {
      "inputs": [],
      "name": "withdrawRequestBlocks",
      "outputs": [
        {
          "internalType": "uint256",
          "name": "",
          "type": "uint256"
        }
      ],
      "stateMutability": "view",
      "type": "function"
    },
    {
      "inputs": [
        {
          "internalType": "address",
          "name": "",
          "type": "address"
        }
      ],
      "name": "withdrawRequests",
      "outputs": [
        {
          "internalType": "uint256",
          "name": "",
          "type": "uint256"
        }
      ],
      "stateMutability": "view",
      "type": "function"
    }
  ],
  "transactionHash": "0xbcc7b2e6bd4d9214a4fb5603829d58053cbd02542921cb3807435c5b6608a14a",
  "args": [
    "0x02Af36760deDf3a2ac3Fa7f5af072b9aDaf3F504",
    "0xb58De97355fb3cFF58db07b3dd5b7dd3e8898425",
    "0xE0D142466d1BF88FE23D5D265d76068077E4D6F0"
  ],
  "numDeployments": 1,
  "solcInputHash": "cd9d925b63ac700938c46a08eefd7125",
  "bytecode": "0x6101006040523480156200001257600080fd5b50604051620021d7380380620021d78339810160408190526200003591620002b4565b82604051806040016040528060128152602001710a6f2dce8d0cae8d2c64088d2ecc2408aa8960731b815250604051806040016040528060058152602001640f4d68aa8960db1b8152508160039081620000909190620003a5565b5060046200009f8282620003a5565b505050600080620000b683620001b260201b60201c565b9150915081620000c8576012620000ca565b805b60ff1660a05250506001600160a01b039081166080526001600590815583821660c081905283831660e0526006919091556040516366d3820360e01b81529185166004830152906366d3820390602401600060405180830381600087803b1580156200013557600080fd5b505af11580156200014a573d6000803e3d6000fd5b5050604051631e9b12ef60e01b81523060048201526001600160a01b0384169250631e9b12ef9150602401600060405180830381600087803b1580156200019057600080fd5b505af1158015620001a5573d6000803e3d6000fd5b50505050505050620004bc565b60408051600481526024810182526020810180516001600160e01b031663313ce56760e01b17905290516000918291829182916001600160a01b03871691620001fb9162000471565b600060405180830381855afa9150503d806000811462000238576040519150601f19603f3d011682016040523d82523d6000602084013e6200023d565b606091505b50915091508180156200025257506020815110155b156200028a57600081806020019051810190620002709190620004a2565b905060ff811162000288576001969095509350505050565b505b5060009485945092505050565b80516001600160a01b0381168114620002af57600080fd5b919050565b600080600060608486031215620002ca57600080fd5b620002d58462000297565b9250620002e56020850162000297565b9150620002f56040850162000297565b90509250925092565b634e487b7160e01b600052604160045260246000fd5b600181811c908216806200032957607f821691505b6020821081036200034a57634e487b7160e01b600052602260045260246000fd5b50919050565b601f821115620003a0576000816000526020600020601f850160051c810160208610156200037b5750805b601f850160051c820191505b818110156200039c5782815560010162000387565b5050505b505050565b81516001600160401b03811115620003c157620003c1620002fe565b620003d981620003d2845462000314565b8462000350565b602080601f831160018114620004115760008415620003f85750858301515b600019600386901b1c1916600185901b1785556200039c565b600085815260208120601f198616915b82811015620004425788860151825594840194600190910190840162000421565b5085821015620004615787850151600019600388901b60f8161c191681555b5050505050600190811b01905550565b6000825160005b8181101562000494576020818601810151858301520162000478565b506000920191825250919050565b600060208284031215620004b557600080fd5b5051919050565b60805160a05160c05160e051611ca262000535600039600081816103730152610fa50152600081816103e60152818161046b01528181610a990152610cbf0152600061067f0152600081816102b00152818161050201528181610abb01528181610c2d01528181610dae01526110770152611ca26000f3fe608060405234801561001057600080fd5b50600436106101fb5760003560e01c80638fbc3ecd1161011a578063bc4462de116100ad578063ce96cb771161007c578063ce96cb7714610424578063d905777e14610437578063da76ed931461044a578063dd62ed3e14610454578063ef8b30f71461040857600080fd5b8063bc4462de146103e1578063c63d75b6146102dd578063c6e6f59214610408578063cd8a6a4d1461041b57600080fd5b8063a9059cbb116100e9578063a9059cbb14610395578063b3d7f6b9146103a8578063b460af94146103bb578063ba087652146103ce57600080fd5b80638fbc3ecd1461034a57806394bf804d1461035357806395d89b4114610366578063a6f19c841461036e57600080fd5b806338d52e0f116101925780636e553f65116101615780636e553f651461031257806370a0823114610325578063853828b614610338578063872697291461034257600080fd5b806338d52e0f146102ae578063402d267d146102dd5780634cdad5061461023057806352df49ec146102f257600080fd5b80630a28a477116101ce5780630a28a4771461026657806318160ddd1461027957806323b872dd14610281578063313ce5671461029457600080fd5b806301e1d1141461020057806306fdde031461021b57806307a2d13a14610230578063095ea7b314610243575b600080fd5b610208610467565b6040519081526020015b60405180910390f35b610223610587565b604051610212919061185e565b61020861023e366004611891565b610619565b6102566102513660046118c6565b61062c565b6040519015158152602001610212565b610208610274366004611891565b610644565b600254610208565b61025661028f3660046118f0565b610651565b61029c610677565b60405160ff9091168152602001610212565b7f00000000000000000000000000000000000000000000000000000000000000005b604051610212919061192c565b6102086102eb366004611940565b5060001990565b610208610300366004611940565b60076020526000908152604090205481565b61020861032036600461195b565b6106a3565b610208610333366004611940565b6106d2565b6103406106ed565b005b610208610703565b6102086103e881565b61020861036136600461195b565b61075c565b61022361077f565b6102d07f000000000000000000000000000000000000000000000000000000000000000081565b6102566103a33660046118c6565b61078e565b6102086103b6366004611891565b61079c565b6102086103c9366004611987565b6107a9565b6102086103dc366004611987565b610822565b6102d07f000000000000000000000000000000000000000000000000000000000000000081565b610208610416366004611891565b6108a6565b61020860065481565b610208610432366004611940565b6108b3565b610208610445366004611940565b6108c8565b610208620186a081565b6102086104623660046119c3565b6108d3565b60007f00000000000000000000000000000000000000000000000000000000000000006001600160a01b03166301e1d1146040518163ffffffff1660e01b8152600401602060405180830381865afa1580156104c7573d6000803e3d6000fd5b505050506040513d601f19601f820116820180604052508101906104eb91906119ed565b6040516370a0823160e01b81526001600160a01b037f000000000000000000000000000000000000000000000000000000000000000016906370a082319061053790309060040161192c565b602060405180830381865afa158015610554573d6000803e3d6000fd5b505050506040513d601f19601f8201168201806040525081019061057891906119ed565b6105829190611a1c565b905090565b60606003805461059690611a2f565b80601f01602080910402602001604051908101604052809291908181526020018280546105c290611a2f565b801561060f5780601f106105e45761010080835404028352916020019161060f565b820191906000526020600020905b8154815290600101906020018083116105f257829003601f168201915b5050505050905090565b60006106268260006108fe565b92915050565b60003361063a818585610938565b5060019392505050565b600061062682600161094a565b60003361065f85828561097a565b61066a8585856109cd565b60019150505b9392505050565b6000610582817f0000000000000000000000000000000000000000000000000000000000000000611a69565b60006106ad610a2c565b60006106b98484610a56565b90506106c6848285610a7c565b90506106266001600555565b6001600160a01b031660009081526020819052604090205490565b6107006106f9336106d2565b3333610822565b50565b60008061070e610677565b61071c9060ff16600a611b66565b9050600061072960025490565b90508015610753578061073a610467565b6107449084611b72565b61074e9190611b9f565b610755565b815b9250505090565b6000610766610a2c565b60006107728484610ba0565b90506106c6818585610a7c565b60606004805461059690611a2f565b60003361063a8185856109cd565b60006106268260016108fe565b60006107b3610a2c565b60006107be836108b3565b9050808511156107f057828582604051633fa733bb60e21b81526004016107e793929190611bb3565b60405180910390fd5b60006107fb86610644565b9050610808868286610bbe565b6108153386868985610d7b565b9150506106706001600555565b600061082c610a2c565b6000610837836108c8565b90508085111561086057828582604051632e52afbb60e21b81526004016107e793929190611bb3565b600061086b86610619565b90508060000361088e57604051631f2a200560e01b815260040160405180910390fd5b610899818786610bbe565b610815338686848a610d7b565b600061062682600061094a565b60006106266108c1836106d2565b60006108fe565b6000610626826106d2565b6001600160a01b03918216600090815260016020908152604080832093909416825291909152205490565b600061067061090b610467565b610916906001611a1c565b6109226000600a611bd4565b60025461092f9190611a1c565b85919085610e3b565b6109458383836001610e8c565b505050565b600061067061095a82600a611bd4565b6002546109679190611a1c565b61096f610467565b61092f906001611a1c565b600061098684846108d3565b905060001981146109c757818110156109b857828183604051637dc7a0d960e11b81526004016107e793929190611bb3565b6109c784848484036000610e8c565b50505050565b6001600160a01b0383166109f7576000604051634b637e8f60e11b81526004016107e7919061192c565b6001600160a01b038216610a2157600060405163ec442f0560e01b81526004016107e7919061192c565b610945838383610f61565b600260055403610a4f57604051633ee5aeb560e01b815260040160405180910390fd5b6002600555565b60006000196000610a66856108a6565b9050610a7433858784611072565b949350505050565b6001600160a01b03811660009081526007602052604081204390557f0000000000000000000000000000000000000000000000000000000000000000907f000000000000000000000000000000000000000000000000000000000000000090610ae583836110f6565b90508015610b9857610b016001600160a01b038316848361123c565b826001600160a01b031663df8725366040518163ffffffff1660e01b8152600401600060405180830381600087803b158015610b3c57600080fd5b505af1158015610b50573d6000803e3d6000fd5b5050604080516001600160a01b0387168152602081018590527fd90d253a9de34d2fdd5a75ae49ea17fcb43af32fc8ea08cc6d2341991dd3872e935001905060405180910390a15b505050505050565b60006000196000610bb08561079c565b9050610a7433858388611072565b6006546001600160a01b0382166000908152600760205260409020544391610be591611a1c565b10610c0357604051630add1e2b60e21b815260040160405180910390fd5b6001600160a01b03818116600090815260076020526040808220439055516370a0823160e01b81527f0000000000000000000000000000000000000000000000000000000000000000928316906370a0823190610c6490309060040161192c565b602060405180830381865afa158015610c81573d6000803e3d6000fd5b505050506040513d601f19601f82011682018060405250810190610ca591906119ed565b905084811015610ce457610ce48585610cbd60025490565b7f00000000000000000000000000000000000000000000000000000000000000008561129b565b6040516370a0823160e01b81526001600160a01b038316906370a0823190610d1090309060040161192c565b602060405180830381865afa158015610d2d573d6000803e3d6000fd5b505050506040513d601f19601f82011682018060405250810190610d5191906119ed565b905080851115610d74576040516307dd37f760e41b815260040160405180910390fd5b5050505050565b826001600160a01b0316856001600160a01b031614610d9f57610d9f83868361097a565b610da9838261141b565b610dd47f0000000000000000000000000000000000000000000000000000000000000000858461123c565b826001600160a01b0316846001600160a01b0316866001600160a01b03167ffbde797d201c681b91056529119e0b02407c7bb96a4a2c75c01fc9667232c8db8585604051610e2c929190918252602082015260400190565b60405180910390a45050505050565b600080610e49868686611455565b9050610e5483611519565b8015610e70575060008480610e6b57610e6b611b89565b868809115b15610e8357610e80600182611a1c565b90505b95945050505050565b6001600160a01b038416610eb657600060405163e602df0560e01b81526004016107e7919061192c565b6001600160a01b038316610ee0576000604051634a1406b160e11b81526004016107e7919061192c565b6001600160a01b03808516600090815260016020908152604080832093871683529290522082905580156109c757826001600160a01b0316846001600160a01b03167f8c5be1e5ebec7d5bd14f71427d1e84f3dd0314c0f7b2291e5b200ac8c7c3b92584604051610f5391815260200190565b60405180910390a350505050565b610f6c838383611546565b6001600160a01b038084166000908152600760205260408082204390819055858416835291819020919091555163f2c2c2c960e01b81527f00000000000000000000000000000000000000000000000000000000000000009182169063f2c2c2c990610fdc90879060040161192c565b600060405180830381600087803b158015610ff657600080fd5b505af115801561100a573d6000803e3d6000fd5b505060405163f2c2c2c960e01b81526001600160a01b038416925063f2c2c2c9915061103a90869060040161192c565b600060405180830381600087803b15801561105457600080fd5b505af1158015611068573d6000803e3d6000fd5b5050505050505050565b61109e7f000000000000000000000000000000000000000000000000000000000000000085308561165d565b6110a88382611696565b826001600160a01b0316846001600160a01b03167fdcbc1c05240f31ff3ad067ef1ee35ce4997762752e3a095284754544f4c709d78484604051610f53929190918252602082015260400190565b600080826001600160a01b03166370a08231306040518263ffffffff1660e01b8152600401611125919061192c565b602060405180830381865afa158015611142573d6000803e3d6000fd5b505050506040513d601f19601f8201168201806040525081019061116691906119ed565b90506000846001600160a01b03166301e1d1146040518163ffffffff1660e01b8152600401602060405180830381865afa1580156111a8573d6000803e3d6000fd5b505050506040513d601f19601f820116820180604052508101906111cc91906119ed565b90506000620186a06111e06103e882611be3565b6111ea8486611a1c565b6111f49190611b72565b6111fe9190611b9f565b90508082106112135760009350505050610626565b600061121f8383611be3565b90508381111561122f5783611231565b805b979650505050505050565b6040516001600160a01b0383811660248301526044820183905261094591859182169063a9059cbb906064015b604051602081830303815290604052915060e01b6020820180516001600160e01b0383818316178352505050506116cc565b8284036112fa57816001600160a01b031663bfd131f16040518163ffffffff1660e01b8152600401600060405180830381600087803b1580156112dd57600080fd5b505af11580156112f1573d6000803e3d6000fd5b50505050610d74565b6000826001600160a01b03166301e1d1146040518163ffffffff1660e01b8152600401602060405180830381865afa15801561133a573d6000803e3d6000fd5b505050506040513d601f19601f8201168201806040525081019061135e91906119ed565b90506000620186a06103e8886113748686611a1c565b61137e9190611be3565b6113889190611b72565b6113929190611b9f565b905060006113b4846113a48a85611a1c565b6113ae9190611be3565b84611726565b6040516319d1885d60e31b8152600481018290529091506001600160a01b0386169063ce8c42e890602401600060405180830381600087803b1580156113f957600080fd5b505af115801561140d573d6000803e3d6000fd5b505050505050505050505050565b6001600160a01b038216611445576000604051634b637e8f60e11b81526004016107e7919061192c565b61145182600083610f61565b5050565b600083830281600019858709828110838203039150508060000361148c5783828161148257611482611b89565b0492505050610670565b8084116114ac5760405163227bc15360e01b815260040160405180910390fd5b6000848688096000868103871696879004966002600389028118808a02820302808a02820302808a02820302808a02820302808a02820302808a02909103029181900381900460010186841190950394909402919094039290920491909117919091029150509392505050565b6000600282600381111561152f5761152f611bf6565b6115399190611c0c565b60ff166001149050919050565b6001600160a01b0383166115715780600260008282546115669190611a1c565b909155506115d09050565b6001600160a01b038316600090815260208190526040902054818110156115b15783818360405163391434e360e21b81526004016107e793929190611bb3565b6001600160a01b03841660009081526020819052604090209082900390555b6001600160a01b0382166115ec5760028054829003905561160b565b6001600160a01b03821660009081526020819052604090208054820190555b816001600160a01b0316836001600160a01b03167fddf252ad1be2c89b69c2b068fc378daa952ba7f163c4a11628f55a4df523b3ef8360405161165091815260200190565b60405180910390a3505050565b6040516001600160a01b0384811660248301528381166044830152606482018390526109c79186918216906323b872dd90608401611269565b6001600160a01b0382166116c057600060405163ec442f0560e01b81526004016107e7919061192c565b61145160008383610f61565b60006116e16001600160a01b0384168361173c565b905080516000141580156117065750808060200190518101906117049190611c2e565b155b156109455782604051635274afe760e01b81526004016107e7919061192c565b60008183106117355781610670565b5090919050565b60606106708383600084600080856001600160a01b031684866040516117629190611c50565b60006040518083038185875af1925050503d806000811461179f576040519150601f19603f3d011682016040523d82523d6000602084013e6117a4565b606091505b50915091506117b48683836117be565b9695505050505050565b6060826117d3576117ce82611811565b610670565b81511580156117ea57506001600160a01b0384163b155b1561180a5783604051639996b31560e01b81526004016107e7919061192c565b5080610670565b8051156118215780518082602001fd5b604051630a12f52160e11b815260040160405180910390fd5b60005b8381101561185557818101518382015260200161183d565b50506000910152565b602081526000825180602084015261187d81604085016020870161183a565b601f01601f19169190910160400192915050565b6000602082840312156118a357600080fd5b5035919050565b80356001600160a01b03811681146118c157600080fd5b919050565b600080604083850312156118d957600080fd5b6118e2836118aa565b946020939093013593505050565b60008060006060848603121561190557600080fd5b61190e846118aa565b925061191c602085016118aa565b9150604084013590509250925092565b6001600160a01b0391909116815260200190565b60006020828403121561195257600080fd5b610670826118aa565b6000806040838503121561196e57600080fd5b8235915061197e602084016118aa565b90509250929050565b60008060006060848603121561199c57600080fd5b833592506119ac602085016118aa565b91506119ba604085016118aa565b90509250925092565b600080604083850312156119d657600080fd5b6119df836118aa565b915061197e602084016118aa565b6000602082840312156119ff57600080fd5b5051919050565b634e487b7160e01b600052601160045260246000fd5b8082018082111561062657610626611a06565b600181811c90821680611a4357607f821691505b602082108103611a6357634e487b7160e01b600052602260045260246000fd5b50919050565b60ff818116838216019081111561062657610626611a06565b600181815b80851115611abd578160001904821115611aa357611aa3611a06565b80851615611ab057918102915b93841c9390800290611a87565b509250929050565b600082611ad457506001610626565b81611ae157506000610626565b8160018114611af75760028114611b0157611b1d565b6001915050610626565b60ff841115611b1257611b12611a06565b50506001821b610626565b5060208310610133831016604e8410600b8410161715611b40575081810a610626565b611b4a8383611a82565b8060001904821115611b5e57611b5e611a06565b029392505050565b60006106708383611ac5565b808202811582820484141761062657610626611a06565b634e487b7160e01b600052601260045260246000fd5b600082611bae57611bae611b89565b500490565b6001600160a01b039390931683526020830191909152604082015260600190565b600061067060ff841683611ac5565b8181038181111561062657610626611a06565b634e487b7160e01b600052602160045260246000fd5b600060ff831680611c1f57611c1f611b89565b8060ff84160691505092915050565b600060208284031215611c4057600080fd5b8151801515811461067057600080fd5b60008251611c6281846020870161183a565b919091019291505056fea2646970667358221220684d2d72f87af2d7ccb0c8d12d5bf001e0b5f02eba4534d064f1cbb1a6f6f9b364736f6c63430008180033",
  "devdoc": {
    "author": "a17",
    "errors": {
      "AddressEmptyCode(address)": [
        {
          "details": "There's no code at `target` (it is not a contract)."
        }
      ],
      "AddressInsufficientBalance(address)": [
        {
          "details": "The ETH balance of the account is not enough to perform the operation."
        }
      ],
      "ERC20InsufficientAllowance(address,uint256,uint256)": [
        {
          "details": "Indicates a failure with the `spender`s `allowance`. Used in transfers.",
          "params": {
            "allowance": "Amount of tokens a `spender` is allowed to operate with.",
            "needed": "Minimum amount required to perform a transfer.",
            "spender": "Address that may be allowed to operate on tokens without being their owner."
          }
        }
      ],
      "ERC20InsufficientBalance(address,uint256,uint256)": [
        {
          "details": "Indicates an error related to the current `balance` of a `sender`. Used in transfers.",
          "params": {
            "balance": "Current balance for the interacting account.",
            "needed": "Minimum amount required to perform a transfer.",
            "sender": "Address whose tokens are being transferred."
          }
        }
      ],
      "ERC20InvalidApprover(address)": [
        {
          "details": "Indicates a failure with the `approver` of a token to be approved. Used in approvals.",
          "params": {
            "approver": "Address initiating an approval operation."
          }
        }
      ],
      "ERC20InvalidReceiver(address)": [
        {
          "details": "Indicates a failure with the token `receiver`. Used in transfers.",
          "params": {
            "receiver": "Address to which tokens are being transferred."
          }
        }
      ],
      "ERC20InvalidSender(address)": [
        {
          "details": "Indicates a failure with the token `sender`. Used in transfers.",
          "params": {
            "sender": "Address whose tokens are being transferred."
          }
        }
      ],
      "ERC20InvalidSpender(address)": [
        {
          "details": "Indicates a failure with the `spender` to be approved. Used in approvals.",
          "params": {
            "spender": "Address that may be allowed to operate on tokens without being their owner."
          }
        }
      ],
      "ERC4626ExceededMaxDeposit(address,uint256,uint256)": [
        {
          "details": "Attempted to deposit more assets than the max amount for `receiver`."
        }
      ],
      "ERC4626ExceededMaxMint(address,uint256,uint256)": [
        {
          "details": "Attempted to mint more shares than the max amount for `receiver`."
        }
      ],
      "ERC4626ExceededMaxRedeem(address,uint256,uint256)": [
        {
          "details": "Attempted to redeem more shares than the max amount for `receiver`."
        }
      ],
      "ERC4626ExceededMaxWithdraw(address,uint256,uint256)": [
        {
          "details": "Attempted to withdraw more assets than the max amount for `receiver`."
        }
      ],
      "FailedInnerCall()": [
        {
          "details": "A call to an address target failed. The target may have reverted."
        }
      ],
      "MathOverflowedMulDiv()": [
        {
          "details": "Muldiv operation overflow."
        }
      ],
      "ReentrancyGuardReentrantCall()": [
        {
          "details": "Unauthorized reentrant call."
        }
      ],
      "SafeERC20FailedOperation(address)": [
        {
          "details": "An operation with an ERC20 token failed."
        }
      ]
    },
    "events": {
      "Approval(address,address,uint256)": {
        "details": "Emitted when the allowance of a `spender` for an `owner` is set by a call to {approve}. `value` is the new allowance."
      },
      "Transfer(address,address,uint256)": {
        "details": "Emitted when `value` tokens are moved from one account (`from`) to another (`to`). Note that `value` may be zero."
      }
    },
    "kind": "dev",
    "methods": {
      "allowance(address,address)": {
        "details": "See {IERC20-allowance}."
      },
      "approve(address,uint256)": {
        "details": "See {IERC20-approve}. NOTE: If `value` is the maximum `uint256`, the allowance is not updated on `transferFrom`. This is semantically equivalent to an infinite approval. Requirements: - `spender` cannot be the zero address."
      },
      "asset()": {
        "details": "See {IERC4626-asset}. "
      },
      "balanceOf(address)": {
        "details": "See {IERC20-balanceOf}."
      },
      "convertToAssets(uint256)": {
        "details": "See {IERC4626-convertToAssets}. "
      },
      "convertToShares(uint256)": {
        "details": "See {IERC4626-convertToShares}. "
      },
      "decimals()": {
        "details": "Decimals are computed by adding the decimal offset on top of the underlying asset's decimals. This \"original\" value is cached during construction of the vault contract. If this read operation fails (e.g., the asset has not been created yet), a default of 18 is used to represent the underlying asset's decimals. See {IERC20Metadata-decimals}."
      },
      "deposit(uint256,address)": {
        "details": "Mints shares Vault shares to receiver by depositing exactly amount of underlying tokens. - MUST emit the Deposit event. - MAY support an additional flow in which the underlying tokens are owned by the Vault contract before the   deposit execution, and are accounted for during deposit. - MUST revert if all of assets cannot be deposited (due to deposit limit being reached, slippage, the user not   approving enough underlying tokens to the Vault contract, etc). NOTE: most implementations will require pre-approval of the Vault with the Vaults underlying asset token."
      },
      "maxDeposit(address)": {
        "details": "See {IERC4626-maxDeposit}. "
      },
      "maxMint(address)": {
        "details": "See {IERC4626-maxMint}. "
      },
      "maxRedeem(address)": {
        "details": "See {IERC4626-maxRedeem}. "
      },
      "maxWithdraw(address)": {
        "details": "See {IERC4626-maxWithdraw}. "
      },
      "mint(uint256,address)": {
        "details": "Mints exactly shares Vault shares to receiver by depositing amount of underlying tokens. - MUST emit the Deposit event. - MAY support an additional flow in which the underlying tokens are owned by the Vault contract before the mint   execution, and are accounted for during mint. - MUST revert if all of shares cannot be minted (due to deposit limit being reached, slippage, the user not   approving enough underlying tokens to the Vault contract, etc). NOTE: most implementations will require pre-approval of the Vault with the Vaults underlying asset token."
      },
      "name()": {
        "details": "Returns the name of the token."
      },
      "previewDeposit(uint256)": {
        "details": "See {IERC4626-previewDeposit}. "
      },
      "previewMint(uint256)": {
        "details": "See {IERC4626-previewMint}. "
      },
      "previewRedeem(uint256)": {
        "details": "See {IERC4626-previewRedeem}. "
      },
      "previewWithdraw(uint256)": {
        "details": "See {IERC4626-previewWithdraw}. "
      },
      "redeem(uint256,address,address)": {
        "details": "Burns exactly shares from owner and sends assets of underlying tokens to receiver. - MUST emit the Withdraw event. - MAY support an additional flow in which the underlying tokens are owned by the Vault contract before the   redeem execution, and are accounted for during redeem. - MUST revert if all of shares cannot be redeemed (due to withdrawal limit being reached, slippage, the owner   not having enough shares, etc). NOTE: some implementations will require pre-requesting to the Vault before a withdrawal may be performed. Those methods should be performed separately."
      },
      "sharePrice()": {
        "details": "Price of 1 full share"
      },
      "symbol()": {
        "details": "Returns the symbol of the token, usually a shorter version of the name."
      },
      "totalAssets()": {
        "details": "Total amount of the underlying asset that is managed by Vault"
      },
      "totalSupply()": {
        "details": "See {IERC20-totalSupply}."
      },
      "transfer(address,uint256)": {
        "details": "See {IERC20-transfer}. Requirements: - `to` cannot be the zero address. - the caller must have a balance of at least `value`."
      },
      "transferFrom(address,address,uint256)": {
        "details": "See {IERC20-transferFrom}. Emits an {Approval} event indicating the updated allowance. This is not required by the EIP. See the note at the beginning of {ERC20}. NOTE: Does not update the allowance if the current allowance is the maximum `uint256`. Requirements: - `from` and `to` cannot be the zero address. - `from` must have a balance of at least `value`. - the caller must have allowance for ``from``'s tokens of at least `value`."
      },
      "withdraw(uint256,address,address)": {
        "details": "Burns shares from owner and sends exactly assets of underlying tokens to receiver. - MUST emit the Withdraw event. - MAY support an additional flow in which the underlying tokens are owned by the Vault contract before the   withdraw execution, and are accounted for during withdraw. - MUST revert if all of assets cannot be withdrawn (due to withdrawal limit being reached, slippage, the owner   not having enough shares, etc). Note that some implementations will require pre-requesting to the Vault before a withdrawal may be performed. Those methods should be performed separately."
      },
      "withdrawAll()": {
        "details": "Withdraw all available shares for tx sender.      The revert is expected if the balance is higher than `maxRedeem`      It suppose to be used only on UI - for on-chain interactions withdraw concrete amount with properly checks."
      }
    },
    "stateVariables": {
      "BUFFER": {
        "details": "Percent of assets that will always stay in this vault."
      },
      "BUFFER_DENOMINATOR": {
        "details": "Denominator for buffer calculation. 100% of the buffer amount."
      },
      "withdrawRequestBlocks": {
        "details": "A user should wait this block amounts before able to withdraw."
      },
      "withdrawRequests": {
        "details": "msg.sender => block when request sent. Should be cleared on deposit/withdraw action      For simplification we are setup new withdraw request on each deposit/transfer"
      }
    },
    "title": "Diva liquid staked Ether on zkEVM",
    "version": 1
  },
  "userdoc": {
    "kind": "user",
    "methods": {
      "gauge()": {
        "notice": "Stakeless gauge for distributing rewards"
      },
      "switcher()": {
        "notice": "The switcher manages the staking strategy"
      }
    },
    "version": 1
  },
  "storageLayout": {
    "storage": [
      {
        "astId": 1923,
        "contract": "contracts/ZkETH.sol:ZkETH",
        "label": "_balances",
        "offset": 0,
        "slot": "0",
        "type": "t_mapping(t_address,t_uint256)"
      },
      {
        "astId": 1929,
        "contract": "contracts/ZkETH.sol:ZkETH",
        "label": "_allowances",
        "offset": 0,
        "slot": "1",
        "type": "t_mapping(t_address,t_mapping(t_address,t_uint256))"
      },
      {
        "astId": 1931,
        "contract": "contracts/ZkETH.sol:ZkETH",
        "label": "_totalSupply",
        "offset": 0,
        "slot": "2",
        "type": "t_uint256"
      },
      {
        "astId": 1933,
        "contract": "contracts/ZkETH.sol:ZkETH",
        "label": "_name",
        "offset": 0,
        "slot": "3",
        "type": "t_string_storage"
      },
      {
        "astId": 1935,
        "contract": "contracts/ZkETH.sol:ZkETH",
        "label": "_symbol",
        "offset": 0,
        "slot": "4",
        "type": "t_string_storage"
      },
      {
        "astId": 3824,
        "contract": "contracts/ZkETH.sol:ZkETH",
        "label": "_status",
        "offset": 0,
        "slot": "5",
        "type": "t_uint256"
      },
      {
        "astId": 8165,
        "contract": "contracts/ZkETH.sol:ZkETH",
        "label": "withdrawRequestBlocks",
        "offset": 0,
        "slot": "6",
        "type": "t_uint256"
      },
      {
        "astId": 8170,
        "contract": "contracts/ZkETH.sol:ZkETH",
        "label": "withdrawRequests",
        "offset": 0,
        "slot": "7",
        "type": "t_mapping(t_address,t_uint256)"
      }
    ],
    "types": {
      "t_address": {
        "encoding": "inplace",
        "label": "address",
        "numberOfBytes": "20"
      },
      "t_mapping(t_address,t_mapping(t_address,t_uint256))": {
        "encoding": "mapping",
        "key": "t_address",
        "label": "mapping(address => mapping(address => uint256))",
        "numberOfBytes": "32",
        "value": "t_mapping(t_address,t_uint256)"
      },
      "t_mapping(t_address,t_uint256)": {
        "encoding": "mapping",
        "key": "t_address",
        "label": "mapping(address => uint256)",
        "numberOfBytes": "32",
        "value": "t_uint256"
      },
      "t_string_storage": {
        "encoding": "bytes",
        "label": "string",
        "numberOfBytes": "32"
      },
      "t_uint256": {
        "encoding": "inplace",
        "label": "uint256",
        "numberOfBytes": "32"
      }
    }
  }
}